{
  "contractName": "BlogNFT",
  "abi": [
    {
      "inputs": [
        {
          "internalType": "string",
          "name": "_name",
          "type": "string"
        },
        {
          "internalType": "string",
          "name": "_symbol",
          "type": "string"
        },
        {
          "internalType": "uint256",
          "name": "_fee",
          "type": "uint256"
        }
      ],
      "stateMutability": "nonpayable",
      "type": "constructor"
    },
    {
      "anonymous": false,
      "inputs": [
        {
          "indexed": true,
          "internalType": "address",
          "name": "owner",
          "type": "address"
        },
        {
          "indexed": true,
          "internalType": "address",
          "name": "approved",
          "type": "address"
        },
        {
          "indexed": true,
          "internalType": "uint256",
          "name": "tokenId",
          "type": "uint256"
        }
      ],
      "name": "Approval",
      "type": "event"
    },
    {
      "anonymous": false,
      "inputs": [
        {
          "indexed": true,
          "internalType": "address",
          "name": "owner",
          "type": "address"
        },
        {
          "indexed": true,
          "internalType": "address",
          "name": "operator",
          "type": "address"
        },
        {
          "indexed": false,
          "internalType": "bool",
          "name": "approved",
          "type": "bool"
        }
      ],
      "name": "ApprovalForAll",
      "type": "event"
    },
    {
      "anonymous": false,
      "inputs": [
        {
          "indexed": true,
          "internalType": "address",
          "name": "previousOwner",
          "type": "address"
        },
        {
          "indexed": true,
          "internalType": "address",
          "name": "newOwner",
          "type": "address"
        }
      ],
      "name": "OwnershipTransferred",
      "type": "event"
    },
    {
      "anonymous": false,
      "inputs": [
        {
          "indexed": true,
          "internalType": "address",
          "name": "from",
          "type": "address"
        },
        {
          "indexed": true,
          "internalType": "address",
          "name": "to",
          "type": "address"
        },
        {
          "indexed": true,
          "internalType": "uint256",
          "name": "tokenId",
          "type": "uint256"
        }
      ],
      "name": "Transfer",
      "type": "event"
    },
    {
      "inputs": [
        {
          "internalType": "address",
          "name": "to",
          "type": "address"
        },
        {
          "internalType": "uint256",
          "name": "tokenId",
          "type": "uint256"
        }
      ],
      "name": "approve",
      "outputs": [],
      "stateMutability": "nonpayable",
      "type": "function"
    },
    {
      "inputs": [
        {
          "internalType": "address",
          "name": "owner",
          "type": "address"
        }
      ],
      "name": "balanceOf",
      "outputs": [
        {
          "internalType": "uint256",
          "name": "",
          "type": "uint256"
        }
      ],
      "stateMutability": "view",
      "type": "function"
    },
    {
      "inputs": [],
      "name": "fees",
      "outputs": [
        {
          "internalType": "uint256",
          "name": "",
          "type": "uint256"
        }
      ],
      "stateMutability": "view",
      "type": "function"
    },
    {
      "inputs": [
        {
          "internalType": "uint256",
          "name": "tokenId",
          "type": "uint256"
        }
      ],
      "name": "getApproved",
      "outputs": [
        {
          "internalType": "address",
          "name": "",
          "type": "address"
        }
      ],
      "stateMutability": "view",
      "type": "function"
    },
    {
      "inputs": [
        {
          "internalType": "address",
          "name": "owner",
          "type": "address"
        },
        {
          "internalType": "address",
          "name": "operator",
          "type": "address"
        }
      ],
      "name": "isApprovedForAll",
      "outputs": [
        {
          "internalType": "bool",
          "name": "",
          "type": "bool"
        }
      ],
      "stateMutability": "view",
      "type": "function"
    },
    {
      "inputs": [],
      "name": "name",
      "outputs": [
        {
          "internalType": "string",
          "name": "",
          "type": "string"
        }
      ],
      "stateMutability": "view",
      "type": "function"
    },
    {
      "inputs": [],
      "name": "owner",
      "outputs": [
        {
          "internalType": "address",
          "name": "",
          "type": "address"
        }
      ],
      "stateMutability": "view",
      "type": "function"
    },
    {
      "inputs": [
        {
          "internalType": "uint256",
          "name": "tokenId",
          "type": "uint256"
        }
      ],
      "name": "ownerOf",
      "outputs": [
        {
          "internalType": "address",
          "name": "",
          "type": "address"
        }
      ],
      "stateMutability": "view",
      "type": "function"
    },
    {
      "inputs": [],
      "name": "renounceOwnership",
      "outputs": [],
      "stateMutability": "nonpayable",
      "type": "function"
    },
    {
      "inputs": [
        {
          "internalType": "address",
          "name": "from",
          "type": "address"
        },
        {
          "internalType": "address",
          "name": "to",
          "type": "address"
        },
        {
          "internalType": "uint256",
          "name": "tokenId",
          "type": "uint256"
        }
      ],
      "name": "safeTransferFrom",
      "outputs": [],
      "stateMutability": "nonpayable",
      "type": "function"
    },
    {
      "inputs": [
        {
          "internalType": "address",
          "name": "from",
          "type": "address"
        },
        {
          "internalType": "address",
          "name": "to",
          "type": "address"
        },
        {
          "internalType": "uint256",
          "name": "tokenId",
          "type": "uint256"
        },
        {
          "internalType": "bytes",
          "name": "data",
          "type": "bytes"
        }
      ],
      "name": "safeTransferFrom",
      "outputs": [],
      "stateMutability": "nonpayable",
      "type": "function"
    },
    {
      "inputs": [
        {
          "internalType": "address",
          "name": "operator",
          "type": "address"
        },
        {
          "internalType": "bool",
          "name": "approved",
          "type": "bool"
        }
      ],
      "name": "setApprovalForAll",
      "outputs": [],
      "stateMutability": "nonpayable",
      "type": "function"
    },
    {
      "inputs": [
        {
          "internalType": "bytes4",
          "name": "interfaceId",
          "type": "bytes4"
        }
      ],
      "name": "supportsInterface",
      "outputs": [
        {
          "internalType": "bool",
          "name": "",
          "type": "bool"
        }
      ],
      "stateMutability": "view",
      "type": "function"
    },
    {
      "inputs": [],
      "name": "symbol",
      "outputs": [
        {
          "internalType": "string",
          "name": "",
          "type": "string"
        }
      ],
      "stateMutability": "view",
      "type": "function"
    },
    {
      "inputs": [
        {
          "internalType": "address",
          "name": "from",
          "type": "address"
        },
        {
          "internalType": "address",
          "name": "to",
          "type": "address"
        },
        {
          "internalType": "uint256",
          "name": "tokenId",
          "type": "uint256"
        }
      ],
      "name": "transferFrom",
      "outputs": [],
      "stateMutability": "nonpayable",
      "type": "function"
    },
    {
      "inputs": [
        {
          "internalType": "address",
          "name": "newOwner",
          "type": "address"
        }
      ],
      "name": "transferOwnership",
      "outputs": [],
      "stateMutability": "nonpayable",
      "type": "function"
    },
    {
      "inputs": [
        {
          "internalType": "address",
          "name": "_to",
          "type": "address"
        },
        {
          "internalType": "string",
          "name": "_uri",
          "type": "string"
        }
      ],
      "name": "safeMint",
      "outputs": [],
      "stateMutability": "payable",
      "type": "function"
    },
    {
      "inputs": [
        {
          "internalType": "uint256",
          "name": "tokenId",
          "type": "uint256"
        }
      ],
      "name": "tokenURI",
      "outputs": [
        {
          "internalType": "string",
          "name": "",
          "type": "string"
        }
      ],
      "stateMutability": "view",
      "type": "function"
    }
  ],
  "bytecode": "0x60806040523480156200001157600080fd5b50604051620024cb380380620024cb83398101604081905262000034916200023b565b8251839083906200004d906000906020850190620000e2565b50805162000063906001906020840190620000e2565b505050620000806200007a6200008c60201b60201c565b62000090565b60095550620002fe9050565b3390565b600780546001600160a01b038381166001600160a01b0319831681179093556040519116919082907f8be0079c531659141344cd1fd0a4f28419497f9722a3daafe3b4186f6b6457e090600090a35050565b828054620000f090620002ab565b90600052602060002090601f0160209004810192826200011457600085556200015f565b82601f106200012f57805160ff19168380011785556200015f565b828001600101855582156200015f579182015b828111156200015f57825182559160200191906001019062000142565b506200016d92915062000171565b5090565b5b808211156200016d576000815560010162000172565b600082601f83011262000199578081fd5b81516001600160401b0380821115620001b657620001b6620002e8565b604051601f8301601f19908116603f01168101908282118183101715620001e157620001e1620002e8565b81604052838152602092508683858801011115620001fd578485fd5b8491505b8382101562000220578582018301518183018401529082019062000201565b838211156200023157848385830101525b9695505050505050565b60008060006060848603121562000250578283fd5b83516001600160401b038082111562000267578485fd5b620002758783880162000188565b945060208601519150808211156200028b578384fd5b506200029a8682870162000188565b925050604084015190509250925092565b600181811c90821680620002c057607f821691505b60208210811415620002e257634e487b7160e01b600052602260045260246000fd5b50919050565b634e487b7160e01b600052604160045260246000fd5b6121bd806200030e6000396000f3fe6080604052600436106101295760003560e01c80638da5cb5b116100a5578063b88d4fde11610074578063d204c45e11610059578063d204c45e14610345578063e985e9c514610358578063f2fde38b146103ae57600080fd5b8063b88d4fde14610305578063c87b56dd1461032557600080fd5b80638da5cb5b1461028f57806395d89b41146102ba5780639af1d35a146102cf578063a22cb465146102e557600080fd5b806323b872dd116100fc5780636352211e116100e15780636352211e1461022c57806370a082311461024c578063715018a61461027a57600080fd5b806323b872dd146101ec57806342842e0e1461020c57600080fd5b806301ffc9a71461012e57806306fdde0314610163578063081812fc14610185578063095ea7b3146101ca575b600080fd5b34801561013a57600080fd5b5061014e610149366004611e9d565b6103ce565b60405190151581526020015b60405180910390f35b34801561016f57600080fd5b506101786104b3565b60405161015a9190611faf565b34801561019157600080fd5b506101a56101a0366004611ed5565b610545565b60405173ffffffffffffffffffffffffffffffffffffffff909116815260200161015a565b3480156101d657600080fd5b506101ea6101e5366004611e74565b610579565b005b3480156101f857600080fd5b506101ea610207366004611c8e565b61070b565b34801561021857600080fd5b506101ea610227366004611c8e565b6107ac565b34801561023857600080fd5b506101a5610247366004611ed5565b6107c7565b34801561025857600080fd5b5061026c610267366004611c42565b610853565b60405190815260200161015a565b34801561028657600080fd5b506101ea610921565b34801561029b57600080fd5b5060075473ffffffffffffffffffffffffffffffffffffffff166101a5565b3480156102c657600080fd5b50610178610935565b3480156102db57600080fd5b5061026c60095481565b3480156102f157600080fd5b506101ea610300366004611dbc565b610944565b34801561031157600080fd5b506101ea610320366004611cc9565b610953565b34801561033157600080fd5b50610178610340366004611ed5565b6109fb565b6101ea610353366004611df6565b610a0c565b34801561036457600080fd5b5061014e610373366004611c5c565b73ffffffffffffffffffffffffffffffffffffffff918216600090815260056020908152604080832093909416825291909152205460ff1690565b3480156103ba57600080fd5b506101ea6103c9366004611c42565b610b63565b60007fffffffff0000000000000000000000000000000000000000000000000000000082167f80ac58cd00000000000000000000000000000000000000000000000000000000148061046157507fffffffff0000000000000000000000000000000000000000000000000000000082167f5b5e139f00000000000000000000000000000000000000000000000000000000145b806104ad57507f01ffc9a7000000000000000000000000000000000000000000000000000000007fffffffff000000000000000000000000000000000000000000000000000000008316145b92915050565b6060600080546104c290612031565b80601f01602080910402602001604051908101604052809291908181526020018280546104ee90612031565b801561053b5780601f106105105761010080835404028352916020019161053b565b820191906000526020600020905b81548152906001019060200180831161051e57829003601f168201915b5050505050905090565b600061055082610c1a565b5060009081526004602052604090205473ffffffffffffffffffffffffffffffffffffffff1690565b6000610584826107c7565b90508073ffffffffffffffffffffffffffffffffffffffff168373ffffffffffffffffffffffffffffffffffffffff161415610647576040517f08c379a000000000000000000000000000000000000000000000000000000000815260206004820152602160248201527f4552433732313a20617070726f76616c20746f2063757272656e74206f776e6560448201527f720000000000000000000000000000000000000000000000000000000000000060648201526084015b60405180910390fd5b3373ffffffffffffffffffffffffffffffffffffffff8216148061067057506106708133610373565b6106fc576040517f08c379a000000000000000000000000000000000000000000000000000000000815260206004820152603e60248201527f4552433732313a20617070726f76652063616c6c6572206973206e6f7420746f60448201527f6b656e206f776e6572206e6f7220617070726f76656420666f7220616c6c0000606482015260840161063e565b6107068383610ca5565b505050565b6107153382610d45565b6107a1576040517f08c379a000000000000000000000000000000000000000000000000000000000815260206004820152602e60248201527f4552433732313a2063616c6c6572206973206e6f7420746f6b656e206f776e6560448201527f72206e6f7220617070726f766564000000000000000000000000000000000000606482015260840161063e565b610706838383610e05565b61070683838360405180602001604052806000815250610953565b60008181526002602052604081205473ffffffffffffffffffffffffffffffffffffffff16806104ad576040517f08c379a000000000000000000000000000000000000000000000000000000000815260206004820152601860248201527f4552433732313a20696e76616c696420746f6b656e2049440000000000000000604482015260640161063e565b600073ffffffffffffffffffffffffffffffffffffffff82166108f8576040517f08c379a000000000000000000000000000000000000000000000000000000000815260206004820152602960248201527f4552433732313a2061646472657373207a65726f206973206e6f74206120766160448201527f6c6964206f776e65720000000000000000000000000000000000000000000000606482015260840161063e565b5073ffffffffffffffffffffffffffffffffffffffff1660009081526003602052604090205490565b61092961106c565b61093360006110ed565b565b6060600180546104c290612031565b61094f338383611164565b5050565b61095d3383610d45565b6109e9576040517f08c379a000000000000000000000000000000000000000000000000000000000815260206004820152602e60248201527f4552433732313a2063616c6c6572206973206e6f7420746f6b656e206f776e6560448201527f72206e6f7220617070726f766564000000000000000000000000000000000000606482015260840161063e565b6109f584848484611292565b50505050565b6060610a0682611335565b50919050565b600954341015610a78576040517f08c379a000000000000000000000000000000000000000000000000000000000815260206004820152600e60248201527f6e6f7420656e6f75676820657468000000000000000000000000000000000000604482015260640161063e565b60075460095460405173ffffffffffffffffffffffffffffffffffffffff9092169181156108fc0291906000818181858888f19350505050158015610ac1573d6000803e3d6000fd5b506000610acd60085490565b9050610add600880546001019055565b610ae7848261143e565b610b278184848080601f01602080910402602001604051908101604052809392919081815260200183838082843760009201919091525061145892505050565b478015610b5c5760405133904780156108fc02916000818181858888f19350505050158015610b5a573d6000803e3d6000fd5b505b5050505050565b610b6b61106c565b73ffffffffffffffffffffffffffffffffffffffff8116610c0e576040517f08c379a000000000000000000000000000000000000000000000000000000000815260206004820152602660248201527f4f776e61626c653a206e6577206f776e657220697320746865207a65726f206160448201527f6464726573730000000000000000000000000000000000000000000000000000606482015260840161063e565b610c17816110ed565b50565b60008181526002602052604090205473ffffffffffffffffffffffffffffffffffffffff16610c17576040517f08c379a000000000000000000000000000000000000000000000000000000000815260206004820152601860248201527f4552433732313a20696e76616c696420746f6b656e2049440000000000000000604482015260640161063e565b600081815260046020526040902080547fffffffffffffffffffffffff00000000000000000000000000000000000000001673ffffffffffffffffffffffffffffffffffffffff84169081179091558190610cff826107c7565b73ffffffffffffffffffffffffffffffffffffffff167f8c5be1e5ebec7d5bd14f71427d1e84f3dd0314c0f7b2291e5b200ac8c7c3b92560405160405180910390a45050565b600080610d51836107c7565b90508073ffffffffffffffffffffffffffffffffffffffff168473ffffffffffffffffffffffffffffffffffffffff161480610dbf575073ffffffffffffffffffffffffffffffffffffffff80821660009081526005602090815260408083209388168352929052205460ff165b80610dfd57508373ffffffffffffffffffffffffffffffffffffffff16610de584610545565b73ffffffffffffffffffffffffffffffffffffffff16145b949350505050565b8273ffffffffffffffffffffffffffffffffffffffff16610e25826107c7565b73ffffffffffffffffffffffffffffffffffffffff1614610ec8576040517f08c379a000000000000000000000000000000000000000000000000000000000815260206004820152602560248201527f4552433732313a207472616e736665722066726f6d20696e636f72726563742060448201527f6f776e6572000000000000000000000000000000000000000000000000000000606482015260840161063e565b73ffffffffffffffffffffffffffffffffffffffff8216610f6a576040517f08c379a0000000000000000000000000000000000000000000000000000000008152602060048201526024808201527f4552433732313a207472616e7366657220746f20746865207a65726f2061646460448201527f7265737300000000000000000000000000000000000000000000000000000000606482015260840161063e565b610f75600082610ca5565b73ffffffffffffffffffffffffffffffffffffffff83166000908152600360205260408120805460019290610fab908490611fee565b909155505073ffffffffffffffffffffffffffffffffffffffff82166000908152600360205260408120805460019290610fe6908490611fc2565b909155505060008181526002602052604080822080547fffffffffffffffffffffffff00000000000000000000000000000000000000001673ffffffffffffffffffffffffffffffffffffffff86811691821790925591518493918716917fddf252ad1be2c89b69c2b068fc378daa952ba7f163c4a11628f55a4df523b3ef91a4505050565b60075473ffffffffffffffffffffffffffffffffffffffff163314610933576040517f08c379a000000000000000000000000000000000000000000000000000000000815260206004820181905260248201527f4f776e61626c653a2063616c6c6572206973206e6f7420746865206f776e6572604482015260640161063e565b6007805473ffffffffffffffffffffffffffffffffffffffff8381167fffffffffffffffffffffffff0000000000000000000000000000000000000000831681179093556040519116919082907f8be0079c531659141344cd1fd0a4f28419497f9722a3daafe3b4186f6b6457e090600090a35050565b8173ffffffffffffffffffffffffffffffffffffffff168373ffffffffffffffffffffffffffffffffffffffff1614156111fa576040517f08c379a000000000000000000000000000000000000000000000000000000000815260206004820152601960248201527f4552433732313a20617070726f766520746f2063616c6c657200000000000000604482015260640161063e565b73ffffffffffffffffffffffffffffffffffffffff83811660008181526005602090815260408083209487168084529482529182902080547fffffffffffffffffffffffffffffffffffffffffffffffffffffffffffffff001686151590811790915591519182527f17307eab39ab6107e8899845ad3d59bd9653f200f220920489ca2b5937696c31910160405180910390a3505050565b61129d848484610e05565b6112a984848484611528565b6109f5576040517f08c379a000000000000000000000000000000000000000000000000000000000815260206004820152603260248201527f4552433732313a207472616e7366657220746f206e6f6e20455243373231526560448201527f63656976657220696d706c656d656e7465720000000000000000000000000000606482015260840161063e565b606061134082610c1a565b6000828152600660205260408120805461135990612031565b80601f016020809104026020016040519081016040528092919081815260200182805461138590612031565b80156113d25780601f106113a7576101008083540402835291602001916113d2565b820191906000526020600020905b8154815290600101906020018083116113b557829003601f168201915b5050505050905060006113f060408051602081019091526000815290565b9050805160001415611403575092915050565b81511561143557808260405160200161141d929190611f37565b60405160208183030381529060405292505050919050565b610dfd84611727565b61094f82826040518060200160405280600081525061179b565b60008281526002602052604090205473ffffffffffffffffffffffffffffffffffffffff16611509576040517f08c379a000000000000000000000000000000000000000000000000000000000815260206004820152602e60248201527f45524337323155524953746f726167653a2055524920736574206f66206e6f6e60448201527f6578697374656e7420746f6b656e000000000000000000000000000000000000606482015260840161063e565b6000828152600660209081526040909120825161070692840190611b80565b600073ffffffffffffffffffffffffffffffffffffffff84163b1561171c576040517f150b7a0200000000000000000000000000000000000000000000000000000000815273ffffffffffffffffffffffffffffffffffffffff85169063150b7a029061159f903390899088908890600401611f66565b602060405180830381600087803b1580156115b957600080fd5b505af1925050508015611607575060408051601f3d9081017fffffffffffffffffffffffffffffffffffffffffffffffffffffffffffffffe016820190925261160491810190611eb9565b60015b6116d1573d808015611635576040519150601f19603f3d011682016040523d82523d6000602084013e61163a565b606091505b5080516116c9576040517f08c379a000000000000000000000000000000000000000000000000000000000815260206004820152603260248201527f4552433732313a207472616e7366657220746f206e6f6e20455243373231526560448201527f63656976657220696d706c656d656e7465720000000000000000000000000000606482015260840161063e565b805181602001fd5b7fffffffff00000000000000000000000000000000000000000000000000000000167f150b7a0200000000000000000000000000000000000000000000000000000000149050610dfd565b506001949350505050565b606061173282610c1a565b600061174960408051602081019091526000815290565b905060008151116117695760405180602001604052806000815250611794565b806117738461183e565b604051602001611784929190611f37565b6040516020818303038152906040525b9392505050565b6117a583836119be565b6117b26000848484611528565b610706576040517f08c379a000000000000000000000000000000000000000000000000000000000815260206004820152603260248201527f4552433732313a207472616e7366657220746f206e6f6e20455243373231526560448201527f63656976657220696d706c656d656e7465720000000000000000000000000000606482015260840161063e565b60608161187e57505060408051808201909152600181527f3000000000000000000000000000000000000000000000000000000000000000602082015290565b8160005b81156118a857806118928161207f565b91506118a19050600a83611fda565b9150611882565b60008167ffffffffffffffff8111156118ea577f4e487b7100000000000000000000000000000000000000000000000000000000600052604160045260246000fd5b6040519080825280601f01601f191660200182016040528015611914576020820181803683370190505b5090505b8415610dfd57611929600183611fee565b9150611936600a866120b8565b611941906030611fc2565b60f81b81838151811061197d577f4e487b7100000000000000000000000000000000000000000000000000000000600052603260045260246000fd5b60200101907effffffffffffffffffffffffffffffffffffffffffffffffffffffffffffff1916908160001a9053506119b7600a86611fda565b9450611918565b73ffffffffffffffffffffffffffffffffffffffff8216611a3b576040517f08c379a000000000000000000000000000000000000000000000000000000000815260206004820181905260248201527f4552433732313a206d696e7420746f20746865207a65726f2061646472657373604482015260640161063e565b60008181526002602052604090205473ffffffffffffffffffffffffffffffffffffffff1615611ac7576040517f08c379a000000000000000000000000000000000000000000000000000000000815260206004820152601c60248201527f4552433732313a20746f6b656e20616c7265616479206d696e74656400000000604482015260640161063e565b73ffffffffffffffffffffffffffffffffffffffff82166000908152600360205260408120805460019290611afd908490611fc2565b909155505060008181526002602052604080822080547fffffffffffffffffffffffff00000000000000000000000000000000000000001673ffffffffffffffffffffffffffffffffffffffff861690811790915590518392907fddf252ad1be2c89b69c2b068fc378daa952ba7f163c4a11628f55a4df523b3ef908290a45050565b828054611b8c90612031565b90600052602060002090601f016020900481019282611bae5760008555611bf4565b82601f10611bc757805160ff1916838001178555611bf4565b82800160010185558215611bf4579182015b82811115611bf4578251825591602001919060010190611bd9565b50611c00929150611c04565b5090565b5b80821115611c005760008155600101611c05565b803573ffffffffffffffffffffffffffffffffffffffff81168114611c3d57600080fd5b919050565b600060208284031215611c53578081fd5b61179482611c19565b60008060408385031215611c6e578081fd5b611c7783611c19565b9150611c8560208401611c19565b90509250929050565b600080600060608486031215611ca2578081fd5b611cab84611c19565b9250611cb960208501611c19565b9150604084013590509250925092565b60008060008060808587031215611cde578081fd5b611ce785611c19565b9350611cf560208601611c19565b925060408501359150606085013567ffffffffffffffff80821115611d18578283fd5b818701915087601f830112611d2b578283fd5b813581811115611d3d57611d3d61212a565b604051601f82017fffffffffffffffffffffffffffffffffffffffffffffffffffffffffffffffe0908116603f01168101908382118183101715611d8357611d8361212a565b816040528281528a6020848701011115611d9b578586fd5b82602086016020830137918201602001949094529598949750929550505050565b60008060408385031215611dce578182fd5b611dd783611c19565b915060208301358015158114611deb578182fd5b809150509250929050565b600080600060408486031215611e0a578283fd5b611e1384611c19565b9250602084013567ffffffffffffffff80821115611e2f578384fd5b818601915086601f830112611e42578384fd5b813581811115611e50578485fd5b876020828501011115611e61578485fd5b6020830194508093505050509250925092565b60008060408385031215611e86578182fd5b611e8f83611c19565b946020939093013593505050565b600060208284031215611eae578081fd5b813561179481612159565b600060208284031215611eca578081fd5b815161179481612159565b600060208284031215611ee6578081fd5b5035919050565b60008151808452611f05816020860160208601612005565b601f017fffffffffffffffffffffffffffffffffffffffffffffffffffffffffffffffe0169290920160200192915050565b60008351611f49818460208801612005565b835190830190611f5d818360208801612005565b01949350505050565b600073ffffffffffffffffffffffffffffffffffffffff808716835280861660208401525083604083015260806060830152611fa56080830184611eed565b9695505050505050565b6020815260006117946020830184611eed565b60008219821115611fd557611fd56120cc565b500190565b600082611fe957611fe96120fb565b500490565b600082821015612000576120006120cc565b500390565b60005b83811015612020578181015183820152602001612008565b838111156109f55750506000910152565b600181811c9082168061204557607f821691505b60208210811415610a06577f4e487b7100000000000000000000000000000000000000000000000000000000600052602260045260246000fd5b60007fffffffffffffffffffffffffffffffffffffffffffffffffffffffffffffffff8214156120b1576120b16120cc565b5060010190565b6000826120c7576120c76120fb565b500690565b7f4e487b7100000000000000000000000000000000000000000000000000000000600052601160045260246000fd5b7f4e487b7100000000000000000000000000000000000000000000000000000000600052601260045260246000fd5b7f4e487b7100000000000000000000000000000000000000000000000000000000600052604160045260246000fd5b7fffffffff0000000000000000000000000000000000000000000000000000000081168114610c1757600080fdfea2646970667358221220ff6d376aa37f7be3ae90782ac12913c97c65cfd801e3addf23e56c16dd1666d264736f6c63430008040033",
  "immutableReferences": {},
  "source": "// SPDX-License-Identifier: MIT\r\npragma solidity 0.8.4;\r\n\r\nimport '@openzeppelin/contracts/token/ERC721/ERC721.sol';\r\nimport '@openzeppelin/contracts/token/ERC721/extensions/ERC721URIStorage.sol';\r\nimport '@openzeppelin/contracts/access/Ownable.sol';\r\nimport '@openzeppelin/contracts/utils/Counters.sol';\r\n\r\ncontract BlogNFT is ERC721, ERC721URIStorage, Ownable {\r\n    using Counters for Counters.Counter;\r\n\r\n    Counters.Counter private _tokenIdCounter;\r\n    uint256 public fees;\r\n\r\n    constructor(string memory _name, string memory _symbol, uint _fee) ERC721(_name, _symbol){\r\n        fees = _fee;\r\n    }\r\n\r\n    function safeMint(address _to, string calldata _uri) public payable {\r\n        require(msg.value >= fees, \"not enough eth\");\r\n        payable(owner()).transfer(fees);\r\n\r\n        uint tokenId = _tokenIdCounter.current();\r\n        _tokenIdCounter.increment();\r\n        _safeMint(_to, tokenId);\r\n        _setTokenURI(tokenId, _uri);\r\n\r\n        uint contractBal = address(this).balance;\r\n\r\n        if(contractBal > 0) {\r\n            payable(msg.sender).transfer(address(this).balance);\r\n        }\r\n    }\r\n\r\n    function _burn(uint tokenId) internal override(ERC721, ERC721URIStorage){\r\n        super._burn(tokenId);\r\n    }\r\n\r\n    function tokenURI(uint tokenId) public view override(ERC721, ERC721URIStorage) returns(string memory){\r\n        super.tokenURI(tokenId);\r\n    }\r\n\r\n}",
  "sourcePath": "C:\\Users\\kiera\\Desktop\\Keyrxng\\dex-blog\\dlt\\contracts\\BlogNFT.sol",
  "compiler": {
    "name": "solc",
    "version": "0.8.4+commit.c7e474f2.Emscripten.clang"
  },
  "schemaVersion": "3.4.7",
  "updatedAt": "2022-07-12T13:05:19.400Z",
  "devdoc": {
    "kind": "dev",
    "methods": {
      "approve(address,uint256)": {
        "details": "See {IERC721-approve}."
      },
      "balanceOf(address)": {
        "details": "See {IERC721-balanceOf}."
      },
      "getApproved(uint256)": {
        "details": "See {IERC721-getApproved}."
      },
      "isApprovedForAll(address,address)": {
        "details": "See {IERC721-isApprovedForAll}."
      },
      "name()": {
        "details": "See {IERC721Metadata-name}."
      },
      "owner()": {
        "details": "Returns the address of the current owner."
      },
      "ownerOf(uint256)": {
        "details": "See {IERC721-ownerOf}."
      },
      "renounceOwnership()": {
        "details": "Leaves the contract without owner. It will not be possible to call `onlyOwner` functions anymore. Can only be called by the current owner. NOTE: Renouncing ownership will leave the contract without an owner, thereby removing any functionality that is only available to the owner."
      },
      "safeTransferFrom(address,address,uint256)": {
        "details": "See {IERC721-safeTransferFrom}."
      },
      "safeTransferFrom(address,address,uint256,bytes)": {
        "details": "See {IERC721-safeTransferFrom}."
      },
      "setApprovalForAll(address,bool)": {
        "details": "See {IERC721-setApprovalForAll}."
      },
      "supportsInterface(bytes4)": {
        "details": "See {IERC165-supportsInterface}."
      },
      "symbol()": {
        "details": "See {IERC721Metadata-symbol}."
      },
      "transferFrom(address,address,uint256)": {
        "details": "See {IERC721-transferFrom}."
      },
      "transferOwnership(address)": {
        "details": "Transfers ownership of the contract to a new account (`newOwner`). Can only be called by the current owner."
      }
    },
    "version": 1
  },
  "userdoc": {
    "kind": "user",
    "methods": {},
    "version": 1
  }
}