{
  "_format": "hh-sol-artifact-1",
  "contractName": "BlogGen",
  "sourceName": "contracts/BlogGen.sol",
  "abi": [
    {
      "inputs": [],
      "stateMutability": "nonpayable",
      "type": "constructor"
    },
    {
      "inputs": [
        {
          "internalType": "uint256",
          "name": "id",
          "type": "uint256"
        }
      ],
      "name": "BlogExistence",
      "type": "error"
    },
    {
      "inputs": [],
      "name": "PostPurchaseError",
      "type": "error"
    },
    {
      "inputs": [
        {
          "internalType": "uint256",
          "name": "entered",
          "type": "uint256"
        },
        {
          "internalType": "uint256",
          "name": "required",
          "type": "uint256"
        }
      ],
      "name": "ValueError",
      "type": "error"
    },
    {
      "anonymous": false,
      "inputs": [
        {
          "indexed": true,
          "internalType": "address",
          "name": "account",
          "type": "address"
        },
        {
          "indexed": true,
          "internalType": "address",
          "name": "operator",
          "type": "address"
        },
        {
          "indexed": false,
          "internalType": "bool",
          "name": "approved",
          "type": "bool"
        }
      ],
      "name": "ApprovalForAll",
      "type": "event"
    },
    {
      "anonymous": false,
      "inputs": [
        {
          "indexed": true,
          "internalType": "address",
          "name": "previousOwner",
          "type": "address"
        },
        {
          "indexed": true,
          "internalType": "address",
          "name": "newOwner",
          "type": "address"
        }
      ],
      "name": "OwnershipTransferred",
      "type": "event"
    },
    {
      "anonymous": false,
      "inputs": [
        {
          "indexed": true,
          "internalType": "address",
          "name": "operator",
          "type": "address"
        },
        {
          "indexed": true,
          "internalType": "address",
          "name": "from",
          "type": "address"
        },
        {
          "indexed": true,
          "internalType": "address",
          "name": "to",
          "type": "address"
        },
        {
          "indexed": false,
          "internalType": "uint256[]",
          "name": "ids",
          "type": "uint256[]"
        },
        {
          "indexed": false,
          "internalType": "uint256[]",
          "name": "values",
          "type": "uint256[]"
        }
      ],
      "name": "TransferBatch",
      "type": "event"
    },
    {
      "anonymous": false,
      "inputs": [
        {
          "indexed": true,
          "internalType": "address",
          "name": "operator",
          "type": "address"
        },
        {
          "indexed": true,
          "internalType": "address",
          "name": "from",
          "type": "address"
        },
        {
          "indexed": true,
          "internalType": "address",
          "name": "to",
          "type": "address"
        },
        {
          "indexed": false,
          "internalType": "uint256",
          "name": "id",
          "type": "uint256"
        },
        {
          "indexed": false,
          "internalType": "uint256",
          "name": "value",
          "type": "uint256"
        }
      ],
      "name": "TransferSingle",
      "type": "event"
    },
    {
      "anonymous": false,
      "inputs": [
        {
          "indexed": false,
          "internalType": "string",
          "name": "value",
          "type": "string"
        },
        {
          "indexed": true,
          "internalType": "uint256",
          "name": "id",
          "type": "uint256"
        }
      ],
      "name": "URI",
      "type": "event"
    },
    {
      "stateMutability": "payable",
      "type": "fallback"
    },
    {
      "inputs": [
        {
          "internalType": "address",
          "name": "account",
          "type": "address"
        },
        {
          "internalType": "uint256",
          "name": "id",
          "type": "uint256"
        }
      ],
      "name": "balanceOf",
      "outputs": [
        {
          "internalType": "uint256",
          "name": "",
          "type": "uint256"
        }
      ],
      "stateMutability": "view",
      "type": "function"
    },
    {
      "inputs": [
        {
          "internalType": "address[]",
          "name": "accounts",
          "type": "address[]"
        },
        {
          "internalType": "uint256[]",
          "name": "ids",
          "type": "uint256[]"
        }
      ],
      "name": "balanceOfBatch",
      "outputs": [
        {
          "internalType": "uint256[]",
          "name": "",
          "type": "uint256[]"
        }
      ],
      "stateMutability": "view",
      "type": "function"
    },
    {
      "inputs": [
        {
          "internalType": "uint256",
          "name": "_cost",
          "type": "uint256"
        },
        {
          "internalType": "uint256",
          "name": "_postId",
          "type": "uint256"
        },
        {
          "internalType": "address",
          "name": "_paymentToken",
          "type": "address"
        }
      ],
      "name": "buyPost",
      "outputs": [
        {
          "internalType": "bool",
          "name": "",
          "type": "bool"
        }
      ],
      "stateMutability": "nonpayable",
      "type": "function"
    },
    {
      "inputs": [
        {
          "internalType": "uint256",
          "name": "_cost",
          "type": "uint256"
        },
        {
          "internalType": "uint256",
          "name": "_postId",
          "type": "uint256"
        }
      ],
      "name": "buyPostEth",
      "outputs": [
        {
          "internalType": "bool",
          "name": "",
          "type": "bool"
        }
      ],
      "stateMutability": "payable",
      "type": "function"
    },
    {
      "inputs": [],
      "name": "creatorEthWithdraw",
      "outputs": [
        {
          "internalType": "bool",
          "name": "",
          "type": "bool"
        }
      ],
      "stateMutability": "nonpayable",
      "type": "function"
    },
    {
      "inputs": [
        {
          "internalType": "address[]",
          "name": "_token",
          "type": "address[]"
        }
      ],
      "name": "creatorWithdraw",
      "outputs": [
        {
          "internalType": "bool",
          "name": "",
          "type": "bool"
        }
      ],
      "stateMutability": "nonpayable",
      "type": "function"
    },
    {
      "inputs": [
        {
          "internalType": "address",
          "name": "_user",
          "type": "address"
        }
      ],
      "name": "getCreatorPostLength",
      "outputs": [
        {
          "internalType": "uint256",
          "name": "",
          "type": "uint256"
        }
      ],
      "stateMutability": "view",
      "type": "function"
    },
    {
      "inputs": [],
      "name": "getMostLiked",
      "outputs": [
        {
          "components": [
            {
              "internalType": "string",
              "name": "title",
              "type": "string"
            },
            {
              "internalType": "string",
              "name": "desc",
              "type": "string"
            },
            {
              "internalType": "string",
              "name": "creator",
              "type": "string"
            },
            {
              "internalType": "uint256",
              "name": "price",
              "type": "uint256"
            },
            {
              "internalType": "uint256",
              "name": "likes",
              "type": "uint256"
            },
            {
              "internalType": "address",
              "name": "wallet",
              "type": "address"
            }
          ],
          "internalType": "struct BlogGen.Post",
          "name": "",
          "type": "tuple"
        }
      ],
      "stateMutability": "view",
      "type": "function"
    },
    {
      "inputs": [
        {
          "internalType": "uint256",
          "name": "_index",
          "type": "uint256"
        }
      ],
      "name": "getPostById",
      "outputs": [
        {
          "components": [
            {
              "internalType": "string",
              "name": "title",
              "type": "string"
            },
            {
              "internalType": "string",
              "name": "desc",
              "type": "string"
            },
            {
              "internalType": "string",
              "name": "creator",
              "type": "string"
            },
            {
              "internalType": "uint256",
              "name": "price",
              "type": "uint256"
            },
            {
              "internalType": "uint256",
              "name": "likes",
              "type": "uint256"
            },
            {
              "internalType": "address",
              "name": "wallet",
              "type": "address"
            }
          ],
          "internalType": "struct BlogGen.Post",
          "name": "",
          "type": "tuple"
        }
      ],
      "stateMutability": "view",
      "type": "function"
    },
    {
      "inputs": [],
      "name": "getPosts",
      "outputs": [
        {
          "components": [
            {
              "internalType": "string",
              "name": "title",
              "type": "string"
            },
            {
              "internalType": "string",
              "name": "desc",
              "type": "string"
            },
            {
              "internalType": "string",
              "name": "creator",
              "type": "string"
            },
            {
              "internalType": "uint256",
              "name": "price",
              "type": "uint256"
            },
            {
              "internalType": "uint256",
              "name": "likes",
              "type": "uint256"
            },
            {
              "internalType": "address",
              "name": "wallet",
              "type": "address"
            }
          ],
          "internalType": "struct BlogGen.Post[]",
          "name": "",
          "type": "tuple[]"
        }
      ],
      "stateMutability": "view",
      "type": "function"
    },
    {
      "inputs": [],
      "name": "getPostsLength",
      "outputs": [
        {
          "internalType": "uint256",
          "name": "",
          "type": "uint256"
        }
      ],
      "stateMutability": "view",
      "type": "function"
    },
    {
      "inputs": [
        {
          "internalType": "uint256",
          "name": "_id",
          "type": "uint256"
        }
      ],
      "name": "getSinglePost",
      "outputs": [
        {
          "components": [
            {
              "internalType": "string",
              "name": "title",
              "type": "string"
            },
            {
              "internalType": "string",
              "name": "desc",
              "type": "string"
            },
            {
              "internalType": "string",
              "name": "creator",
              "type": "string"
            },
            {
              "internalType": "uint256",
              "name": "price",
              "type": "uint256"
            },
            {
              "internalType": "uint256",
              "name": "likes",
              "type": "uint256"
            },
            {
              "internalType": "address",
              "name": "wallet",
              "type": "address"
            }
          ],
          "internalType": "struct BlogGen.Post",
          "name": "",
          "type": "tuple"
        }
      ],
      "stateMutability": "view",
      "type": "function"
    },
    {
      "inputs": [
        {
          "internalType": "address",
          "name": "_user",
          "type": "address"
        }
      ],
      "name": "getUserPosts",
      "outputs": [
        {
          "components": [
            {
              "internalType": "string",
              "name": "title",
              "type": "string"
            },
            {
              "internalType": "string",
              "name": "desc",
              "type": "string"
            },
            {
              "internalType": "string",
              "name": "creator",
              "type": "string"
            },
            {
              "internalType": "uint256",
              "name": "price",
              "type": "uint256"
            },
            {
              "internalType": "uint256",
              "name": "likes",
              "type": "uint256"
            },
            {
              "internalType": "address",
              "name": "wallet",
              "type": "address"
            }
          ],
          "internalType": "struct BlogGen.Post[]",
          "name": "",
          "type": "tuple[]"
        }
      ],
      "stateMutability": "view",
      "type": "function"
    },
    {
      "inputs": [
        {
          "internalType": "address",
          "name": "account",
          "type": "address"
        },
        {
          "internalType": "address",
          "name": "operator",
          "type": "address"
        }
      ],
      "name": "isApprovedForAll",
      "outputs": [
        {
          "internalType": "bool",
          "name": "",
          "type": "bool"
        }
      ],
      "stateMutability": "view",
      "type": "function"
    },
    {
      "inputs": [
        {
          "internalType": "uint256",
          "name": "_postId",
          "type": "uint256"
        }
      ],
      "name": "likePost",
      "outputs": [
        {
          "internalType": "bool",
          "name": "",
          "type": "bool"
        }
      ],
      "stateMutability": "nonpayable",
      "type": "function"
    },
    {
      "inputs": [
        {
          "internalType": "address",
          "name": "to",
          "type": "address"
        },
        {
          "internalType": "uint256",
          "name": "tokenId",
          "type": "uint256"
        },
        {
          "internalType": "uint256",
          "name": "_amount",
          "type": "uint256"
        },
        {
          "internalType": "bytes",
          "name": "_data",
          "type": "bytes"
        }
      ],
      "name": "mint",
      "outputs": [],
      "stateMutability": "nonpayable",
      "type": "function"
    },
    {
      "inputs": [
        {
          "internalType": "string",
          "name": "_title",
          "type": "string"
        },
        {
          "internalType": "string",
          "name": "_desc",
          "type": "string"
        },
        {
          "internalType": "string",
          "name": "_creator",
          "type": "string"
        },
        {
          "internalType": "uint256",
          "name": "_price",
          "type": "uint256"
        },
        {
          "internalType": "address",
          "name": "_wallet",
          "type": "address"
        }
      ],
      "name": "newPost",
      "outputs": [
        {
          "internalType": "bool",
          "name": "",
          "type": "bool"
        }
      ],
      "stateMutability": "nonpayable",
      "type": "function"
    },
    {
      "inputs": [],
      "name": "owner",
      "outputs": [
        {
          "internalType": "address",
          "name": "",
          "type": "address"
        }
      ],
      "stateMutability": "view",
      "type": "function"
    },
    {
      "inputs": [
        {
          "internalType": "uint256",
          "name": "",
          "type": "uint256"
        }
      ],
      "name": "posts",
      "outputs": [
        {
          "internalType": "string",
          "name": "title",
          "type": "string"
        },
        {
          "internalType": "string",
          "name": "desc",
          "type": "string"
        },
        {
          "internalType": "string",
          "name": "creator",
          "type": "string"
        },
        {
          "internalType": "uint256",
          "name": "price",
          "type": "uint256"
        },
        {
          "internalType": "uint256",
          "name": "likes",
          "type": "uint256"
        },
        {
          "internalType": "address",
          "name": "wallet",
          "type": "address"
        }
      ],
      "stateMutability": "view",
      "type": "function"
    },
    {
      "inputs": [],
      "name": "renounceOwnership",
      "outputs": [],
      "stateMutability": "nonpayable",
      "type": "function"
    },
    {
      "inputs": [
        {
          "internalType": "address",
          "name": "from",
          "type": "address"
        },
        {
          "internalType": "address",
          "name": "to",
          "type": "address"
        },
        {
          "internalType": "uint256[]",
          "name": "ids",
          "type": "uint256[]"
        },
        {
          "internalType": "uint256[]",
          "name": "amounts",
          "type": "uint256[]"
        },
        {
          "internalType": "bytes",
          "name": "data",
          "type": "bytes"
        }
      ],
      "name": "safeBatchTransferFrom",
      "outputs": [],
      "stateMutability": "nonpayable",
      "type": "function"
    },
    {
      "inputs": [
        {
          "internalType": "address",
          "name": "from",
          "type": "address"
        },
        {
          "internalType": "address",
          "name": "to",
          "type": "address"
        },
        {
          "internalType": "uint256",
          "name": "id",
          "type": "uint256"
        },
        {
          "internalType": "uint256",
          "name": "amount",
          "type": "uint256"
        },
        {
          "internalType": "bytes",
          "name": "data",
          "type": "bytes"
        }
      ],
      "name": "safeTransferFrom",
      "outputs": [],
      "stateMutability": "nonpayable",
      "type": "function"
    },
    {
      "inputs": [
        {
          "internalType": "address",
          "name": "operator",
          "type": "address"
        },
        {
          "internalType": "bool",
          "name": "approved",
          "type": "bool"
        }
      ],
      "name": "setApprovalForAll",
      "outputs": [],
      "stateMutability": "nonpayable",
      "type": "function"
    },
    {
      "inputs": [
        {
          "internalType": "bytes4",
          "name": "interfaceId",
          "type": "bytes4"
        }
      ],
      "name": "supportsInterface",
      "outputs": [
        {
          "internalType": "bool",
          "name": "",
          "type": "bool"
        }
      ],
      "stateMutability": "view",
      "type": "function"
    },
    {
      "inputs": [
        {
          "internalType": "uint256",
          "name": "_tip",
          "type": "uint256"
        },
        {
          "internalType": "address",
          "name": "_paymentToken",
          "type": "address"
        },
        {
          "internalType": "uint256",
          "name": "_postId",
          "type": "uint256"
        }
      ],
      "name": "tipPoster",
      "outputs": [
        {
          "internalType": "bool",
          "name": "",
          "type": "bool"
        }
      ],
      "stateMutability": "nonpayable",
      "type": "function"
    },
    {
      "inputs": [
        {
          "internalType": "uint256",
          "name": "_tip",
          "type": "uint256"
        },
        {
          "internalType": "uint256",
          "name": "_postId",
          "type": "uint256"
        }
      ],
      "name": "tipPosterEth",
      "outputs": [
        {
          "internalType": "bool",
          "name": "",
          "type": "bool"
        }
      ],
      "stateMutability": "payable",
      "type": "function"
    },
    {
      "inputs": [
        {
          "internalType": "address",
          "name": "newOwner",
          "type": "address"
        }
      ],
      "name": "transferOwnership",
      "outputs": [],
      "stateMutability": "nonpayable",
      "type": "function"
    },
    {
      "inputs": [
        {
          "internalType": "uint256",
          "name": "_id",
          "type": "uint256"
        }
      ],
      "name": "updatePosts",
      "outputs": [
        {
          "internalType": "bool",
          "name": "",
          "type": "bool"
        }
      ],
      "stateMutability": "nonpayable",
      "type": "function"
    },
    {
      "inputs": [
        {
          "internalType": "uint256",
          "name": "",
          "type": "uint256"
        }
      ],
      "name": "uri",
      "outputs": [
        {
          "internalType": "string",
          "name": "",
          "type": "string"
        }
      ],
      "stateMutability": "view",
      "type": "function"
    },
    {
      "stateMutability": "payable",
      "type": "receive"
    }
  ],
  "bytecode": "0x60806040523480156200001157600080fd5b506040518060600160405280602d81526020016200723e602d91396200003d816200034060201b60201c565b506200005e620000526200035c60201b60201c565b6200036460201b60201c565b620001146040518060400160405280601381526020017f446973706c617920506c616365686f6c646572000000000000000000000000008152506040518060400160405280600f81526020017f466f7220554920707572706f73657300000000000000000000000000000000008152506040518060400160405280600681526020017f4d7973656c660000000000000000000000000000000000000000000000000000815250610539336200042a60201b60201c565b50620001cb6040518060400160405280600d81526020017f446973706c617920506c616365000000000000000000000000000000000000008152506040518060400160405280600f81526020017f466f7220554920707572706f73657300000000000000000000000000000000008152506040518060400160405280600681526020017f4d7973656c660000000000000000000000000000000000000000000000000000815250610539336200042a60201b60201c565b50620002826040518060400160405280600881526020017f446973706c6179200000000000000000000000000000000000000000000000008152506040518060400160405280600f81526020017f466f7220554920707572706f73657300000000000000000000000000000000008152506040518060400160405280600681526020017f4d7973656c660000000000000000000000000000000000000000000000000000815250610539336200042a60201b60201c565b50620003396040518060400160405280600b81526020017f506c616365686f6c6465720000000000000000000000000000000000000000008152506040518060400160405280600f81526020017f466f7220554920707572706f73657300000000000000000000000000000000008152506040518060400160405280600681526020017f4d7973656c660000000000000000000000000000000000000000000000000000815250610539336200042a60201b60201c565b50620012f5565b80600290805190602001906200035892919062000baa565b5050565b600033905090565b6000600360009054906101000a900473ffffffffffffffffffffffffffffffffffffffff16905081600360006101000a81548173ffffffffffffffffffffffffffffffffffffffff021916908373ffffffffffffffffffffffffffffffffffffffff1602179055508173ffffffffffffffffffffffffffffffffffffffff168173ffffffffffffffffffffffffffffffffffffffff167f8be0079c531659141344cd1fd0a4f28419497f9722a3daafe3b4186f6b6457e060405160405180910390a35050565b6000806040518060c00160405280888152602001878152602001868152602001858152602001600081526020018473ffffffffffffffffffffffffffffffffffffffff16815250905060048190806001815401808255809150506001900390600052602060002090600602016000909190919091506000820151816000019080519060200190620004bd92919062000baa565b506020820151816001019080519060200190620004dc92919062000baa565b506040820151816002019080519060200190620004fb92919062000baa565b50606082015181600301556080820151816004015560a08201518160050160006101000a81548173ffffffffffffffffffffffffffffffffffffffff021916908373ffffffffffffffffffffffffffffffffffffffff160217905550505060006004805490509050620005878482600160405180602001604052806000815250620006a260201b60201c565b81600660008673ffffffffffffffffffffffffffffffffffffffff1673ffffffffffffffffffffffffffffffffffffffff16815260200190815260200160002060008381526020019081526020016000206000820151816000019080519060200190620005f692919062000baa565b5060208201518160010190805190602001906200061592919062000baa565b5060408201518160020190805190602001906200063492919062000baa565b50606082015181600301556080820151816004015560a08201518160050160006101000a81548173ffffffffffffffffffffffffffffffffffffffff021916908373ffffffffffffffffffffffffffffffffffffffff16021790555090505060019250505095945050505050565b620006b684848484620006bc60201b60201c565b50505050565b600073ffffffffffffffffffffffffffffffffffffffff168473ffffffffffffffffffffffffffffffffffffffff1614156200072f576040517f08c379a0000000000000000000000000000000000000000000000000000000008152600401620007269062000e82565b60405180910390fd5b6000620007416200035c60201b60201c565b905060006200075685620008a460201b60201c565b905060006200076b85620008a460201b60201c565b905062000784836000898585896200096d60201b60201c565b8460008088815260200190815260200160002060008973ffffffffffffffffffffffffffffffffffffffff1673ffffffffffffffffffffffffffffffffffffffff1681526020019081526020016000206000828254620007e5919062000f13565b925050819055508673ffffffffffffffffffffffffffffffffffffffff16600073ffffffffffffffffffffffffffffffffffffffff168473ffffffffffffffffffffffffffffffffffffffff167fc3d58168c5ae7397731d063d5bbf3d657854427343f4c083240f7aacaa2d0f6289896040516200086592919062000ea4565b60405180910390a462000884836000898585896200097560201b60201c565b6200089b836000898989896200097d60201b60201c565b50505050505050565b60606000600167ffffffffffffffff811115620008ea577f4e487b7100000000000000000000000000000000000000000000000000000000600052604160045260246000fd5b604051908082528060200260200182016040528015620009195781602001602082028036833780820191505090505b509050828160008151811062000958577f4e487b7100000000000000000000000000000000000000000000000000000000600052603260045260246000fd5b60200260200101818152505080915050919050565b505050505050565b505050505050565b620009a98473ffffffffffffffffffffffffffffffffffffffff1662000b8760201b620033d31760201c565b1562000b7f578373ffffffffffffffffffffffffffffffffffffffff1663f23a6e6187878686866040518663ffffffff1660e01b8152600401620009f295949392919062000db6565b602060405180830381600087803b15801562000a0d57600080fd5b505af192505050801562000a4157506040513d601f19601f8201168201806040525081019062000a3e919062000c71565b60015b62000af35762000a5062001109565b806308c379a0141562000ab4575062000a6862001239565b8062000a75575062000ab6565b806040517f08c379a000000000000000000000000000000000000000000000000000000000815260040162000aab919062000e1a565b60405180910390fd5b505b6040517f08c379a000000000000000000000000000000000000000000000000000000000815260040162000aea9062000e3e565b60405180910390fd5b63f23a6e6160e01b7bffffffffffffffffffffffffffffffffffffffffffffffffffffffff1916817bffffffffffffffffffffffffffffffffffffffffffffffffffffffff19161462000b7d576040517f08c379a000000000000000000000000000000000000000000000000000000000815260040162000b749062000e60565b60405180910390fd5b505b505050505050565b6000808273ffffffffffffffffffffffffffffffffffffffff163b119050919050565b82805462000bb89062001010565b90600052602060002090601f01602090048101928262000bdc576000855562000c28565b82601f1062000bf757805160ff191683800117855562000c28565b8280016001018555821562000c28579182015b8281111562000c2757825182559160200191906001019062000c0a565b5b50905062000c37919062000c3b565b5090565b5b8082111562000c5657600081600090555060010162000c3c565b5090565b60008151905062000c6b81620012db565b92915050565b60006020828403121562000c8457600080fd5b600062000c948482850162000c5a565b91505092915050565b62000ca88162000f70565b82525050565b600062000cbb8262000edb565b62000cc7818562000ef1565b935062000cd981856020860162000fda565b62000ce4816200112e565b840191505092915050565b600062000cfc8262000ee6565b62000d08818562000f02565b935062000d1a81856020860162000fda565b62000d25816200112e565b840191505092915050565b600062000d3f60348362000f02565b915062000d4c826200114c565b604082019050919050565b600062000d6660288362000f02565b915062000d73826200119b565b604082019050919050565b600062000d8d60218362000f02565b915062000d9a82620011ea565b604082019050919050565b62000db08162000fd0565b82525050565b600060a08201905062000dcd600083018862000c9d565b62000ddc602083018762000c9d565b62000deb604083018662000da5565b62000dfa606083018562000da5565b818103608083015262000e0e818462000cae565b90509695505050505050565b6000602082019050818103600083015262000e36818462000cef565b905092915050565b6000602082019050818103600083015262000e598162000d30565b9050919050565b6000602082019050818103600083015262000e7b8162000d57565b9050919050565b6000602082019050818103600083015262000e9d8162000d7e565b9050919050565b600060408201905062000ebb600083018562000da5565b62000eca602083018462000da5565b9392505050565b6000604051905090565b600081519050919050565b600081519050919050565b600082825260208201905092915050565b600082825260208201905092915050565b600062000f208262000fd0565b915062000f2d8362000fd0565b9250827fffffffffffffffffffffffffffffffffffffffffffffffffffffffffffffffff0382111562000f655762000f646200107c565b5b828201905092915050565b600062000f7d8262000fb0565b9050919050565b60007fffffffff0000000000000000000000000000000000000000000000000000000082169050919050565b600073ffffffffffffffffffffffffffffffffffffffff82169050919050565b6000819050919050565b60005b8381101562000ffa57808201518184015260208101905062000fdd565b838111156200100a576000848401525b50505050565b600060028204905060018216806200102957607f821691505b6020821081141562001040576200103f620010ab565b5b50919050565b62001051826200112e565b810181811067ffffffffffffffff82111715620010735762001072620010da565b5b80604052505050565b7f4e487b7100000000000000000000000000000000000000000000000000000000600052601160045260246000fd5b7f4e487b7100000000000000000000000000000000000000000000000000000000600052602260045260246000fd5b7f4e487b7100000000000000000000000000000000000000000000000000000000600052604160045260246000fd5b600060033d11156200112b5760046000803e620011286000516200113f565b90505b90565b6000601f19601f8301169050919050565b60008160e01c9050919050565b7f455243313135353a207472616e7366657220746f206e6f6e204552433131353560008201527f526563656976657220696d706c656d656e746572000000000000000000000000602082015250565b7f455243313135353a204552433131353552656365697665722072656a6563746560008201527f6420746f6b656e73000000000000000000000000000000000000000000000000602082015250565b7f455243313135353a206d696e7420746f20746865207a65726f2061646472657360008201527f7300000000000000000000000000000000000000000000000000000000000000602082015250565b600060443d10156200124b57620012d8565b6200125562000ed1565b60043d036004823e80513d602482011167ffffffffffffffff821117156200127f575050620012d8565b808201805167ffffffffffffffff8111156200129f5750505050620012d8565b80602083010160043d038501811115620012be575050505050620012d8565b620012cf8260200185018662001046565b82955050505050505b90565b620012e68162000f84565b8114620012f257600080fd5b50565b615f3980620013056000396000f3fe6080604052600436106101c55760003560e01c8063731133e9116100f7578063d80a422011610095578063f242432a11610064578063f242432a14610711578063f2fde38b1461073a578063fdfa0c9614610763578063ffc53be614610793576101cc565b8063d80a42201461062f578063de83f9e01461066c578063e289008e146106a9578063e985e9c5146106d4576101cc565b8063a00e0501116100d1578063a00e05011461054f578063a22cb4651461058c578063b86e6f09146105b5578063c10539b5146105f2576101cc565b8063731133e9146104be5780638da5cb5b146104e75780639a2194a914610512576101cc565b806341f3004a1161016457806364e958951161013e57806364e95895146103f05780636ca347841461042d578063715018a61461046a578063725009d314610481576101cc565b806341f3004a146103585780634793e594146103835780634e1273f4146103b3576101cc565b80630e89341c116101a05780630e89341c1461028a578063259e697a146102c75780632eb2c2d614610304578063318bc9531461032d576101cc565b8062fdd58e146101ce57806301ffc9a71461020b5780630b1e7f8314610248576101cc565b366101cc57005b005b3480156101da57600080fd5b506101f560048036038101906101f091906149a7565b6107be565b6040516102029190615620565b60405180910390f35b34801561021757600080fd5b50610232600480360381019061022d9190614b38565b610887565b60405161023f91906153cb565b60405180910390f35b34801561025457600080fd5b5061026f600480360381019061026a9190614c49565b610969565b60405161028196959493929190615408565b60405180910390f35b34801561029657600080fd5b506102b160048036038101906102ac9190614c49565b610b6d565b6040516102be91906153e6565b60405180910390f35b3480156102d357600080fd5b506102ee60048036038101906102e99190614b8a565b610c01565b6040516102fb91906153cb565b60405180910390f35b34801561031057600080fd5b5061032b6004803603810190610326919061481d565b610e65565b005b34801561033957600080fd5b50610342610f06565b60405161034f91906153cb565b60405180910390f35b34801561036457600080fd5b5061036d610ff2565b60405161037a9190615350565b60405180910390f35b61039d60048036038101906103989190614cc1565b611271565b6040516103aa91906153cb565b60405180910390f35b3480156103bf57600080fd5b506103da60048036038101906103d59190614aa3565b6114b3565b6040516103e79190615372565b60405180910390f35b3480156103fc57600080fd5b5061041760048036038101906104129190614c49565b611664565b60405161042491906155fe565b60405180910390f35b34801561043957600080fd5b50610454600480360381019061044f9190614cfd565b6118e6565b60405161046191906153cb565b60405180910390f35b34801561047657600080fd5b5061047f611c7a565b005b34801561048d57600080fd5b506104a860048036038101906104a39190614c49565b611c8e565b6040516104b591906153cb565b60405180910390f35b3480156104ca57600080fd5b506104e560048036038101906104e091906149e3565b611e99565b005b3480156104f357600080fd5b506104fc611eab565b6040516105099190615213565b60405180910390f35b34801561051e57600080fd5b50610539600480360381019061053491906147b8565b611ed5565b6040516105469190615350565b60405180910390f35b34801561055b57600080fd5b5061057660048036038101906105719190614c72565b612193565b60405161058391906153cb565b60405180910390f35b34801561059857600080fd5b506105b360048036038101906105ae919061496b565b6123bb565b005b3480156105c157600080fd5b506105dc60048036038101906105d79190614c49565b6123d1565b6040516105e991906155fe565b60405180910390f35b3480156105fe57600080fd5b50610619600480360381019061061491906147b8565b612659565b6040516106269190615620565b60405180910390f35b34801561063b57600080fd5b5061065660048036038101906106519190614c49565b61274b565b60405161066391906153cb565b60405180910390f35b34801561067857600080fd5b50610693600480360381019061068e9190614a5e565b612ad3565b6040516106a091906153cb565b60405180910390f35b3480156106b557600080fd5b506106be612e69565b6040516106cb9190615620565b60405180910390f35b3480156106e057600080fd5b506106fb60048036038101906106f691906147e1565b612e76565b60405161070891906153cb565b60405180910390f35b34801561071d57600080fd5b50610738600480360381019061073391906148dc565b612f0a565b005b34801561074657600080fd5b50610761600480360381019061075c91906147b8565b612fab565b005b61077d60048036038101906107789190614cc1565b61302f565b60405161078a91906153cb565b60405180910390f35b34801561079f57600080fd5b506107a8613104565b6040516107b591906155fe565b60405180910390f35b60008073ffffffffffffffffffffffffffffffffffffffff168373ffffffffffffffffffffffffffffffffffffffff16141561082f576040517f08c379a0000000000000000000000000000000000000000000000000000000008152600401610826906154fe565b60405180910390fd5b60008083815260200190815260200160002060008473ffffffffffffffffffffffffffffffffffffffff1673ffffffffffffffffffffffffffffffffffffffff16815260200190815260200160002054905092915050565b60007fd9b67a26000000000000000000000000000000000000000000000000000000007bffffffffffffffffffffffffffffffffffffffffffffffffffffffff1916827bffffffffffffffffffffffffffffffffffffffffffffffffffffffff1916148061095257507f0e89341c000000000000000000000000000000000000000000000000000000007bffffffffffffffffffffffffffffffffffffffffffffffffffffffff1916827bffffffffffffffffffffffffffffffffffffffffffffffffffffffff1916145b806109625750610961826133f6565b5b9050919050565b6004818154811061097957600080fd5b906000526020600020906006020160009150905080600001805461099c9061590a565b80601f01602080910402602001604051908101604052809291908181526020018280546109c89061590a565b8015610a155780601f106109ea57610100808354040283529160200191610a15565b820191906000526020600020905b8154815290600101906020018083116109f857829003601f168201915b505050505090806001018054610a2a9061590a565b80601f0160208091040260200160405190810160405280929190818152602001828054610a569061590a565b8015610aa35780601f10610a7857610100808354040283529160200191610aa3565b820191906000526020600020905b815481529060010190602001808311610a8657829003601f168201915b505050505090806002018054610ab89061590a565b80601f0160208091040260200160405190810160405280929190818152602001828054610ae49061590a565b8015610b315780601f10610b0657610100808354040283529160200191610b31565b820191906000526020600020905b815481529060010190602001808311610b1457829003601f168201915b5050505050908060030154908060040154908060050160009054906101000a900473ffffffffffffffffffffffffffffffffffffffff16905086565b606060028054610b7c9061590a565b80601f0160208091040260200160405190810160405280929190818152602001828054610ba89061590a565b8015610bf55780601f10610bca57610100808354040283529160200191610bf5565b820191906000526020600020905b815481529060010190602001808311610bd857829003601f168201915b50505050509050919050565b6000806040518060c00160405280888152602001878152602001868152602001858152602001600081526020018473ffffffffffffffffffffffffffffffffffffffff16815250905060048190806001815401808255809150506001900390600052602060002090600602016000909190919091506000820151816000019080519060200190610c92929190614378565b506020820151816001019080519060200190610caf929190614378565b506040820151816002019080519060200190610ccc929190614378565b50606082015181600301556080820151816004015560a08201518160050160006101000a81548173ffffffffffffffffffffffffffffffffffffffff021916908373ffffffffffffffffffffffffffffffffffffffff160217905550505060006004805490509050610d508482600160405180602001604052806000815250611e99565b81600660008673ffffffffffffffffffffffffffffffffffffffff1673ffffffffffffffffffffffffffffffffffffffff16815260200190815260200160002060008381526020019081526020016000206000820151816000019080519060200190610dbd929190614378565b506020820151816001019080519060200190610dda929190614378565b506040820151816002019080519060200190610df7929190614378565b50606082015181600301556080820151816004015560a08201518160050160006101000a81548173ffffffffffffffffffffffffffffffffffffffff021916908373ffffffffffffffffffffffffffffffffffffffff16021790555090505060019250505095945050505050565b610e6d613460565b73ffffffffffffffffffffffffffffffffffffffff168573ffffffffffffffffffffffffffffffffffffffff161480610eb35750610eb285610ead613460565b612e76565b5b610ef2576040517f08c379a0000000000000000000000000000000000000000000000000000000008152600401610ee99061549e565b60405180910390fd5b610eff8585858585613468565b5050505050565b600080600860003373ffffffffffffffffffffffffffffffffffffffff1673ffffffffffffffffffffffffffffffffffffffff16815260200190815260200160002054905060008111610f5857600080fd5b60003390506000600860008373ffffffffffffffffffffffffffffffffffffffff1673ffffffffffffffffffffffffffffffffffffffff168152602001908152602001600020819055508073ffffffffffffffffffffffffffffffffffffffff166108fc839081150290604051600060405180830381858888f19350505050158015610fe8573d6000803e3d6000fd5b5060019250505090565b60606004805480602002602001604051908101604052809291908181526020016000905b8282101561126857838290600052602060002090600602016040518060c00160405290816000820180546110499061590a565b80601f01602080910402602001604051908101604052809291908181526020018280546110759061590a565b80156110c25780601f10611097576101008083540402835291602001916110c2565b820191906000526020600020905b8154815290600101906020018083116110a557829003601f168201915b505050505081526020016001820180546110db9061590a565b80601f01602080910402602001604051908101604052809291908181526020018280546111079061590a565b80156111545780601f1061112957610100808354040283529160200191611154565b820191906000526020600020905b81548152906001019060200180831161113757829003601f168201915b5050505050815260200160028201805461116d9061590a565b80601f01602080910402602001604051908101604052809291908181526020018280546111999061590a565b80156111e65780601f106111bb576101008083540402835291602001916111e6565b820191906000526020600020905b8154815290600101906020018083116111c957829003601f168201915b5050505050815260200160038201548152602001600482015481526020016005820160009054906101000a900473ffffffffffffffffffffffffffffffffffffffff1673ffffffffffffffffffffffffffffffffffffffff1673ffffffffffffffffffffffffffffffffffffffff168152505081526020019060010190611016565b50505050905090565b60008234101561128057600080fd5b6000600480549050905060008184109050806112d357836040517f9b846d020000000000000000000000000000000000000000000000000000000081526004016112ca9190615620565b60405180910390fd5b60006112de856123d1565b9050806060015134101561132f573481606001516040517fe77e604400000000000000000000000000000000000000000000000000000000815260040161132692919061563b565b60405180910390fd5b34600860008360a0015173ffffffffffffffffffffffffffffffffffffffff1673ffffffffffffffffffffffffffffffffffffffff168152602001908152602001600020600082825461138291906157fe565b92505081905550600960003373ffffffffffffffffffffffffffffffffffffffff1673ffffffffffffffffffffffffffffffffffffffff168152602001908152602001600020819080600181540180825580915050600190039060005260206000209060060201600090919091909150600082015181600001908051906020019061140e929190614378565b50602082015181600101908051906020019061142b929190614378565b506040820151816002019080519060200190611448929190614378565b50606082015181600301556080820151816004015560a08201518160050160006101000a81548173ffffffffffffffffffffffffffffffffffffffff021916908373ffffffffffffffffffffffffffffffffffffffff16021790555050506001935050505092915050565b606081518351146114f9576040517f08c379a00000000000000000000000000000000000000000000000000000000081526004016114f09061559e565b60405180910390fd5b6000835167ffffffffffffffff81111561153c577f4e487b7100000000000000000000000000000000000000000000000000000000600052604160045260246000fd5b60405190808252806020026020018201604052801561156a5781602001602082028036833780820191505090505b50905060005b8451811015611659576116038582815181106115b5577f4e487b7100000000000000000000000000000000000000000000000000000000600052603260045260246000fd5b60200260200101518583815181106115f6577f4e487b7100000000000000000000000000000000000000000000000000000000600052603260045260246000fd5b60200260200101516107be565b82828151811061163c577f4e487b7100000000000000000000000000000000000000000000000000000000600052603260045260246000fd5b602002602001018181525050806116529061596d565b9050611570565b508091505092915050565b61166c6143fe565b600482815481106116a6577f4e487b7100000000000000000000000000000000000000000000000000000000600052603260045260246000fd5b90600052602060002090600602016040518060c00160405290816000820180546116cf9061590a565b80601f01602080910402602001604051908101604052809291908181526020018280546116fb9061590a565b80156117485780601f1061171d57610100808354040283529160200191611748565b820191906000526020600020905b81548152906001019060200180831161172b57829003601f168201915b505050505081526020016001820180546117619061590a565b80601f016020809104026020016040519081016040528092919081815260200182805461178d9061590a565b80156117da5780601f106117af576101008083540402835291602001916117da565b820191906000526020600020905b8154815290600101906020018083116117bd57829003601f168201915b505050505081526020016002820180546117f39061590a565b80601f016020809104026020016040519081016040528092919081815260200182805461181f9061590a565b801561186c5780601f106118415761010080835404028352916020019161186c565b820191906000526020600020905b81548152906001019060200180831161184f57829003601f168201915b5050505050815260200160038201548152602001600482015481526020016005820160009054906101000a900473ffffffffffffffffffffffffffffffffffffffff1673ffffffffffffffffffffffffffffffffffffffff1673ffffffffffffffffffffffffffffffffffffffff16815250509050919050565b6000806004805490509050600081851090508061193a57846040517f9b846d020000000000000000000000000000000000000000000000000000000081526004016119319190615620565b60405180910390fd5b6000611945866123d1565b90508060600151871015611996578681606001516040517fe77e604400000000000000000000000000000000000000000000000000000000815260040161198d92919061563b565b60405180910390fd5b86600560008360a0015173ffffffffffffffffffffffffffffffffffffffff1673ffffffffffffffffffffffffffffffffffffffff16815260200190815260200160002060008773ffffffffffffffffffffffffffffffffffffffff1673ffffffffffffffffffffffffffffffffffffffff1681526020019081526020016000206000828254611a2691906157fe565b925050819055508473ffffffffffffffffffffffffffffffffffffffff1663095ea7b330896040518363ffffffff1660e01b8152600401611a68929190615327565b602060405180830381600087803b158015611a8257600080fd5b505af1158015611a96573d6000803e3d6000fd5b505050506040513d601f19601f82011682018060405250810190611aba9190614b0f565b508473ffffffffffffffffffffffffffffffffffffffff166323b872dd338360a001518a6040518463ffffffff1660e01b8152600401611afc93929190615296565b602060405180830381600087803b158015611b1657600080fd5b505af1158015611b2a573d6000803e3d6000fd5b505050506040513d601f19601f82011682018060405250810190611b4e9190614b0f565b50600960003373ffffffffffffffffffffffffffffffffffffffff1673ffffffffffffffffffffffffffffffffffffffff1681526020019081526020016000208190806001815401808255809150506001900390600052602060002090600602016000909190919091506000820151816000019080519060200190611bd4929190614378565b506020820151816001019080519060200190611bf1929190614378565b506040820151816002019080519060200190611c0e929190614378565b50606082015181600301556080820151816004015560a08201518160050160006101000a81548173ffffffffffffffffffffffffffffffffffffffff021916908373ffffffffffffffffffffffffffffffffffffffff1602179055505050600193505050509392505050565b611c826137d6565b611c8c6000613854565b565b60008060048054905090506000818410905080611ce257836040517f9b846d02000000000000000000000000000000000000000000000000000000008152600401611cd99190615620565b60405180910390fd5b600060048581548110611d1e577f4e487b7100000000000000000000000000000000000000000000000000000000600052603260045260246000fd5b9060005260206000209060060201905060018160040154611d3f91906157fe565b8160040181905550600a60003373ffffffffffffffffffffffffffffffffffffffff1673ffffffffffffffffffffffffffffffffffffffff1681526020019081526020016000208190806001815401808255809150506001900390600052602060002090600602016000909190919091506000820181600001908054611dc49061590a565b611dcf92919061444a565b506001820181600101908054611de49061590a565b611def92919061444a565b506002820181600201908054611e049061590a565b611e0f92919061444a565b5060038201548160030155600482015481600401556005820160009054906101000a900473ffffffffffffffffffffffffffffffffffffffff168160050160006101000a81548173ffffffffffffffffffffffffffffffffffffffff021916908373ffffffffffffffffffffffffffffffffffffffff160217905550505060019350505050919050565b611ea58484848461391a565b50505050565b6000600360009054906101000a900473ffffffffffffffffffffffffffffffffffffffff16905090565b6060600960008373ffffffffffffffffffffffffffffffffffffffff1673ffffffffffffffffffffffffffffffffffffffff168152602001908152602001600020805480602002602001604051908101604052809291908181526020016000905b8282101561218857838290600052602060002090600602016040518060c0016040529081600082018054611f699061590a565b80601f0160208091040260200160405190810160405280929190818152602001828054611f959061590a565b8015611fe25780601f10611fb757610100808354040283529160200191611fe2565b820191906000526020600020905b815481529060010190602001808311611fc557829003601f168201915b50505050508152602001600182018054611ffb9061590a565b80601f01602080910402602001604051908101604052809291908181526020018280546120279061590a565b80156120745780601f1061204957610100808354040283529160200191612074565b820191906000526020600020905b81548152906001019060200180831161205757829003601f168201915b5050505050815260200160028201805461208d9061590a565b80601f01602080910402602001604051908101604052809291908181526020018280546120b99061590a565b80156121065780601f106120db57610100808354040283529160200191612106565b820191906000526020600020905b8154815290600101906020018083116120e957829003601f168201915b5050505050815260200160038201548152602001600482015481526020016005820160009054906101000a900473ffffffffffffffffffffffffffffffffffffffff1673ffffffffffffffffffffffffffffffffffffffff1673ffffffffffffffffffffffffffffffffffffffff168152505081526020019060010190611f36565b505050509050919050565b600080600480549050905060008184109050806121e757836040517f9b846d020000000000000000000000000000000000000000000000000000000081526004016121de9190615620565b60405180910390fd5b60006121f2856123d1565b905086600560008360a0015173ffffffffffffffffffffffffffffffffffffffff1673ffffffffffffffffffffffffffffffffffffffff16815260200190815260200160002060008873ffffffffffffffffffffffffffffffffffffffff1673ffffffffffffffffffffffffffffffffffffffff168152602001908152602001600020600082825461228491906157fe565b925050819055508573ffffffffffffffffffffffffffffffffffffffff1663095ea7b330896040518363ffffffff1660e01b81526004016122c6929190615327565b602060405180830381600087803b1580156122e057600080fd5b505af11580156122f4573d6000803e3d6000fd5b505050506040513d601f19601f820116820180604052508101906123189190614b0f565b508573ffffffffffffffffffffffffffffffffffffffff166323b872dd338360a001518a6040518463ffffffff1660e01b815260040161235a93929190615296565b602060405180830381600087803b15801561237457600080fd5b505af1158015612388573d6000803e3d6000fd5b505050506040513d601f19601f820116820180604052508101906123ac9190614b0f565b50600193505050509392505050565b6123cd6123c6613460565b8383613acb565b5050565b6123d96143fe565b600060048381548110612415577f4e487b7100000000000000000000000000000000000000000000000000000000600052603260045260246000fd5b90600052602060002090600602016040518060c001604052908160008201805461243e9061590a565b80601f016020809104026020016040519081016040528092919081815260200182805461246a9061590a565b80156124b75780601f1061248c576101008083540402835291602001916124b7565b820191906000526020600020905b81548152906001019060200180831161249a57829003601f168201915b505050505081526020016001820180546124d09061590a565b80601f01602080910402602001604051908101604052809291908181526020018280546124fc9061590a565b80156125495780601f1061251e57610100808354040283529160200191612549565b820191906000526020600020905b81548152906001019060200180831161252c57829003601f168201915b505050505081526020016002820180546125629061590a565b80601f016020809104026020016040519081016040528092919081815260200182805461258e9061590a565b80156125db5780601f106125b0576101008083540402835291602001916125db565b820191906000526020600020905b8154815290600101906020018083116125be57829003601f168201915b5050505050815260200160038201548152602001600482015481526020016005820160009054906101000a900473ffffffffffffffffffffffffffffffffffffffff1673ffffffffffffffffffffffffffffffffffffffff1673ffffffffffffffffffffffffffffffffffffffff1681525050905080915050919050565b60008060005b600480549050811015612741576000600660008673ffffffffffffffffffffffffffffffffffffffff1673ffffffffffffffffffffffffffffffffffffffff1681526020019081526020016000206000838152602001908152602001600020905060008160050160009054906101000a900473ffffffffffffffffffffffffffffffffffffffff1690508573ffffffffffffffffffffffffffffffffffffffff168173ffffffffffffffffffffffffffffffffffffffff16141561272c5783806127289061596d565b9450505b505080806127399061596d565b91505061265f565b5080915050919050565b60008060048381548110612788577f4e487b7100000000000000000000000000000000000000000000000000000000600052603260045260246000fd5b90600052602060002090600602016040518060c00160405290816000820180546127b19061590a565b80601f01602080910402602001604051908101604052809291908181526020018280546127dd9061590a565b801561282a5780601f106127ff5761010080835404028352916020019161282a565b820191906000526020600020905b81548152906001019060200180831161280d57829003601f168201915b505050505081526020016001820180546128439061590a565b80601f016020809104026020016040519081016040528092919081815260200182805461286f9061590a565b80156128bc5780601f10612891576101008083540402835291602001916128bc565b820191906000526020600020905b81548152906001019060200180831161289f57829003601f168201915b505050505081526020016002820180546128d59061590a565b80601f01602080910402602001604051908101604052809291908181526020018280546129019061590a565b801561294e5780601f106129235761010080835404028352916020019161294e565b820191906000526020600020905b81548152906001019060200180831161293157829003601f168201915b5050505050815260200160038201548152602001600482015481526020016005820160009054906101000a900473ffffffffffffffffffffffffffffffffffffffff1673ffffffffffffffffffffffffffffffffffffffff1673ffffffffffffffffffffffffffffffffffffffff1681525050905080600660003373ffffffffffffffffffffffffffffffffffffffff1673ffffffffffffffffffffffffffffffffffffffff16815260200190815260200160002060008581526020019081526020016000206000820151816000019080519060200190612a30929190614378565b506020820151816001019080519060200190612a4d929190614378565b506040820151816002019080519060200190612a6a929190614378565b50606082015181600301556080820151816004015560a08201518160050160006101000a81548173ffffffffffffffffffffffffffffffffffffffff021916908373ffffffffffffffffffffffffffffffffffffffff1602179055509050506001915050919050565b60006001838390501015612c92576000600560003373ffffffffffffffffffffffffffffffffffffffff1673ffffffffffffffffffffffffffffffffffffffff168152602001908152602001600020600085856000818110612b5e577f4e487b7100000000000000000000000000000000000000000000000000000000600052603260045260246000fd5b9050602002016020810190612b7391906147b8565b73ffffffffffffffffffffffffffffffffffffffff1673ffffffffffffffffffffffffffffffffffffffff16815260200190815260200160002054905083836000818110612bea577f4e487b7100000000000000000000000000000000000000000000000000000000600052603260045260246000fd5b9050602002016020810190612bff91906147b8565b73ffffffffffffffffffffffffffffffffffffffff1663a9059cbb33836040518363ffffffff1660e01b8152600401612c39929190615327565b602060405180830381600087803b158015612c5357600080fd5b505af1158015612c67573d6000803e3d6000fd5b505050506040513d601f19601f82011682018060405250810190612c8b9190614b0f565b5050612e5f565b60005b83839050811015612e5d576000600560003373ffffffffffffffffffffffffffffffffffffffff1673ffffffffffffffffffffffffffffffffffffffff1681526020019081526020016000206000868685818110612d1c577f4e487b7100000000000000000000000000000000000000000000000000000000600052603260045260246000fd5b9050602002016020810190612d3191906147b8565b73ffffffffffffffffffffffffffffffffffffffff1673ffffffffffffffffffffffffffffffffffffffff168152602001908152602001600020549050848483818110612da7577f4e487b7100000000000000000000000000000000000000000000000000000000600052603260045260246000fd5b9050602002016020810190612dbc91906147b8565b73ffffffffffffffffffffffffffffffffffffffff1663a9059cbb33836040518363ffffffff1660e01b8152600401612df6929190615327565b602060405180830381600087803b158015612e1057600080fd5b505af1158015612e24573d6000803e3d6000fd5b505050506040513d601f19601f82011682018060405250810190612e489190614b0f565b50508080612e559061596d565b915050612c95565b505b6001905092915050565b6000600480549050905090565b6000600160008473ffffffffffffffffffffffffffffffffffffffff1673ffffffffffffffffffffffffffffffffffffffff16815260200190815260200160002060008373ffffffffffffffffffffffffffffffffffffffff1673ffffffffffffffffffffffffffffffffffffffff16815260200190815260200160002060009054906101000a900460ff16905092915050565b612f12613460565b73ffffffffffffffffffffffffffffffffffffffff168573ffffffffffffffffffffffffffffffffffffffff161480612f585750612f5785612f52613460565b612e76565b5b612f97576040517f08c379a0000000000000000000000000000000000000000000000000000000008152600401612f8e9061549e565b60405180910390fd5b612fa48585858585613c38565b5050505050565b612fb36137d6565b600073ffffffffffffffffffffffffffffffffffffffff168173ffffffffffffffffffffffffffffffffffffffff161415613023576040517f08c379a000000000000000000000000000000000000000000000000000000000815260040161301a906154de565b60405180910390fd5b61302c81613854565b50565b600080341161303d57600080fd5b60006004805490509050600081841090508061309057836040517f9b846d020000000000000000000000000000000000000000000000000000000081526004016130879190615620565b60405180910390fd5b600061309b856123d1565b905034600860008360a0015173ffffffffffffffffffffffffffffffffffffffff1673ffffffffffffffffffffffffffffffffffffffff16815260200190815260200160002060008282546130f091906157fe565b925050819055506001935050505092915050565b61310c6143fe565b60006131166143fe565b60005b6004805490508110156133ca57600060048281548110613162577f4e487b7100000000000000000000000000000000000000000000000000000000600052603260045260246000fd5b90600052602060002090600602019050600081600401549050848111156133b557809450816040518060c00160405290816000820180546131a29061590a565b80601f01602080910402602001604051908101604052809291908181526020018280546131ce9061590a565b801561321b5780601f106131f05761010080835404028352916020019161321b565b820191906000526020600020905b8154815290600101906020018083116131fe57829003601f168201915b505050505081526020016001820180546132349061590a565b80601f01602080910402602001604051908101604052809291908181526020018280546132609061590a565b80156132ad5780601f10613282576101008083540402835291602001916132ad565b820191906000526020600020905b81548152906001019060200180831161329057829003601f168201915b505050505081526020016002820180546132c69061590a565b80601f01602080910402602001604051908101604052809291908181526020018280546132f29061590a565b801561333f5780601f106133145761010080835404028352916020019161333f565b820191906000526020600020905b81548152906001019060200180831161332257829003601f168201915b5050505050815260200160038201548152602001600482015481526020016005820160009054906101000a900473ffffffffffffffffffffffffffffffffffffffff1673ffffffffffffffffffffffffffffffffffffffff1673ffffffffffffffffffffffffffffffffffffffff168152505093505b505080806133c29061596d565b915050613119565b50809250505090565b6000808273ffffffffffffffffffffffffffffffffffffffff163b119050919050565b60007f01ffc9a7000000000000000000000000000000000000000000000000000000007bffffffffffffffffffffffffffffffffffffffffffffffffffffffff1916827bffffffffffffffffffffffffffffffffffffffffffffffffffffffff1916149050919050565b600033905090565b81518351146134ac576040517f08c379a00000000000000000000000000000000000000000000000000000000081526004016134a3906155be565b60405180910390fd5b600073ffffffffffffffffffffffffffffffffffffffff168473ffffffffffffffffffffffffffffffffffffffff16141561351c576040517f08c379a00000000000000000000000000000000000000000000000000000000081526004016135139061551e565b60405180910390fd5b6000613526613460565b9050613536818787878787613ed4565b60005b845181101561373357600085828151811061357d577f4e487b7100000000000000000000000000000000000000000000000000000000600052603260045260246000fd5b6020026020010151905060008583815181106135c2577f4e487b7100000000000000000000000000000000000000000000000000000000600052603260045260246000fd5b60200260200101519050600080600084815260200190815260200160002060008b73ffffffffffffffffffffffffffffffffffffffff1673ffffffffffffffffffffffffffffffffffffffff16815260200190815260200160002054905081811015613663576040517f08c379a000000000000000000000000000000000000000000000000000000000815260040161365a9061553e565b60405180910390fd5b81810360008085815260200190815260200160002060008c73ffffffffffffffffffffffffffffffffffffffff1673ffffffffffffffffffffffffffffffffffffffff168152602001908152602001600020819055508160008085815260200190815260200160002060008b73ffffffffffffffffffffffffffffffffffffffff1673ffffffffffffffffffffffffffffffffffffffff168152602001908152602001600020600082825461371891906157fe565b925050819055505050508061372c9061596d565b9050613539565b508473ffffffffffffffffffffffffffffffffffffffff168673ffffffffffffffffffffffffffffffffffffffff168273ffffffffffffffffffffffffffffffffffffffff167f4a39dc06d4c0dbc64b70af90fd698a233a518aa5d07e595d983b8c0526c8f7fb87876040516137aa929190615394565b60405180910390a46137c0818787878787613edc565b6137ce818787878787613ee4565b505050505050565b6137de613460565b73ffffffffffffffffffffffffffffffffffffffff166137fc611eab565b73ffffffffffffffffffffffffffffffffffffffff1614613852576040517f08c379a00000000000000000000000000000000000000000000000000000000081526004016138499061555e565b60405180910390fd5b565b6000600360009054906101000a900473ffffffffffffffffffffffffffffffffffffffff16905081600360006101000a81548173ffffffffffffffffffffffffffffffffffffffff021916908373ffffffffffffffffffffffffffffffffffffffff1602179055508173ffffffffffffffffffffffffffffffffffffffff168173ffffffffffffffffffffffffffffffffffffffff167f8be0079c531659141344cd1fd0a4f28419497f9722a3daafe3b4186f6b6457e060405160405180910390a35050565b600073ffffffffffffffffffffffffffffffffffffffff168473ffffffffffffffffffffffffffffffffffffffff16141561398a576040517f08c379a0000000000000000000000000000000000000000000000000000000008152600401613981906155de565b60405180910390fd5b6000613994613460565b905060006139a1856140cb565b905060006139ae856140cb565b90506139bf83600089858589613ed4565b8460008088815260200190815260200160002060008973ffffffffffffffffffffffffffffffffffffffff1673ffffffffffffffffffffffffffffffffffffffff1681526020019081526020016000206000828254613a1e91906157fe565b925050819055508673ffffffffffffffffffffffffffffffffffffffff16600073ffffffffffffffffffffffffffffffffffffffff168473ffffffffffffffffffffffffffffffffffffffff167fc3d58168c5ae7397731d063d5bbf3d657854427343f4c083240f7aacaa2d0f628989604051613a9c92919061563b565b60405180910390a4613ab383600089858589613edc565b613ac283600089898989614191565b50505050505050565b8173ffffffffffffffffffffffffffffffffffffffff168373ffffffffffffffffffffffffffffffffffffffff161415613b3a576040517f08c379a0000000000000000000000000000000000000000000000000000000008152600401613b319061557e565b60405180910390fd5b80600160008573ffffffffffffffffffffffffffffffffffffffff1673ffffffffffffffffffffffffffffffffffffffff16815260200190815260200160002060008473ffffffffffffffffffffffffffffffffffffffff1673ffffffffffffffffffffffffffffffffffffffff16815260200190815260200160002060006101000a81548160ff0219169083151502179055508173ffffffffffffffffffffffffffffffffffffffff168373ffffffffffffffffffffffffffffffffffffffff167f17307eab39ab6107e8899845ad3d59bd9653f200f220920489ca2b5937696c3183604051613c2b91906153cb565b60405180910390a3505050565b600073ffffffffffffffffffffffffffffffffffffffff168473ffffffffffffffffffffffffffffffffffffffff161415613ca8576040517f08c379a0000000000000000000000000000000000000000000000000000000008152600401613c9f9061551e565b60405180910390fd5b6000613cb2613460565b90506000613cbf856140cb565b90506000613ccc856140cb565b9050613cdc838989858589613ed4565b600080600088815260200190815260200160002060008a73ffffffffffffffffffffffffffffffffffffffff1673ffffffffffffffffffffffffffffffffffffffff16815260200190815260200160002054905085811015613d73576040517f08c379a0000000000000000000000000000000000000000000000000000000008152600401613d6a9061553e565b60405180910390fd5b85810360008089815260200190815260200160002060008b73ffffffffffffffffffffffffffffffffffffffff1673ffffffffffffffffffffffffffffffffffffffff168152602001908152602001600020819055508560008089815260200190815260200160002060008a73ffffffffffffffffffffffffffffffffffffffff1673ffffffffffffffffffffffffffffffffffffffff1681526020019081526020016000206000828254613e2891906157fe565b925050819055508773ffffffffffffffffffffffffffffffffffffffff168973ffffffffffffffffffffffffffffffffffffffff168573ffffffffffffffffffffffffffffffffffffffff167fc3d58168c5ae7397731d063d5bbf3d657854427343f4c083240f7aacaa2d0f628a8a604051613ea592919061563b565b60405180910390a4613ebb848a8a86868a613edc565b613ec9848a8a8a8a8a614191565b505050505050505050565b505050505050565b505050505050565b613f038473ffffffffffffffffffffffffffffffffffffffff166133d3565b156140c3578373ffffffffffffffffffffffffffffffffffffffff1663bc197c8187878686866040518663ffffffff1660e01b8152600401613f4995949392919061522e565b602060405180830381600087803b158015613f6357600080fd5b505af1925050508015613f9457506040513d601f19601f82011682018060405250810190613f919190614b61565b60015b61403a57613fa0615a43565b806308c379a01415613ffd5750613fb5615e11565b80613fc05750613fff565b806040517f08c379a0000000000000000000000000000000000000000000000000000000008152600401613ff491906153e6565b60405180910390fd5b505b6040517f08c379a00000000000000000000000000000000000000000000000000000000081526004016140319061547e565b60405180910390fd5b63bc197c8160e01b7bffffffffffffffffffffffffffffffffffffffffffffffffffffffff1916817bffffffffffffffffffffffffffffffffffffffffffffffffffffffff1916146140c1576040517f08c379a00000000000000000000000000000000000000000000000000000000081526004016140b8906154be565b60405180910390fd5b505b505050505050565b60606000600167ffffffffffffffff811115614110577f4e487b7100000000000000000000000000000000000000000000000000000000600052604160045260246000fd5b60405190808252806020026020018201604052801561413e5781602001602082028036833780820191505090505b509050828160008151811061417c577f4e487b7100000000000000000000000000000000000000000000000000000000600052603260045260246000fd5b60200260200101818152505080915050919050565b6141b08473ffffffffffffffffffffffffffffffffffffffff166133d3565b15614370578373ffffffffffffffffffffffffffffffffffffffff1663f23a6e6187878686866040518663ffffffff1660e01b81526004016141f69594939291906152cd565b602060405180830381600087803b15801561421057600080fd5b505af192505050801561424157506040513d601f19601f8201168201806040525081019061423e9190614b61565b60015b6142e75761424d615a43565b806308c379a014156142aa5750614262615e11565b8061426d57506142ac565b806040517f08c379a00000000000000000000000000000000000000000000000000000000081526004016142a191906153e6565b60405180910390fd5b505b6040517f08c379a00000000000000000000000000000000000000000000000000000000081526004016142de9061547e565b60405180910390fd5b63f23a6e6160e01b7bffffffffffffffffffffffffffffffffffffffffffffffffffffffff1916817bffffffffffffffffffffffffffffffffffffffffffffffffffffffff19161461436e576040517f08c379a0000000000000000000000000000000000000000000000000000000008152600401614365906154be565b60405180910390fd5b505b505050505050565b8280546143849061590a565b90600052602060002090601f0160209004810192826143a657600085556143ed565b82601f106143bf57805160ff19168380011785556143ed565b828001600101855582156143ed579182015b828111156143ec5782518255916020019190600101906143d1565b5b5090506143fa91906144d7565b5090565b6040518060c001604052806060815260200160608152602001606081526020016000815260200160008152602001600073ffffffffffffffffffffffffffffffffffffffff1681525090565b8280546144569061590a565b90600052602060002090601f01602090048101928261447857600085556144c6565b82601f1061448957805485556144c6565b828001600101855582156144c657600052602060002091601f016020900482015b828111156144c55782548255916001019190600101906144aa565b5b5090506144d391906144d7565b5090565b5b808211156144f05760008160009055506001016144d8565b5090565b600061450761450284615689565b615664565b9050808382526020820190508285602086028201111561452657600080fd5b60005b85811015614556578161453c8882614648565b845260208401935060208301925050600181019050614529565b5050509392505050565b600061457361456e846156b5565b615664565b9050808382526020820190508285602086028201111561459257600080fd5b60005b858110156145c257816145a888826147a3565b845260208401935060208301925050600181019050614595565b5050509392505050565b60006145df6145da846156e1565b615664565b9050828152602081018484840111156145f757600080fd5b6146028482856158c8565b509392505050565b600061461d61461884615712565b615664565b90508281526020810184848401111561463557600080fd5b6146408482856158c8565b509392505050565b60008135905061465781615ea7565b92915050565b60008083601f84011261466f57600080fd5b8235905067ffffffffffffffff81111561468857600080fd5b6020830191508360208202830111156146a057600080fd5b9250929050565b600082601f8301126146b857600080fd5b81356146c88482602086016144f4565b91505092915050565b600082601f8301126146e257600080fd5b81356146f2848260208601614560565b91505092915050565b60008135905061470a81615ebe565b92915050565b60008151905061471f81615ebe565b92915050565b60008135905061473481615ed5565b92915050565b60008151905061474981615ed5565b92915050565b600082601f83011261476057600080fd5b81356147708482602086016145cc565b91505092915050565b600082601f83011261478a57600080fd5b813561479a84826020860161460a565b91505092915050565b6000813590506147b281615eec565b92915050565b6000602082840312156147ca57600080fd5b60006147d884828501614648565b91505092915050565b600080604083850312156147f457600080fd5b600061480285828601614648565b925050602061481385828601614648565b9150509250929050565b600080600080600060a0868803121561483557600080fd5b600061484388828901614648565b955050602061485488828901614648565b945050604086013567ffffffffffffffff81111561487157600080fd5b61487d888289016146d1565b935050606086013567ffffffffffffffff81111561489a57600080fd5b6148a6888289016146d1565b925050608086013567ffffffffffffffff8111156148c357600080fd5b6148cf8882890161474f565b9150509295509295909350565b600080600080600060a086880312156148f457600080fd5b600061490288828901614648565b955050602061491388828901614648565b9450506040614924888289016147a3565b9350506060614935888289016147a3565b925050608086013567ffffffffffffffff81111561495257600080fd5b61495e8882890161474f565b9150509295509295909350565b6000806040838503121561497e57600080fd5b600061498c85828601614648565b925050602061499d858286016146fb565b9150509250929050565b600080604083850312156149ba57600080fd5b60006149c885828601614648565b92505060206149d9858286016147a3565b9150509250929050565b600080600080608085870312156149f957600080fd5b6000614a0787828801614648565b9450506020614a18878288016147a3565b9350506040614a29878288016147a3565b925050606085013567ffffffffffffffff811115614a4657600080fd5b614a528782880161474f565b91505092959194509250565b60008060208385031215614a7157600080fd5b600083013567ffffffffffffffff811115614a8b57600080fd5b614a978582860161465d565b92509250509250929050565b60008060408385031215614ab657600080fd5b600083013567ffffffffffffffff811115614ad057600080fd5b614adc858286016146a7565b925050602083013567ffffffffffffffff811115614af957600080fd5b614b05858286016146d1565b9150509250929050565b600060208284031215614b2157600080fd5b6000614b2f84828501614710565b91505092915050565b600060208284031215614b4a57600080fd5b6000614b5884828501614725565b91505092915050565b600060208284031215614b7357600080fd5b6000614b818482850161473a565b91505092915050565b600080600080600060a08688031215614ba257600080fd5b600086013567ffffffffffffffff811115614bbc57600080fd5b614bc888828901614779565b955050602086013567ffffffffffffffff811115614be557600080fd5b614bf188828901614779565b945050604086013567ffffffffffffffff811115614c0e57600080fd5b614c1a88828901614779565b9350506060614c2b888289016147a3565b9250506080614c3c88828901614648565b9150509295509295909350565b600060208284031215614c5b57600080fd5b6000614c69848285016147a3565b91505092915050565b600080600060608486031215614c8757600080fd5b6000614c95868287016147a3565b9350506020614ca686828701614648565b9250506040614cb7868287016147a3565b9150509250925092565b60008060408385031215614cd457600080fd5b6000614ce2858286016147a3565b9250506020614cf3858286016147a3565b9150509250929050565b600080600060608486031215614d1257600080fd5b6000614d20868287016147a3565b9350506020614d31868287016147a3565b9250506040614d4286828701614648565b9150509250925092565b6000614d5883836150c7565b905092915050565b6000614d6c83836151f5565b60208301905092915050565b614d8181615854565b82525050565b614d9081615854565b82525050565b6000614da182615763565b614dab81856157a9565b935083602082028501614dbd85615743565b8060005b85811015614df95784840389528151614dda8582614d4c565b9450614de58361578f565b925060208a01995050600181019050614dc1565b50829750879550505050505092915050565b6000614e168261576e565b614e2081856157ba565b9350614e2b83615753565b8060005b83811015614e5c578151614e438882614d60565b9750614e4e8361579c565b925050600181019050614e2f565b5085935050505092915050565b614e7281615866565b82525050565b6000614e8382615779565b614e8d81856157cb565b9350614e9d8185602086016158d7565b614ea681615a65565b840191505092915050565b6000614ebc82615784565b614ec681856157dc565b9350614ed68185602086016158d7565b614edf81615a65565b840191505092915050565b6000614ef582615784565b614eff81856157ed565b9350614f0f8185602086016158d7565b614f1881615a65565b840191505092915050565b6000614f306034836157ed565b9150614f3b82615a83565b604082019050919050565b6000614f53602f836157ed565b9150614f5e82615ad2565b604082019050919050565b6000614f766028836157ed565b9150614f8182615b21565b604082019050919050565b6000614f996026836157ed565b9150614fa482615b70565b604082019050919050565b6000614fbc602a836157ed565b9150614fc782615bbf565b604082019050919050565b6000614fdf6025836157ed565b9150614fea82615c0e565b604082019050919050565b6000615002602a836157ed565b915061500d82615c5d565b604082019050919050565b60006150256020836157ed565b915061503082615cac565b602082019050919050565b60006150486029836157ed565b915061505382615cd5565b604082019050919050565b600061506b6029836157ed565b915061507682615d24565b604082019050919050565b600061508e6028836157ed565b915061509982615d73565b604082019050919050565b60006150b16021836157ed565b91506150bc82615dc2565b604082019050919050565b600060c08301600083015184820360008601526150e48282614eb1565b915050602083015184820360208601526150fe8282614eb1565b915050604083015184820360408601526151188282614eb1565b915050606083015161512d60608601826151f5565b50608083015161514060808601826151f5565b5060a083015161515360a0860182614d78565b508091505092915050565b600060c083016000830151848203600086015261517b8282614eb1565b915050602083015184820360208601526151958282614eb1565b915050604083015184820360408601526151af8282614eb1565b91505060608301516151c460608601826151f5565b5060808301516151d760808601826151f5565b5060a08301516151ea60a0860182614d78565b508091505092915050565b6151fe816158be565b82525050565b61520d816158be565b82525050565b60006020820190506152286000830184614d87565b92915050565b600060a0820190506152436000830188614d87565b6152506020830187614d87565b81810360408301526152628186614e0b565b905081810360608301526152768185614e0b565b9050818103608083015261528a8184614e78565b90509695505050505050565b60006060820190506152ab6000830186614d87565b6152b86020830185614d87565b6152c56040830184615204565b949350505050565b600060a0820190506152e26000830188614d87565b6152ef6020830187614d87565b6152fc6040830186615204565b6153096060830185615204565b818103608083015261531b8184614e78565b90509695505050505050565b600060408201905061533c6000830185614d87565b6153496020830184615204565b9392505050565b6000602082019050818103600083015261536a8184614d96565b905092915050565b6000602082019050818103600083015261538c8184614e0b565b905092915050565b600060408201905081810360008301526153ae8185614e0b565b905081810360208301526153c28184614e0b565b90509392505050565b60006020820190506153e06000830184614e69565b92915050565b600060208201905081810360008301526154008184614eea565b905092915050565b600060c08201905081810360008301526154228189614eea565b905081810360208301526154368188614eea565b9050818103604083015261544a8187614eea565b90506154596060830186615204565b6154666080830185615204565b61547360a0830184614d87565b979650505050505050565b6000602082019050818103600083015261549781614f23565b9050919050565b600060208201905081810360008301526154b781614f46565b9050919050565b600060208201905081810360008301526154d781614f69565b9050919050565b600060208201905081810360008301526154f781614f8c565b9050919050565b6000602082019050818103600083015261551781614faf565b9050919050565b6000602082019050818103600083015261553781614fd2565b9050919050565b6000602082019050818103600083015261555781614ff5565b9050919050565b6000602082019050818103600083015261557781615018565b9050919050565b600060208201905081810360008301526155978161503b565b9050919050565b600060208201905081810360008301526155b78161505e565b9050919050565b600060208201905081810360008301526155d781615081565b9050919050565b600060208201905081810360008301526155f7816150a4565b9050919050565b60006020820190508181036000830152615618818461515e565b905092915050565b60006020820190506156356000830184615204565b92915050565b60006040820190506156506000830185615204565b61565d6020830184615204565b9392505050565b600061566e61567f565b905061567a828261593c565b919050565b6000604051905090565b600067ffffffffffffffff8211156156a4576156a3615a14565b5b602082029050602081019050919050565b600067ffffffffffffffff8211156156d0576156cf615a14565b5b602082029050602081019050919050565b600067ffffffffffffffff8211156156fc576156fb615a14565b5b61570582615a65565b9050602081019050919050565b600067ffffffffffffffff82111561572d5761572c615a14565b5b61573682615a65565b9050602081019050919050565b6000819050602082019050919050565b6000819050602082019050919050565b600081519050919050565b600081519050919050565b600081519050919050565b600081519050919050565b6000602082019050919050565b6000602082019050919050565b600082825260208201905092915050565b600082825260208201905092915050565b600082825260208201905092915050565b600082825260208201905092915050565b600082825260208201905092915050565b6000615809826158be565b9150615814836158be565b9250827fffffffffffffffffffffffffffffffffffffffffffffffffffffffffffffffff03821115615849576158486159b6565b5b828201905092915050565b600061585f8261589e565b9050919050565b60008115159050919050565b60007fffffffff0000000000000000000000000000000000000000000000000000000082169050919050565b600073ffffffffffffffffffffffffffffffffffffffff82169050919050565b6000819050919050565b82818337600083830152505050565b60005b838110156158f55780820151818401526020810190506158da565b83811115615904576000848401525b50505050565b6000600282049050600182168061592257607f821691505b60208210811415615936576159356159e5565b5b50919050565b61594582615a65565b810181811067ffffffffffffffff8211171561596457615963615a14565b5b80604052505050565b6000615978826158be565b91507fffffffffffffffffffffffffffffffffffffffffffffffffffffffffffffffff8214156159ab576159aa6159b6565b5b600182019050919050565b7f4e487b7100000000000000000000000000000000000000000000000000000000600052601160045260246000fd5b7f4e487b7100000000000000000000000000000000000000000000000000000000600052602260045260246000fd5b7f4e487b7100000000000000000000000000000000000000000000000000000000600052604160045260246000fd5b600060033d1115615a625760046000803e615a5f600051615a76565b90505b90565b6000601f19601f8301169050919050565b60008160e01c9050919050565b7f455243313135353a207472616e7366657220746f206e6f6e204552433131353560008201527f526563656976657220696d706c656d656e746572000000000000000000000000602082015250565b7f455243313135353a2063616c6c6572206973206e6f7420746f6b656e206f776e60008201527f6572206e6f7220617070726f7665640000000000000000000000000000000000602082015250565b7f455243313135353a204552433131353552656365697665722072656a6563746560008201527f6420746f6b656e73000000000000000000000000000000000000000000000000602082015250565b7f4f776e61626c653a206e6577206f776e657220697320746865207a65726f206160008201527f6464726573730000000000000000000000000000000000000000000000000000602082015250565b7f455243313135353a2061646472657373207a65726f206973206e6f742061207660008201527f616c6964206f776e657200000000000000000000000000000000000000000000602082015250565b7f455243313135353a207472616e7366657220746f20746865207a65726f20616460008201527f6472657373000000000000000000000000000000000000000000000000000000602082015250565b7f455243313135353a20696e73756666696369656e742062616c616e636520666f60008201527f72207472616e7366657200000000000000000000000000000000000000000000602082015250565b7f4f776e61626c653a2063616c6c6572206973206e6f7420746865206f776e6572600082015250565b7f455243313135353a2073657474696e6720617070726f76616c2073746174757360008201527f20666f722073656c660000000000000000000000000000000000000000000000602082015250565b7f455243313135353a206163636f756e747320616e6420696473206c656e67746860008201527f206d69736d617463680000000000000000000000000000000000000000000000602082015250565b7f455243313135353a2069647320616e6420616d6f756e7473206c656e6774682060008201527f6d69736d61746368000000000000000000000000000000000000000000000000602082015250565b7f455243313135353a206d696e7420746f20746865207a65726f2061646472657360008201527f7300000000000000000000000000000000000000000000000000000000000000602082015250565b600060443d1015615e2157615ea4565b615e2961567f565b60043d036004823e80513d602482011167ffffffffffffffff82111715615e51575050615ea4565b808201805167ffffffffffffffff811115615e6f5750505050615ea4565b80602083010160043d038501811115615e8c575050505050615ea4565b615e9b8260200185018661593c565b82955050505050505b90565b615eb081615854565b8114615ebb57600080fd5b50565b615ec781615866565b8114615ed257600080fd5b50565b615ede81615872565b8114615ee957600080fd5b50565b615ef5816158be565b8114615f0057600080fd5b5056fea2646970667358221220f410a9705a9d22c8bc32adc4ac914a429d9ffbb78b3eba08d0c959bf622a5ac264736f6c6343000804003368747470733a2f2f776661646931316c6b3175332e7573656d6f72616c69732e636f6d2f7b69647d2e6a736f6e",
  "linkReferences": {},
  "deployedLinkReferences": {}
}