{
  "contractName": "BlogGen",
  "abi": [
    {
      "inputs": [],
      "stateMutability": "nonpayable",
      "type": "constructor"
    },
    {
      "inputs": [
        {
          "internalType": "uint256",
          "name": "id",
          "type": "uint256"
        }
      ],
      "name": "BlogExistence",
      "type": "error"
    },
    {
      "inputs": [],
      "name": "PostPurchaseError",
      "type": "error"
    },
    {
      "inputs": [
        {
          "internalType": "uint256",
          "name": "entered",
          "type": "uint256"
        },
        {
          "internalType": "uint256",
          "name": "required",
          "type": "uint256"
        }
      ],
      "name": "ValueError",
      "type": "error"
    },
    {
      "anonymous": false,
      "inputs": [
        {
          "indexed": true,
          "internalType": "address",
          "name": "account",
          "type": "address"
        },
        {
          "indexed": true,
          "internalType": "address",
          "name": "operator",
          "type": "address"
        },
        {
          "indexed": false,
          "internalType": "bool",
          "name": "approved",
          "type": "bool"
        }
      ],
      "name": "ApprovalForAll",
      "type": "event"
    },
    {
      "anonymous": false,
      "inputs": [
        {
          "indexed": true,
          "internalType": "address",
          "name": "previousOwner",
          "type": "address"
        },
        {
          "indexed": true,
          "internalType": "address",
          "name": "newOwner",
          "type": "address"
        }
      ],
      "name": "OwnershipTransferred",
      "type": "event"
    },
    {
      "anonymous": false,
      "inputs": [
        {
          "indexed": true,
          "internalType": "address",
          "name": "operator",
          "type": "address"
        },
        {
          "indexed": true,
          "internalType": "address",
          "name": "from",
          "type": "address"
        },
        {
          "indexed": true,
          "internalType": "address",
          "name": "to",
          "type": "address"
        },
        {
          "indexed": false,
          "internalType": "uint256[]",
          "name": "ids",
          "type": "uint256[]"
        },
        {
          "indexed": false,
          "internalType": "uint256[]",
          "name": "values",
          "type": "uint256[]"
        }
      ],
      "name": "TransferBatch",
      "type": "event"
    },
    {
      "anonymous": false,
      "inputs": [
        {
          "indexed": true,
          "internalType": "address",
          "name": "operator",
          "type": "address"
        },
        {
          "indexed": true,
          "internalType": "address",
          "name": "from",
          "type": "address"
        },
        {
          "indexed": true,
          "internalType": "address",
          "name": "to",
          "type": "address"
        },
        {
          "indexed": false,
          "internalType": "uint256",
          "name": "id",
          "type": "uint256"
        },
        {
          "indexed": false,
          "internalType": "uint256",
          "name": "value",
          "type": "uint256"
        }
      ],
      "name": "TransferSingle",
      "type": "event"
    },
    {
      "anonymous": false,
      "inputs": [
        {
          "indexed": false,
          "internalType": "string",
          "name": "value",
          "type": "string"
        },
        {
          "indexed": true,
          "internalType": "uint256",
          "name": "id",
          "type": "uint256"
        }
      ],
      "name": "URI",
      "type": "event"
    },
    {
      "stateMutability": "payable",
      "type": "fallback"
    },
    {
      "inputs": [
        {
          "internalType": "address",
          "name": "account",
          "type": "address"
        },
        {
          "internalType": "uint256",
          "name": "id",
          "type": "uint256"
        }
      ],
      "name": "balanceOf",
      "outputs": [
        {
          "internalType": "uint256",
          "name": "",
          "type": "uint256"
        }
      ],
      "stateMutability": "view",
      "type": "function"
    },
    {
      "inputs": [
        {
          "internalType": "address[]",
          "name": "accounts",
          "type": "address[]"
        },
        {
          "internalType": "uint256[]",
          "name": "ids",
          "type": "uint256[]"
        }
      ],
      "name": "balanceOfBatch",
      "outputs": [
        {
          "internalType": "uint256[]",
          "name": "",
          "type": "uint256[]"
        }
      ],
      "stateMutability": "view",
      "type": "function"
    },
    {
      "inputs": [
        {
          "internalType": "address",
          "name": "account",
          "type": "address"
        },
        {
          "internalType": "address",
          "name": "operator",
          "type": "address"
        }
      ],
      "name": "isApprovedForAll",
      "outputs": [
        {
          "internalType": "bool",
          "name": "",
          "type": "bool"
        }
      ],
      "stateMutability": "view",
      "type": "function"
    },
    {
      "inputs": [],
      "name": "owner",
      "outputs": [
        {
          "internalType": "address",
          "name": "",
          "type": "address"
        }
      ],
      "stateMutability": "view",
      "type": "function"
    },
    {
      "inputs": [
        {
          "internalType": "uint256",
          "name": "",
          "type": "uint256"
        }
      ],
      "name": "posts",
      "outputs": [
        {
          "internalType": "string",
          "name": "title",
          "type": "string"
        },
        {
          "internalType": "string",
          "name": "desc",
          "type": "string"
        },
        {
          "internalType": "string",
          "name": "creator",
          "type": "string"
        },
        {
          "internalType": "uint256",
          "name": "price",
          "type": "uint256"
        },
        {
          "internalType": "uint256",
          "name": "likes",
          "type": "uint256"
        },
        {
          "internalType": "address",
          "name": "wallet",
          "type": "address"
        }
      ],
      "stateMutability": "view",
      "type": "function"
    },
    {
      "inputs": [],
      "name": "renounceOwnership",
      "outputs": [],
      "stateMutability": "nonpayable",
      "type": "function"
    },
    {
      "inputs": [
        {
          "internalType": "address",
          "name": "from",
          "type": "address"
        },
        {
          "internalType": "address",
          "name": "to",
          "type": "address"
        },
        {
          "internalType": "uint256[]",
          "name": "ids",
          "type": "uint256[]"
        },
        {
          "internalType": "uint256[]",
          "name": "amounts",
          "type": "uint256[]"
        },
        {
          "internalType": "bytes",
          "name": "data",
          "type": "bytes"
        }
      ],
      "name": "safeBatchTransferFrom",
      "outputs": [],
      "stateMutability": "nonpayable",
      "type": "function"
    },
    {
      "inputs": [
        {
          "internalType": "address",
          "name": "from",
          "type": "address"
        },
        {
          "internalType": "address",
          "name": "to",
          "type": "address"
        },
        {
          "internalType": "uint256",
          "name": "id",
          "type": "uint256"
        },
        {
          "internalType": "uint256",
          "name": "amount",
          "type": "uint256"
        },
        {
          "internalType": "bytes",
          "name": "data",
          "type": "bytes"
        }
      ],
      "name": "safeTransferFrom",
      "outputs": [],
      "stateMutability": "nonpayable",
      "type": "function"
    },
    {
      "inputs": [
        {
          "internalType": "address",
          "name": "operator",
          "type": "address"
        },
        {
          "internalType": "bool",
          "name": "approved",
          "type": "bool"
        }
      ],
      "name": "setApprovalForAll",
      "outputs": [],
      "stateMutability": "nonpayable",
      "type": "function"
    },
    {
      "inputs": [
        {
          "internalType": "bytes4",
          "name": "interfaceId",
          "type": "bytes4"
        }
      ],
      "name": "supportsInterface",
      "outputs": [
        {
          "internalType": "bool",
          "name": "",
          "type": "bool"
        }
      ],
      "stateMutability": "view",
      "type": "function"
    },
    {
      "inputs": [
        {
          "internalType": "address",
          "name": "newOwner",
          "type": "address"
        }
      ],
      "name": "transferOwnership",
      "outputs": [],
      "stateMutability": "nonpayable",
      "type": "function"
    },
    {
      "inputs": [
        {
          "internalType": "uint256",
          "name": "",
          "type": "uint256"
        }
      ],
      "name": "uri",
      "outputs": [
        {
          "internalType": "string",
          "name": "",
          "type": "string"
        }
      ],
      "stateMutability": "view",
      "type": "function"
    },
    {
      "stateMutability": "payable",
      "type": "receive"
    },
    {
      "inputs": [
        {
          "internalType": "address",
          "name": "to",
          "type": "address"
        },
        {
          "internalType": "uint256",
          "name": "tokenId",
          "type": "uint256"
        },
        {
          "internalType": "uint256",
          "name": "_amount",
          "type": "uint256"
        },
        {
          "internalType": "bytes",
          "name": "_data",
          "type": "bytes"
        }
      ],
      "name": "mint",
      "outputs": [],
      "stateMutability": "nonpayable",
      "type": "function"
    },
    {
      "inputs": [
        {
          "internalType": "string",
          "name": "_title",
          "type": "string"
        },
        {
          "internalType": "string",
          "name": "_desc",
          "type": "string"
        },
        {
          "internalType": "string",
          "name": "_creator",
          "type": "string"
        },
        {
          "internalType": "uint256",
          "name": "_price",
          "type": "uint256"
        },
        {
          "internalType": "address",
          "name": "_wallet",
          "type": "address"
        }
      ],
      "name": "newPost",
      "outputs": [
        {
          "internalType": "bool",
          "name": "",
          "type": "bool"
        }
      ],
      "stateMutability": "nonpayable",
      "type": "function"
    },
    {
      "inputs": [
        {
          "internalType": "uint256",
          "name": "_id",
          "type": "uint256"
        }
      ],
      "name": "updatePosts",
      "outputs": [
        {
          "internalType": "bool",
          "name": "",
          "type": "bool"
        }
      ],
      "stateMutability": "nonpayable",
      "type": "function"
    },
    {
      "inputs": [
        {
          "internalType": "uint256",
          "name": "_cost",
          "type": "uint256"
        },
        {
          "internalType": "uint256",
          "name": "_postId",
          "type": "uint256"
        },
        {
          "internalType": "address",
          "name": "_paymentToken",
          "type": "address"
        }
      ],
      "name": "buyPost",
      "outputs": [
        {
          "internalType": "bool",
          "name": "",
          "type": "bool"
        }
      ],
      "stateMutability": "nonpayable",
      "type": "function"
    },
    {
      "inputs": [
        {
          "internalType": "uint256",
          "name": "_cost",
          "type": "uint256"
        },
        {
          "internalType": "uint256",
          "name": "_postId",
          "type": "uint256"
        }
      ],
      "name": "buyPostEth",
      "outputs": [
        {
          "internalType": "bool",
          "name": "",
          "type": "bool"
        }
      ],
      "stateMutability": "payable",
      "type": "function"
    },
    {
      "inputs": [
        {
          "internalType": "uint256",
          "name": "_tip",
          "type": "uint256"
        },
        {
          "internalType": "address",
          "name": "_paymentToken",
          "type": "address"
        },
        {
          "internalType": "uint256",
          "name": "_postId",
          "type": "uint256"
        }
      ],
      "name": "tipPoster",
      "outputs": [
        {
          "internalType": "bool",
          "name": "",
          "type": "bool"
        }
      ],
      "stateMutability": "nonpayable",
      "type": "function"
    },
    {
      "inputs": [
        {
          "internalType": "uint256",
          "name": "_tip",
          "type": "uint256"
        },
        {
          "internalType": "uint256",
          "name": "_postId",
          "type": "uint256"
        }
      ],
      "name": "tipPosterEth",
      "outputs": [
        {
          "internalType": "bool",
          "name": "",
          "type": "bool"
        }
      ],
      "stateMutability": "payable",
      "type": "function"
    },
    {
      "inputs": [
        {
          "internalType": "uint256",
          "name": "_postId",
          "type": "uint256"
        }
      ],
      "name": "likePost",
      "outputs": [
        {
          "internalType": "bool",
          "name": "",
          "type": "bool"
        }
      ],
      "stateMutability": "nonpayable",
      "type": "function"
    },
    {
      "inputs": [
        {
          "internalType": "address",
          "name": "_user",
          "type": "address"
        }
      ],
      "name": "getUserPosts",
      "outputs": [
        {
          "components": [
            {
              "internalType": "string",
              "name": "title",
              "type": "string"
            },
            {
              "internalType": "string",
              "name": "desc",
              "type": "string"
            },
            {
              "internalType": "string",
              "name": "creator",
              "type": "string"
            },
            {
              "internalType": "uint256",
              "name": "price",
              "type": "uint256"
            },
            {
              "internalType": "uint256",
              "name": "likes",
              "type": "uint256"
            },
            {
              "internalType": "address",
              "name": "wallet",
              "type": "address"
            }
          ],
          "internalType": "struct BlogGen.Post[]",
          "name": "",
          "type": "tuple[]"
        }
      ],
      "stateMutability": "view",
      "type": "function"
    },
    {
      "inputs": [
        {
          "internalType": "address",
          "name": "_user",
          "type": "address"
        }
      ],
      "name": "getCreatorPostLength",
      "outputs": [
        {
          "internalType": "uint256",
          "name": "",
          "type": "uint256"
        }
      ],
      "stateMutability": "view",
      "type": "function"
    },
    {
      "inputs": [
        {
          "internalType": "uint256",
          "name": "_id",
          "type": "uint256"
        }
      ],
      "name": "getSinglePost",
      "outputs": [
        {
          "components": [
            {
              "internalType": "string",
              "name": "title",
              "type": "string"
            },
            {
              "internalType": "string",
              "name": "desc",
              "type": "string"
            },
            {
              "internalType": "string",
              "name": "creator",
              "type": "string"
            },
            {
              "internalType": "uint256",
              "name": "price",
              "type": "uint256"
            },
            {
              "internalType": "uint256",
              "name": "likes",
              "type": "uint256"
            },
            {
              "internalType": "address",
              "name": "wallet",
              "type": "address"
            }
          ],
          "internalType": "struct BlogGen.Post",
          "name": "",
          "type": "tuple"
        }
      ],
      "stateMutability": "view",
      "type": "function"
    },
    {
      "inputs": [],
      "name": "getPosts",
      "outputs": [
        {
          "components": [
            {
              "internalType": "string",
              "name": "title",
              "type": "string"
            },
            {
              "internalType": "string",
              "name": "desc",
              "type": "string"
            },
            {
              "internalType": "string",
              "name": "creator",
              "type": "string"
            },
            {
              "internalType": "uint256",
              "name": "price",
              "type": "uint256"
            },
            {
              "internalType": "uint256",
              "name": "likes",
              "type": "uint256"
            },
            {
              "internalType": "address",
              "name": "wallet",
              "type": "address"
            }
          ],
          "internalType": "struct BlogGen.Post[]",
          "name": "",
          "type": "tuple[]"
        }
      ],
      "stateMutability": "view",
      "type": "function"
    },
    {
      "inputs": [
        {
          "internalType": "uint256",
          "name": "_index",
          "type": "uint256"
        }
      ],
      "name": "getPostById",
      "outputs": [
        {
          "components": [
            {
              "internalType": "string",
              "name": "title",
              "type": "string"
            },
            {
              "internalType": "string",
              "name": "desc",
              "type": "string"
            },
            {
              "internalType": "string",
              "name": "creator",
              "type": "string"
            },
            {
              "internalType": "uint256",
              "name": "price",
              "type": "uint256"
            },
            {
              "internalType": "uint256",
              "name": "likes",
              "type": "uint256"
            },
            {
              "internalType": "address",
              "name": "wallet",
              "type": "address"
            }
          ],
          "internalType": "struct BlogGen.Post",
          "name": "",
          "type": "tuple"
        }
      ],
      "stateMutability": "view",
      "type": "function"
    },
    {
      "inputs": [],
      "name": "getPostsLength",
      "outputs": [
        {
          "internalType": "uint256",
          "name": "",
          "type": "uint256"
        }
      ],
      "stateMutability": "view",
      "type": "function"
    },
    {
      "inputs": [],
      "name": "getMostLiked",
      "outputs": [
        {
          "components": [
            {
              "internalType": "string",
              "name": "title",
              "type": "string"
            },
            {
              "internalType": "string",
              "name": "desc",
              "type": "string"
            },
            {
              "internalType": "string",
              "name": "creator",
              "type": "string"
            },
            {
              "internalType": "uint256",
              "name": "price",
              "type": "uint256"
            },
            {
              "internalType": "uint256",
              "name": "likes",
              "type": "uint256"
            },
            {
              "internalType": "address",
              "name": "wallet",
              "type": "address"
            }
          ],
          "internalType": "struct BlogGen.Post",
          "name": "",
          "type": "tuple"
        }
      ],
      "stateMutability": "view",
      "type": "function"
    },
    {
      "inputs": [
        {
          "internalType": "address[]",
          "name": "_token",
          "type": "address[]"
        }
      ],
      "name": "creatorWithdraw",
      "outputs": [
        {
          "internalType": "bool",
          "name": "",
          "type": "bool"
        }
      ],
      "stateMutability": "nonpayable",
      "type": "function"
    },
    {
      "inputs": [],
      "name": "creatorEthWithdraw",
      "outputs": [
        {
          "internalType": "bool",
          "name": "",
          "type": "bool"
        }
      ],
      "stateMutability": "nonpayable",
      "type": "function"
    }
  ],
  "bytecode": "0x60806040523480156200001157600080fd5b506040518060600160405280602d8152602001620054a3602d913962000037816200025a565b50620000433362000273565b620000d46040518060400160405280601381526020017f446973706c617920506c616365686f6c646572000000000000000000000000008152506040518060400160405280600f81526020016e466f7220554920707572706f73657360881b8152506040518060400160405280600681526020016526bcb9b2b63360d11b81525061053933620002c560201b60201c565b50620001566040518060400160405280600d81526020016c446973706c617920506c61636560981b8152506040518060400160405280600f81526020016e466f7220554920707572706f73657360881b8152506040518060400160405280600681526020016526bcb9b2b63360d11b81525061053933620002c560201b60201c565b50620001d36040518060400160405280600881526020016702234b9b83630bc960c51b8152506040518060400160405280600f81526020016e466f7220554920707572706f73657360881b8152506040518060400160405280600681526020016526bcb9b2b63360d11b81525061053933620002c560201b60201c565b50620002536040518060400160405280600b81526020016a283630b1b2b437b63232b960a91b8152506040518060400160405280600f81526020016e466f7220554920707572706f73657360881b8152506040518060400160405280600681526020016526bcb9b2b63360d11b81525061053933620002c560201b60201c565b5062000aee565b80516200026f90600290602084019062000828565b5050565b600380546001600160a01b038381166001600160a01b0319831681179093556040519116919082907f8be0079c531659141344cd1fd0a4f28419497f9722a3daafe3b4186f6b6457e090600090a35050565b6040805160c0810182528681526020808201879052918101859052606081018490526000608082018190526001600160a01b03841660a083015260048054600181018255908252825180519294849360069093027f8a35acfbc15ff81a39ae7d344fd709f28e8600b4aa8c65c6b64bfe7fe36bd19b01926200034b928492019062000828565b50602082810151805162000366926001850192019062000828565b50604082015180516200038491600284019160209091019062000828565b5060608201516003820155608082015160048083019190915560a090920151600590910180546001600160a01b0319166001600160a01b0390921691909117905554604080516020810190915260008152620003e79085908390600190620004a4565b6001600160a01b038416600090815260066020908152604080832084845282529091208351805185936200042092849291019062000828565b5060208281015180516200043b926001850192019062000828565b50604082015180516200045991600284019160209091019062000828565b50606082015160038201556080820151600482015560a090910151600590910180546001600160a01b0319166001600160a01b03909216919091179055506001979650505050505050565b620004b284848484620004b8565b50505050565b6001600160a01b0384166200051e5760405162461bcd60e51b815260206004820152602160248201527f455243313135353a206d696e7420746f20746865207a65726f206164647265736044820152607360f81b60648201526084015b60405180910390fd5b3360006200052c85620005da565b905060006200053b85620005da565b90506000868152602081815260408083206001600160a01b038b168452909152812080548792906200056f908490620009a9565b909155505060408051878152602081018790526001600160a01b03808a1692600092918716917fc3d58168c5ae7397731d063d5bbf3d657854427343f4c083240f7aacaa2d0f62910160405180910390a4620005d1836000898989896200063c565b50505050505050565b604080516001808252818301909252606091600091906020808301908036833701905050905082816000815181106200062357634e487b7160e01b600052603260045260246000fd5b602090810291909101015292915050565b505050505050565b6200065b846001600160a01b03166200081960201b62002e3f1760201c565b15620006345760405163f23a6e6160e01b81526001600160a01b0385169063f23a6e61906200069790899089908890889088906004016200094d565b602060405180830381600087803b158015620006b257600080fd5b505af1925050508015620006e5575060408051601f3d908101601f19168201909252620006e291810190620008ce565b60015b620007a657620006f462000a46565b806308c379a014156200073557506200070c62000a5f565b8062000719575062000737565b8060405162461bcd60e51b815260040162000515919062000994565b505b60405162461bcd60e51b815260206004820152603460248201527f455243313135353a207472616e7366657220746f206e6f6e204552433131353560448201527f526563656976657220696d706c656d656e746572000000000000000000000000606482015260840162000515565b6001600160e01b0319811663f23a6e6160e01b14620005d15760405162461bcd60e51b815260206004820152602860248201527f455243313135353a204552433131353552656365697665722072656a656374656044820152676420746f6b656e7360c01b606482015260840162000515565b6001600160a01b03163b151590565b8280546200083690620009ce565b90600052602060002090601f0160209004810192826200085a5760008555620008a5565b82601f106200087557805160ff1916838001178555620008a5565b82800160010185558215620008a5579182015b82811115620008a557825182559160200191906001019062000888565b50620008b3929150620008b7565b5090565b5b80821115620008b35760008155600101620008b8565b600060208284031215620008e0578081fd5b81516001600160e01b031981168114620008f8578182fd5b9392505050565b60008151808452815b81811015620009265760208185018101518683018201520162000908565b81811115620009385782602083870101525b50601f01601f19169290920160200192915050565b6001600160a01b03868116825285166020820152604081018490526060810183905260a0608082018190526000906200098990830184620008ff565b979650505050505050565b602081526000620008f86020830184620008ff565b60008219821115620009c957634e487b7160e01b81526011600452602481fd5b500190565b600181811c90821680620009e357607f821691505b6020821081141562000a0557634e487b7160e01b600052602260045260246000fd5b50919050565b601f8201601f191681016001600160401b038111828210171562000a3f57634e487b7160e01b600052604160045260246000fd5b6040525050565b600060033d111562000a5c57600481823e5160e01c5b90565b600060443d101562000a6e5790565b6040516003193d81016004833e81513d6001600160401b03808311602484018310171562000a9e57505050505090565b828501915081518181111562000ab75750505050505090565b843d870101602082850101111562000ad25750505050505090565b62000ae36020828601018762000a0b565b509095945050505050565b6149a58062000afe6000396000f3fe6080604052600436106101ad5760003560e01c8063731133e9116100eb578063d80a42201161008f578063f242432a11610061578063f242432a14610551578063f2fde38b14610571578063fdfa0c9614610591578063ffc53be6146105a457005b8063d80a4220146104a6578063de83f9e0146104c6578063e289008e146104e6578063e985e9c5146104fb57005b8063a00e0501116100c8578063a00e050114610426578063a22cb46514610446578063b86e6f0914610466578063c10539b51461048657005b8063731133e9146103b15780638da5cb5b146103d15780639a2194a91461040657005b806341f3004a1161015257806364e958951161012f57806364e958951461032f5780636ca347841461035c578063715018a61461037c578063725009d31461039157005b806341f3004a146102cd5780634793e594146102ef5780634e1273f41461030257005b80630e89341c1161018b5780630e89341c1461024b578063259e697a146102785780632eb2c2d614610298578063318bc953146102b857005b8062fdd58e146101b657806301ffc9a7146101e95780630b1e7f831461021957005b366101b457005b005b3480156101c257600080fd5b506101d66101d136600461406f565b6105b9565b6040519081526020015b60405180910390f35b3480156101f557600080fd5b5061020961020436600461424e565b610699565b60405190151581526020016101e0565b34801561022557600080fd5b50610239610234366004614325565b61077c565b6040516101e096959493929190614680565b34801561025757600080fd5b5061026b610266366004614325565b610978565b6040516101e0919061466d565b34801561028457600080fd5b50610209610293366004614286565b610a0c565b3480156102a457600080fd5b506101b46102b3366004613f30565b610c41565b3480156102c457600080fd5b50610209610d0a565b3480156102d957600080fd5b506102e2610d6a565b6040516101e091906145ad565b6102096102fd366004614371565b610fb9565b34801561030e57600080fd5b5061032261031d366004614167565b611180565b6040516101e0919061462c565b34801561033b57600080fd5b5061034f61034a366004614325565b611374565b6040516101e091906146ee565b34801561036857600080fd5b50610209610377366004614392565b611607565b34801561038857600080fd5b506101b4611936565b34801561039d57600080fd5b506102096103ac366004614325565b61194a565b3480156103bd57600080fd5b506101b46103cc366004614098565b611ada565b3480156103dd57600080fd5b5060035460405173ffffffffffffffffffffffffffffffffffffffff90911681526020016101e0565b34801561041257600080fd5b506102e2610421366004613ee4565b611aec565b34801561043257600080fd5b5061020961044136600461433d565b611d5e565b34801561045257600080fd5b506101b4610461366004614039565b611f67565b34801561047257600080fd5b5061034f610481366004614325565b611f76565b34801561049257600080fd5b506101d66104a1366004613ee4565b61220c565b3480156104b257600080fd5b506102096104c1366004614325565b612287565b3480156104d257600080fd5b506102096104e13660046140f7565b6125a3565b3480156104f257600080fd5b506004546101d6565b34801561050757600080fd5b50610209610516366004613efe565b73ffffffffffffffffffffffffffffffffffffffff918216600090815260016020908152604080832093909416825291909152205460ff1690565b34801561055d57600080fd5b506101b461056c366004613fd6565b612901565b34801561057d57600080fd5b506101b461058c366004613ee4565b6129c3565b61020961059f366004614371565b612a7a565b3480156105b057600080fd5b5061034f612b23565b600073ffffffffffffffffffffffffffffffffffffffff8316610663576040517f08c379a000000000000000000000000000000000000000000000000000000000815260206004820152602a60248201527f455243313135353a2061646472657373207a65726f206973206e6f742061207660448201527f616c6964206f776e65720000000000000000000000000000000000000000000060648201526084015b60405180910390fd5b5060008181526020818152604080832073ffffffffffffffffffffffffffffffffffffffff861684529091529020545b92915050565b60007fffffffff0000000000000000000000000000000000000000000000000000000082167fd9b67a2600000000000000000000000000000000000000000000000000000000148061072c57507fffffffff0000000000000000000000000000000000000000000000000000000082167f0e89341c00000000000000000000000000000000000000000000000000000000145b8061069357507f01ffc9a7000000000000000000000000000000000000000000000000000000007fffffffff00000000000000000000000000000000000000000000000000000000831614610693565b6004818154811061078c57600080fd5b90600052602060002090600602016000915090508060000180546107af9061473d565b80601f01602080910402602001604051908101604052809291908181526020018280546107db9061473d565b80156108285780601f106107fd57610100808354040283529160200191610828565b820191906000526020600020905b81548152906001019060200180831161080b57829003601f168201915b50505050509080600101805461083d9061473d565b80601f01602080910402602001604051908101604052809291908181526020018280546108699061473d565b80156108b65780601f1061088b576101008083540402835291602001916108b6565b820191906000526020600020905b81548152906001019060200180831161089957829003601f168201915b5050505050908060020180546108cb9061473d565b80601f01602080910402602001604051908101604052809291908181526020018280546108f79061473d565b80156109445780601f1061091957610100808354040283529160200191610944565b820191906000526020600020905b81548152906001019060200180831161092757829003601f168201915b50505050600383015460048401546005909401549293909290915073ffffffffffffffffffffffffffffffffffffffff1686565b6060600280546109879061473d565b80601f01602080910402602001604051908101604052809291908181526020018280546109b39061473d565b8015610a005780601f106109d557610100808354040283529160200191610a00565b820191906000526020600020905b8154815290600101906020018083116109e357829003601f168201915b50505050509050919050565b6040805160c08101825286815260208082018790529181018590526060810184905260006080820181905273ffffffffffffffffffffffffffffffffffffffff841660a083015260048054600181018255908252825180519294849360069093027f8a35acfbc15ff81a39ae7d344fd709f28e8600b4aa8c65c6b64bfe7fe36bd19b0192610a9d9284920190613ca6565b506020828101518051610ab69260018501920190613ca6565b5060408201518051610ad2916002840191602090910190613ca6565b5060608201516003820155608082015160048083019190915560a090920151600590910180547fffffffffffffffffffffffff00000000000000000000000000000000000000001673ffffffffffffffffffffffffffffffffffffffff90921691909117905554604080516020810190915260008152610b589085908390600190611ada565b73ffffffffffffffffffffffffffffffffffffffff841660009081526006602090815260408083208484528252909120835180518593610b9c928492910190613ca6565b506020828101518051610bb59260018501920190613ca6565b5060408201518051610bd1916002840191602090910190613ca6565b50606082015160038201556080820151600482015560a090910151600590910180547fffffffffffffffffffffffff00000000000000000000000000000000000000001673ffffffffffffffffffffffffffffffffffffffff909216919091179055506001979650505050505050565b73ffffffffffffffffffffffffffffffffffffffff8516331480610c6a5750610c6a8533610516565b610cf6576040517f08c379a000000000000000000000000000000000000000000000000000000000815260206004820152602f60248201527f455243313135353a2063616c6c6572206973206e6f7420746f6b656e206f776e60448201527f6572206e6f7220617070726f7665640000000000000000000000000000000000606482015260840161065a565b610d038585858585612e5b565b5050505050565b3360009081526008602052604081205480610d2457600080fd5b3360008181526008602052604080822082905551829184156108fc02918591818181858888f19350505050158015610d60573d6000803e3d6000fd5b5060019250505090565b60606004805480602002602001604051908101604052809291908181526020016000905b82821015610fb057838290600052602060002090600602016040518060c0016040529081600082018054610dc19061473d565b80601f0160208091040260200160405190810160405280929190818152602001828054610ded9061473d565b8015610e3a5780601f10610e0f57610100808354040283529160200191610e3a565b820191906000526020600020905b815481529060010190602001808311610e1d57829003601f168201915b50505050508152602001600182018054610e539061473d565b80601f0160208091040260200160405190810160405280929190818152602001828054610e7f9061473d565b8015610ecc5780601f10610ea157610100808354040283529160200191610ecc565b820191906000526020600020905b815481529060010190602001808311610eaf57829003601f168201915b50505050508152602001600282018054610ee59061473d565b80601f0160208091040260200160405190810160405280929190818152602001828054610f119061473d565b8015610f5e5780601f10610f3357610100808354040283529160200191610f5e565b820191906000526020600020905b815481529060010190602001808311610f4157829003601f168201915b505050918352505060038201546020808301919091526004830154604083015260059092015473ffffffffffffffffffffffffffffffffffffffff166060909101529082526001929092019101610d8e565b50505050905090565b600082341015610fc857600080fd5b60045480831080611008576040517f9b846d020000000000000000000000000000000000000000000000000000000081526004810185905260240161065a565b600061101385611f76565b905080606001513410156110625760608101516040517fe77e6044000000000000000000000000000000000000000000000000000000008152346004820152602481019190915260440161065a565b60a081015173ffffffffffffffffffffffffffffffffffffffff166000908152600860205260408120805434929061109b908490614725565b90915550503360009081526009602090815260408220805460018101825590835291819020835180518594600602909201926110dc92849290910190613ca6565b5060208281015180516110f59260018501920190613ca6565b5060408201518051611111916002840191602090910190613ca6565b50606082015160038201556080820151600482015560a090910151600590910180547fffffffffffffffffffffffff00000000000000000000000000000000000000001673ffffffffffffffffffffffffffffffffffffffff9092169190911790555060019250610693915050565b60608151835114611213576040517f08c379a000000000000000000000000000000000000000000000000000000000815260206004820152602960248201527f455243313135353a206163636f756e747320616e6420696473206c656e67746860448201527f206d69736d617463680000000000000000000000000000000000000000000000606482015260840161065a565b6000835167ffffffffffffffff811115611256577f4e487b7100000000000000000000000000000000000000000000000000000000600052604160045260246000fd5b60405190808252806020026020018201604052801561127f578160200160208202803683370190505b50905060005b845181101561136c576113188582815181106112ca577f4e487b7100000000000000000000000000000000000000000000000000000000600052603260045260246000fd5b602002602001015185838151811061130b577f4e487b7100000000000000000000000000000000000000000000000000000000600052603260045260246000fd5b60200260200101516105b9565b828281518110611351577f4e487b7100000000000000000000000000000000000000000000000000000000600052603260045260246000fd5b6020908102919091010152611365816147dc565b9050611285565b509392505050565b6113c36040518060c001604052806060815260200160608152602001606081526020016000815260200160008152602001600073ffffffffffffffffffffffffffffffffffffffff1681525090565b600482815481106113fd577f4e487b7100000000000000000000000000000000000000000000000000000000600052603260045260246000fd5b90600052602060002090600602016040518060c00160405290816000820180546114269061473d565b80601f01602080910402602001604051908101604052809291908181526020018280546114529061473d565b801561149f5780601f106114745761010080835404028352916020019161149f565b820191906000526020600020905b81548152906001019060200180831161148257829003601f168201915b505050505081526020016001820180546114b89061473d565b80601f01602080910402602001604051908101604052809291908181526020018280546114e49061473d565b80156115315780601f1061150657610100808354040283529160200191611531565b820191906000526020600020905b81548152906001019060200180831161151457829003601f168201915b5050505050815260200160028201805461154a9061473d565b80601f01602080910402602001604051908101604052809291908181526020018280546115769061473d565b80156115c35780601f10611598576101008083540402835291602001916115c3565b820191906000526020600020905b8154815290600101906020018083116115a657829003601f168201915b5050509183525050600382015460208201526004820154604082015260059091015473ffffffffffffffffffffffffffffffffffffffff1660609091015292915050565b6004546000908084108061164a576040517f9b846d020000000000000000000000000000000000000000000000000000000081526004810186905260240161065a565b600061165586611f76565b905080606001518710156116a55760608101516040517fe77e604400000000000000000000000000000000000000000000000000000000815261065a918991600401918252602082015260400190565b60a081015173ffffffffffffffffffffffffffffffffffffffff9081166000908152600560209081526040808320938916835292905290812080548992906116ee908490614725565b90915550506040517f095ea7b30000000000000000000000000000000000000000000000000000000081523060048201526024810188905273ffffffffffffffffffffffffffffffffffffffff86169063095ea7b390604401602060405180830381600087803b15801561176157600080fd5b505af1158015611775573d6000803e3d6000fd5b505050506040513d601f19601f820116820180604052508101906117999190614232565b5060a08101516040517f23b872dd00000000000000000000000000000000000000000000000000000000815233600482015273ffffffffffffffffffffffffffffffffffffffff918216602482015260448101899052908616906323b872dd90606401602060405180830381600087803b15801561181657600080fd5b505af115801561182a573d6000803e3d6000fd5b505050506040513d601f19601f8201168201806040525081019061184e9190614232565b5033600090815260096020908152604082208054600181018255908352918190208351805185946006029092019261188b92849290910190613ca6565b5060208281015180516118a49260018501920190613ca6565b50604082015180516118c0916002840191602090910190613ca6565b50606082015160038201556080820151600482015560a090910151600590910180547fffffffffffffffffffffffff00000000000000000000000000000000000000001673ffffffffffffffffffffffffffffffffffffffff909216919091179055506001925061192f915050565b9392505050565b61193e6131e3565b6119486000613264565b565b6004546000908083108061198d576040517f9b846d020000000000000000000000000000000000000000000000000000000081526004810185905260240161065a565b6000600485815481106119c9577f4e487b7100000000000000000000000000000000000000000000000000000000600052603260045260246000fd5b90600052602060002090600602019050806004015460016119ea9190614725565b6004820155336000908152600a60209081526040822080546001810182559083529120825483926006029091019081908390611a259061473d565b611a30929190613d2a565b506001820181600101908054611a459061473d565b611a50929190613d2a565b506002820181600201908054611a659061473d565b611a70929190613d2a565b506003828101549082015560048083015490820155600591820154910180547fffffffffffffffffffffffff00000000000000000000000000000000000000001673ffffffffffffffffffffffffffffffffffffffff909216919091179055506001949350505050565b611ae6848484846132db565b50505050565b73ffffffffffffffffffffffffffffffffffffffff81166000908152600960209081526040808320805482518185028101850190935280835260609492939192909184015b82821015611d5357838290600052602060002090600602016040518060c0016040529081600082018054611b649061473d565b80601f0160208091040260200160405190810160405280929190818152602001828054611b909061473d565b8015611bdd5780601f10611bb257610100808354040283529160200191611bdd565b820191906000526020600020905b815481529060010190602001808311611bc057829003601f168201915b50505050508152602001600182018054611bf69061473d565b80601f0160208091040260200160405190810160405280929190818152602001828054611c229061473d565b8015611c6f5780601f10611c4457610100808354040283529160200191611c6f565b820191906000526020600020905b815481529060010190602001808311611c5257829003601f168201915b50505050508152602001600282018054611c889061473d565b80601f0160208091040260200160405190810160405280929190818152602001828054611cb49061473d565b8015611d015780601f10611cd657610100808354040283529160200191611d01565b820191906000526020600020905b815481529060010190602001808311611ce457829003601f168201915b505050918352505060038201546020808301919091526004830154604083015260059092015473ffffffffffffffffffffffffffffffffffffffff166060909101529082526001929092019101611b31565b505050509050919050565b60045460009080831080611da1576040517f9b846d020000000000000000000000000000000000000000000000000000000081526004810185905260240161065a565b6000611dac85611f76565b60a081015173ffffffffffffffffffffffffffffffffffffffff9081166000908152600560209081526040808320938b16835292905290812080549293508992909190611dfa908490614725565b90915550506040517f095ea7b30000000000000000000000000000000000000000000000000000000081523060048201526024810188905273ffffffffffffffffffffffffffffffffffffffff87169063095ea7b390604401602060405180830381600087803b158015611e6d57600080fd5b505af1158015611e81573d6000803e3d6000fd5b505050506040513d601f19601f82011682018060405250810190611ea59190614232565b5060a08101516040517f23b872dd00000000000000000000000000000000000000000000000000000000815233600482015273ffffffffffffffffffffffffffffffffffffffff918216602482015260448101899052908716906323b872dd90606401602060405180830381600087803b158015611f2257600080fd5b505af1158015611f36573d6000803e3d6000fd5b505050506040513d601f19601f82011682018060405250810190611f5a9190614232565b506001935050505061192f565b611f7233838361344c565b5050565b611fc56040518060c001604052806060815260200160608152602001606081526020016000815260200160008152602001600073ffffffffffffffffffffffffffffffffffffffff1681525090565b600060048381548110612001577f4e487b7100000000000000000000000000000000000000000000000000000000600052603260045260246000fd5b90600052602060002090600602016040518060c001604052908160008201805461202a9061473d565b80601f01602080910402602001604051908101604052809291908181526020018280546120569061473d565b80156120a35780601f10612078576101008083540402835291602001916120a3565b820191906000526020600020905b81548152906001019060200180831161208657829003601f168201915b505050505081526020016001820180546120bc9061473d565b80601f01602080910402602001604051908101604052809291908181526020018280546120e89061473d565b80156121355780601f1061210a57610100808354040283529160200191612135565b820191906000526020600020905b81548152906001019060200180831161211857829003601f168201915b5050505050815260200160028201805461214e9061473d565b80601f016020809104026020016040519081016040528092919081815260200182805461217a9061473d565b80156121c75780601f1061219c576101008083540402835291602001916121c7565b820191906000526020600020905b8154815290600101906020018083116121aa57829003601f168201915b5050509183525050600382015460208201526004820154604082015260059091015473ffffffffffffffffffffffffffffffffffffffff166060909101529392505050565b60008060005b6004548110156122805773ffffffffffffffffffffffffffffffffffffffff8085166000818152600660209081526040808320868452909152902060058101549092169081141561226b5783612267816147dc565b9450505b50508080612278906147dc565b915050612212565b5092915050565b600080600483815481106122c4577f4e487b7100000000000000000000000000000000000000000000000000000000600052603260045260246000fd5b90600052602060002090600602016040518060c00160405290816000820180546122ed9061473d565b80601f01602080910402602001604051908101604052809291908181526020018280546123199061473d565b80156123665780601f1061233b57610100808354040283529160200191612366565b820191906000526020600020905b81548152906001019060200180831161234957829003601f168201915b5050505050815260200160018201805461237f9061473d565b80601f01602080910402602001604051908101604052809291908181526020018280546123ab9061473d565b80156123f85780601f106123cd576101008083540402835291602001916123f8565b820191906000526020600020905b8154815290600101906020018083116123db57829003601f168201915b505050505081526020016002820180546124119061473d565b80601f016020809104026020016040519081016040528092919081815260200182805461243d9061473d565b801561248a5780601f1061245f5761010080835404028352916020019161248a565b820191906000526020600020905b81548152906001019060200180831161246d57829003601f168201915b50505091835250506003820154602080830191909152600483015460408084019190915260059093015473ffffffffffffffffffffffffffffffffffffffff1660609092019190915233600090815260068252828120878252825291909120825180519394508493919261250392849290910190613ca6565b50602082810151805161251c9260018501920190613ca6565b5060408201518051612538916002840191602090910190613ca6565b50606082015160038201556080820151600482015560a090910151600590910180547fffffffffffffffffffffffff00000000000000000000000000000000000000001673ffffffffffffffffffffffffffffffffffffffff90921691909117905550600192915050565b600060018210156127455733600090815260056020526040812081858582816125f5577f4e487b7100000000000000000000000000000000000000000000000000000000600052603260045260246000fd5b905060200201602081019061260a9190613ee4565b73ffffffffffffffffffffffffffffffffffffffff1673ffffffffffffffffffffffffffffffffffffffff16815260200190815260200160002054905083836000818110612681577f4e487b7100000000000000000000000000000000000000000000000000000000600052603260045260246000fd5b90506020020160208101906126969190613ee4565b6040517fa9059cbb0000000000000000000000000000000000000000000000000000000081523360048201526024810183905273ffffffffffffffffffffffffffffffffffffffff919091169063a9059cbb90604401602060405180830381600087803b15801561270657600080fd5b505af115801561271a573d6000803e3d6000fd5b505050506040513d601f19601f8201168201806040525081019061273e9190614232565b50506128f8565b60005b828110156128f65733600090815260056020526040812081868685818110612799577f4e487b7100000000000000000000000000000000000000000000000000000000600052603260045260246000fd5b90506020020160208101906127ae9190613ee4565b73ffffffffffffffffffffffffffffffffffffffff1673ffffffffffffffffffffffffffffffffffffffff168152602001908152602001600020549050848483818110612824577f4e487b7100000000000000000000000000000000000000000000000000000000600052603260045260246000fd5b90506020020160208101906128399190613ee4565b6040517fa9059cbb0000000000000000000000000000000000000000000000000000000081523360048201526024810183905273ffffffffffffffffffffffffffffffffffffffff919091169063a9059cbb90604401602060405180830381600087803b1580156128a957600080fd5b505af11580156128bd573d6000803e3d6000fd5b505050506040513d601f19601f820116820180604052508101906128e19190614232565b505080806128ee906147dc565b915050612748565b505b50600192915050565b73ffffffffffffffffffffffffffffffffffffffff851633148061292a575061292a8533610516565b6129b6576040517f08c379a000000000000000000000000000000000000000000000000000000000815260206004820152602f60248201527f455243313135353a2063616c6c6572206973206e6f7420746f6b656e206f776e60448201527f6572206e6f7220617070726f7665640000000000000000000000000000000000606482015260840161065a565b610d0385858585856135a0565b6129cb6131e3565b73ffffffffffffffffffffffffffffffffffffffff8116612a6e576040517f08c379a000000000000000000000000000000000000000000000000000000000815260206004820152602660248201527f4f776e61626c653a206e6577206f776e657220697320746865207a65726f206160448201527f6464726573730000000000000000000000000000000000000000000000000000606482015260840161065a565b612a7781613264565b50565b6000803411612a8857600080fd5b60045480831080612ac8576040517f9b846d020000000000000000000000000000000000000000000000000000000081526004810185905260240161065a565b6000612ad385611f76565b60a081015173ffffffffffffffffffffffffffffffffffffffff16600090815260086020526040812080549293503492909190612b11908490614725565b90915550600194506106939350505050565b612b726040518060c001604052806060815260200160608152602001606081526020016000815260200160008152602001600073ffffffffffffffffffffffffffffffffffffffff1681525090565b6000612bc36040518060c001604052806060815260200160608152602001606081526020016000815260200160008152602001600073ffffffffffffffffffffffffffffffffffffffff1681525090565b60005b60045481101561228057600060048281548110612c0c577f4e487b7100000000000000000000000000000000000000000000000000000000600052603260045260246000fd5b9060005260206000209060060201905060008160040154905084811115612e2a57809450816040518060c0016040529081600082018054612c4c9061473d565b80601f0160208091040260200160405190810160405280929190818152602001828054612c789061473d565b8015612cc55780601f10612c9a57610100808354040283529160200191612cc5565b820191906000526020600020905b815481529060010190602001808311612ca857829003601f168201915b50505050508152602001600182018054612cde9061473d565b80601f0160208091040260200160405190810160405280929190818152602001828054612d0a9061473d565b8015612d575780601f10612d2c57610100808354040283529160200191612d57565b820191906000526020600020905b815481529060010190602001808311612d3a57829003601f168201915b50505050508152602001600282018054612d709061473d565b80601f0160208091040260200160405190810160405280929190818152602001828054612d9c9061473d565b8015612de95780601f10612dbe57610100808354040283529160200191612de9565b820191906000526020600020905b815481529060010190602001808311612dcc57829003601f168201915b5050509183525050600382015460208201526004820154604082015260059091015473ffffffffffffffffffffffffffffffffffffffff1660609091015293505b50508080612e37906147dc565b915050612bc6565b73ffffffffffffffffffffffffffffffffffffffff163b151590565b8151835114612eec576040517f08c379a000000000000000000000000000000000000000000000000000000000815260206004820152602860248201527f455243313135353a2069647320616e6420616d6f756e7473206c656e6774682060448201527f6d69736d61746368000000000000000000000000000000000000000000000000606482015260840161065a565b73ffffffffffffffffffffffffffffffffffffffff8416612f8f576040517f08c379a000000000000000000000000000000000000000000000000000000000815260206004820152602560248201527f455243313135353a207472616e7366657220746f20746865207a65726f20616460448201527f6472657373000000000000000000000000000000000000000000000000000000606482015260840161065a565b3360005b845181101561314e576000858281518110612fd7577f4e487b7100000000000000000000000000000000000000000000000000000000600052603260045260246000fd5b60200260200101519050600085838151811061301c577f4e487b7100000000000000000000000000000000000000000000000000000000600052603260045260246000fd5b6020908102919091018101516000848152808352604080822073ffffffffffffffffffffffffffffffffffffffff8e1683529093529190912054909150818110156130e9576040517f08c379a000000000000000000000000000000000000000000000000000000000815260206004820152602a60248201527f455243313135353a20696e73756666696369656e742062616c616e636520666f60448201527f72207472616e7366657200000000000000000000000000000000000000000000606482015260840161065a565b60008381526020818152604080832073ffffffffffffffffffffffffffffffffffffffff8e8116855292528083208585039055908b16825281208054849290613133908490614725565b9250508190555050505080613147906147dc565b9050612f93565b508473ffffffffffffffffffffffffffffffffffffffff168673ffffffffffffffffffffffffffffffffffffffff168273ffffffffffffffffffffffffffffffffffffffff167f4a39dc06d4c0dbc64b70af90fd698a233a518aa5d07e595d983b8c0526c8f7fb87876040516131c592919061463f565b60405180910390a46131db8187878787876137de565b505050505050565b60035473ffffffffffffffffffffffffffffffffffffffff163314611948576040517f08c379a000000000000000000000000000000000000000000000000000000000815260206004820181905260248201527f4f776e61626c653a2063616c6c6572206973206e6f7420746865206f776e6572604482015260640161065a565b6003805473ffffffffffffffffffffffffffffffffffffffff8381167fffffffffffffffffffffffff0000000000000000000000000000000000000000831681179093556040519116919082907f8be0079c531659141344cd1fd0a4f28419497f9722a3daafe3b4186f6b6457e090600090a35050565b73ffffffffffffffffffffffffffffffffffffffff841661337e576040517f08c379a000000000000000000000000000000000000000000000000000000000815260206004820152602160248201527f455243313135353a206d696e7420746f20746865207a65726f2061646472657360448201527f7300000000000000000000000000000000000000000000000000000000000000606482015260840161065a565b33600061338a85613a78565b9050600061339785613a78565b905060008681526020818152604080832073ffffffffffffffffffffffffffffffffffffffff8b168452909152812080548792906133d6908490614725565b9091555050604080518781526020810187905273ffffffffffffffffffffffffffffffffffffffff808a1692600092918716917fc3d58168c5ae7397731d063d5bbf3d657854427343f4c083240f7aacaa2d0f62910160405180910390a461344383600089898989613aea565b50505050505050565b8173ffffffffffffffffffffffffffffffffffffffff168373ffffffffffffffffffffffffffffffffffffffff161415613508576040517f08c379a000000000000000000000000000000000000000000000000000000000815260206004820152602960248201527f455243313135353a2073657474696e6720617070726f76616c2073746174757360448201527f20666f722073656c660000000000000000000000000000000000000000000000606482015260840161065a565b73ffffffffffffffffffffffffffffffffffffffff83811660008181526001602090815260408083209487168084529482529182902080547fffffffffffffffffffffffffffffffffffffffffffffffffffffffffffffff001686151590811790915591519182527f17307eab39ab6107e8899845ad3d59bd9653f200f220920489ca2b5937696c31910160405180910390a3505050565b73ffffffffffffffffffffffffffffffffffffffff8416613643576040517f08c379a000000000000000000000000000000000000000000000000000000000815260206004820152602560248201527f455243313135353a207472616e7366657220746f20746865207a65726f20616460448201527f6472657373000000000000000000000000000000000000000000000000000000606482015260840161065a565b33600061364f85613a78565b9050600061365c85613a78565b905060008681526020818152604080832073ffffffffffffffffffffffffffffffffffffffff8c1684529091529020548581101561371c576040517f08c379a000000000000000000000000000000000000000000000000000000000815260206004820152602a60248201527f455243313135353a20696e73756666696369656e742062616c616e636520666f60448201527f72207472616e7366657200000000000000000000000000000000000000000000606482015260840161065a565b60008781526020818152604080832073ffffffffffffffffffffffffffffffffffffffff8d8116855292528083208985039055908a16825281208054889290613766908490614725565b9091555050604080518881526020810188905273ffffffffffffffffffffffffffffffffffffffff808b16928c821692918816917fc3d58168c5ae7397731d063d5bbf3d657854427343f4c083240f7aacaa2d0f62910160405180910390a46137d3848a8a8a8a8a613aea565b505050505050505050565b73ffffffffffffffffffffffffffffffffffffffff84163b156131db576040517fbc197c8100000000000000000000000000000000000000000000000000000000815273ffffffffffffffffffffffffffffffffffffffff85169063bc197c819061385590899089908890889088906004016144f2565b602060405180830381600087803b15801561386f57600080fd5b505af19250505080156138bd575060408051601f3d9081017fffffffffffffffffffffffffffffffffffffffffffffffffffffffffffffffe01682019092526138ba9181019061426a565b60015b6139a7576138c9614873565b806308c379a0141561391d57506138de61488b565b806138e9575061391f565b806040517f08c379a000000000000000000000000000000000000000000000000000000000815260040161065a919061466d565b505b6040517f08c379a000000000000000000000000000000000000000000000000000000000815260206004820152603460248201527f455243313135353a207472616e7366657220746f206e6f6e204552433131353560448201527f526563656976657220696d706c656d656e746572000000000000000000000000606482015260840161065a565b7fffffffff0000000000000000000000000000000000000000000000000000000081167fbc197c810000000000000000000000000000000000000000000000000000000014613443576040517f08c379a000000000000000000000000000000000000000000000000000000000815260206004820152602860248201527f455243313135353a204552433131353552656365697665722072656a6563746560448201527f6420746f6b656e73000000000000000000000000000000000000000000000000606482015260840161065a565b60408051600180825281830190925260609160009190602080830190803683370190505090508281600081518110613ad9577f4e487b7100000000000000000000000000000000000000000000000000000000600052603260045260246000fd5b602090810291909101015292915050565b73ffffffffffffffffffffffffffffffffffffffff84163b156131db576040517ff23a6e6100000000000000000000000000000000000000000000000000000000815273ffffffffffffffffffffffffffffffffffffffff85169063f23a6e6190613b61908990899088908890889060040161455d565b602060405180830381600087803b158015613b7b57600080fd5b505af1925050508015613bc9575060408051601f3d9081017fffffffffffffffffffffffffffffffffffffffffffffffffffffffffffffffe0168201909252613bc69181019061426a565b60015b613bd5576138c9614873565b7fffffffff0000000000000000000000000000000000000000000000000000000081167ff23a6e610000000000000000000000000000000000000000000000000000000014613443576040517f08c379a000000000000000000000000000000000000000000000000000000000815260206004820152602860248201527f455243313135353a204552433131353552656365697665722072656a6563746560448201527f6420746f6b656e73000000000000000000000000000000000000000000000000606482015260840161065a565b828054613cb29061473d565b90600052602060002090601f016020900481019282613cd45760008555613d1a565b82601f10613ced57805160ff1916838001178555613d1a565b82800160010185558215613d1a579182015b82811115613d1a578251825591602001919060010190613cff565b50613d26929150613da5565b5090565b828054613d369061473d565b90600052602060002090601f016020900481019282613d585760008555613d1a565b82601f10613d695780548555613d1a565b82800160010185558215613d1a57600052602060002091601f016020900482015b82811115613d1a578254825591600101919060010190613d8a565b5b80821115613d265760008155600101613da6565b803573ffffffffffffffffffffffffffffffffffffffff81168114613dde57600080fd5b919050565b600082601f830112613df3578081fd5b81356020613e0082614701565b604051613e0d8282614791565b8381528281019150858301600585901b87018401881015613e2c578586fd5b855b85811015613e4a57813584529284019290840190600101613e2e565b5090979650505050505050565b600082601f830112613e67578081fd5b813567ffffffffffffffff811115613e8157613e81614844565b604051613eb660207fffffffffffffffffffffffffffffffffffffffffffffffffffffffffffffffe0601f8501160182614791565b818152846020838601011115613eca578283fd5b816020850160208301379081016020019190915292915050565b600060208284031215613ef5578081fd5b61192f82613dba565b60008060408385031215613f10578081fd5b613f1983613dba565b9150613f2760208401613dba565b90509250929050565b600080600080600060a08688031215613f47578081fd5b613f5086613dba565b9450613f5e60208701613dba565b9350604086013567ffffffffffffffff80821115613f7a578283fd5b613f8689838a01613de3565b94506060880135915080821115613f9b578283fd5b613fa789838a01613de3565b93506080880135915080821115613fbc578283fd5b50613fc988828901613e57565b9150509295509295909350565b600080600080600060a08688031215613fed578081fd5b613ff686613dba565b945061400460208701613dba565b93506040860135925060608601359150608086013567ffffffffffffffff81111561402d578182fd5b613fc988828901613e57565b6000806040838503121561404b578182fd5b61405483613dba565b9150602083013561406481614933565b809150509250929050565b60008060408385031215614081578182fd5b61408a83613dba565b946020939093013593505050565b600080600080608085870312156140ad578384fd5b6140b685613dba565b93506020850135925060408501359150606085013567ffffffffffffffff8111156140df578182fd5b6140eb87828801613e57565b91505092959194509250565b60008060208385031215614109578182fd5b823567ffffffffffffffff80821115614120578384fd5b818501915085601f830112614133578384fd5b813581811115614141578485fd5b8660208260051b8501011115614155578485fd5b60209290920196919550909350505050565b60008060408385031215614179578182fd5b823567ffffffffffffffff80821115614190578384fd5b818501915085601f8301126141a3578384fd5b813560206141b082614701565b6040516141bd8282614791565b8381528281019150858301600585901b870184018b10156141dc578889fd5b8896505b84871015614205576141f181613dba565b8352600196909601959183019183016141e0565b509650508601359250508082111561421b578283fd5b5061422885828601613de3565b9150509250929050565b600060208284031215614243578081fd5b815161192f81614933565b60006020828403121561425f578081fd5b813561192f81614941565b60006020828403121561427b578081fd5b815161192f81614941565b600080600080600060a0868803121561429d578283fd5b853567ffffffffffffffff808211156142b4578485fd5b6142c089838a01613e57565b965060208801359150808211156142d5578485fd5b6142e189838a01613e57565b955060408801359150808211156142f6578485fd5b5061430388828901613e57565b9350506060860135915061431960808701613dba565b90509295509295909350565b600060208284031215614336578081fd5b5035919050565b600080600060608486031215614351578081fd5b8335925061436160208501613dba565b9150604084013590509250925092565b60008060408385031215614383578182fd5b50508035926020909101359150565b6000806000606084860312156143a6578081fd5b83359250602084013591506143bd60408501613dba565b90509250925092565b6000815180845260208085019450808401835b838110156143f5578151875295820195908201906001016143d9565b509495945050505050565b60008151808452815b8181101561442557602081850181015186830182015201614409565b818111156144365782602083870101525b50601f017fffffffffffffffffffffffffffffffffffffffffffffffffffffffffffffffe0169290920160200192915050565b6000815160c0845261447e60c0850182614400565b9050602083015184820360208601526144978282614400565b915050604083015184820360408601526144b18282614400565b915050606083015160608501526080830151608085015273ffffffffffffffffffffffffffffffffffffffff60a08401511660a08501528091505092915050565b600073ffffffffffffffffffffffffffffffffffffffff808816835280871660208401525060a0604083015261452b60a08301866143c6565b828103606084015261453d81866143c6565b905082810360808401526145518185614400565b98975050505050505050565b600073ffffffffffffffffffffffffffffffffffffffff808816835280871660208401525084604083015283606083015260a060808301526145a260a0830184614400565b979650505050505050565b6000602080830181845280855180835260408601915060408160051b8701019250838701855b8281101561461f577fffffffffffffffffffffffffffffffffffffffffffffffffffffffffffffffc088860301845261460d858351614469565b945092850192908501906001016145d3565b5092979650505050505050565b60208152600061192f60208301846143c6565b60408152600061465260408301856143c6565b828103602084015261466481856143c6565b95945050505050565b60208152600061192f6020830184614400565b60c08152600061469360c0830189614400565b82810360208401526146a58189614400565b905082810360408401526146b98188614400565b60608401969096525050608081019290925273ffffffffffffffffffffffffffffffffffffffff1660a0909101529392505050565b60208152600061192f6020830184614469565b600067ffffffffffffffff82111561471b5761471b614844565b5060051b60200190565b6000821982111561473857614738614815565b500190565b600181811c9082168061475157607f821691505b6020821081141561478b577f4e487b7100000000000000000000000000000000000000000000000000000000600052602260045260246000fd5b50919050565b7fffffffffffffffffffffffffffffffffffffffffffffffffffffffffffffffe0601f830116810181811067ffffffffffffffff821117156147d5576147d5614844565b6040525050565b60007fffffffffffffffffffffffffffffffffffffffffffffffffffffffffffffffff82141561480e5761480e614815565b5060010190565b7f4e487b7100000000000000000000000000000000000000000000000000000000600052601160045260246000fd5b7f4e487b7100000000000000000000000000000000000000000000000000000000600052604160045260246000fd5b600060033d111561488857600481823e5160e01c5b90565b600060443d10156148995790565b6040517ffffffffffffffffffffffffffffffffffffffffffffffffffffffffffffffffc803d016004833e81513d67ffffffffffffffff81602484011181841117156148e757505050505090565b82850191508151818111156148ff5750505050505090565b843d87010160208285010111156149195750505050505090565b61492860208286010187614791565b509095945050505050565b8015158114612a7757600080fd5b7fffffffff0000000000000000000000000000000000000000000000000000000081168114612a7757600080fdfea2646970667358221220d543568a76f9c81ad03a116398471dad17a21a8d63e2bc56f2cb21448523ef8464736f6c6343000804003368747470733a2f2f776661646931316c6b3175332e7573656d6f72616c69732e636f6d2f7b69647d2e6a736f6e",
  "immutableReferences": {},
  "source": "// SPDX-License-Identifier: MIT\r\npragma solidity 0.8.4;\r\n\r\nimport '@openzeppelin/contracts/token/ERC1155/ERC1155.sol';\r\nimport '@openzeppelin/contracts/token/ERC20/IERC20.sol';\r\nimport '@openzeppelin/contracts/access/Ownable.sol';\r\nimport \"@openzeppelin/contracts/utils/Strings.sol\";\r\n\r\ncontract BlogGen is ERC1155, Ownable {\r\n\r\n    struct Post {\r\n        string title;\r\n        string desc;\r\n        string creator;\r\n        uint price;\r\n        uint likes;\r\n        address wallet;\r\n    }\r\n\r\n    Post[] public posts;\r\n\r\n    mapping(address => mapping(address => uint)) internal creatorBalances;\r\n    mapping(address => mapping(uint => Post)) internal creatorPosts; // creatorPosts[msg.sender][len]\r\n    mapping(address => Post[]) creatorPossts;\r\n    mapping(address => uint) internal creatorEthBalances;\r\n    mapping(address => Post[]) internal userBoughtPosts;\r\n    mapping(address => Post[]) internal userLikedPosts;\r\n\r\n    error ValueError(uint entered, uint required);\r\n    error PostPurchaseError();\r\n    error BlogExistence(uint id);\r\n\r\n    // BlogAuth - BAuth\r\n    constructor() ERC1155(\"https://wfadi11lk1u3.usemoralis.com/{id}.json\") {\r\n        newPost('Display Placeholder', 'For UI purposes', 'Myself', 1337, msg.sender);\r\n        newPost('Display Place', 'For UI purposes', 'Myself', 1337, msg.sender);\r\n        newPost('Display ', 'For UI purposes', 'Myself', 1337, msg.sender);\r\n        newPost('Placeholder', 'For UI purposes', 'Myself', 1337, msg.sender);\r\n    }\r\n\r\n    /// @notice mints an ERC1155 token to the given address\r\n    function mint(address to, uint256 tokenId, uint _amount, bytes memory _data) public {\r\n        _mint(to, tokenId, _amount, _data);\r\n    }\r\n\r\n    /// @notice mints an ERC1155 token to the msg.sender and adds a new post to the array of posts\r\n    /// @param _title is the title of the given post\r\n    /// @param _desc is a short description of the post\r\n    /// @param _creator is the alias of the person who wrote the post\r\n    /// @param _price is the price set to purchase this post\r\n    /// @param _wallet is the wallet which created the post\r\n    function newPost(string memory _title, string memory _desc, string memory _creator, uint _price, address _wallet) public returns(bool){\r\n        Post memory post = Post({\r\n            title: _title,\r\n            desc: _desc,\r\n            creator: _creator,\r\n            price: _price,\r\n            likes: 0,\r\n            wallet: _wallet\r\n        });\r\n        posts.push(post);\r\n        uint postId = posts.length;\r\n        mint(_wallet, postId, 1, '');\r\n        creatorPosts[_wallet][postId] = post;\r\n        return true;\r\n    }\r\n\r\n    function updatePosts(uint _id) public returns(bool){\r\n        Post memory post = posts[_id];\r\n        creatorPosts[msg.sender][_id] = post;\r\n        return true;\r\n    }\r\n\r\n    /// @notice allows a user to purchase the post at the price set by the creator\r\n    /// @notice the userBoughtPosts array will be filled with each purchase\r\n    /// @param _cost of the given post set by the post creator\r\n    /// @param _postId of the given post\r\n    /// @param _paymentToken address of given ERC token to pay with\r\n    function buyPost(uint _cost, uint _postId, address _paymentToken) public returns(bool) {\r\n        uint len = posts.length;\r\n        bool res = _postId < len;\r\n        if(!res) {revert BlogExistence({id: _postId});\r\n        }else{\r\n            Post memory post = getSinglePost(_postId);\r\n            if(_cost < post.price) {\r\n                revert ValueError({\r\n                    entered: _cost,\r\n                    required: post.price\r\n                });\r\n            }else{\r\n            creatorBalances[post.wallet][_paymentToken] += _cost;\r\n            IERC20(_paymentToken).approve(address(this), _cost);\r\n            IERC20(_paymentToken).transferFrom(msg.sender, post.wallet, _cost);\r\n            userBoughtPosts[msg.sender].push(post);\r\n            return true;\r\n            }\r\n        }\r\n    }\r\n\r\n    /// @notice allows a user to purchase the post at the price set by the creator\r\n    /// @notice the userBoughtPosts array will be filled with each purchase\r\n    /// @param _cost of the given post set by the post creator\r\n    /// @param _postId of the given post\r\n    function buyPostEth(uint _cost, uint _postId) public payable returns(bool) {\r\n        require(msg.value >= _cost);\r\n        uint len = posts.length;\r\n        bool res = _postId < len;\r\n        if(!res) {revert BlogExistence({id: _postId});\r\n        }else{\r\n            Post memory post = getSinglePost(_postId);\r\n            if(msg.value < post.price) {\r\n                revert ValueError({\r\n                    entered: msg.value,\r\n                    required: post.price\r\n                });\r\n            }else{\r\n            creatorEthBalances[post.wallet] += msg.value;\r\n            userBoughtPosts[msg.sender].push(post);\r\n            return true;\r\n            }\r\n        }\r\n    }\r\n\r\n    /// @notice allows the creator to be tipped an arbritrary amount in any ERC token\r\n    /// @param _tip how much given to the creator as a tip\r\n    /// @param _paymentToken is the address of the chosen ERC token to tip\r\n    /// @param _postId of the post on which the user tipped the author from\r\n    function tipPoster(uint _tip, address _paymentToken, uint _postId) public returns(bool){\r\n        uint len = posts.length;\r\n        bool res = _postId < len;\r\n                if(!res) {revert BlogExistence({id: _postId});\r\n        }else{\r\n            Post memory post = getSinglePost(_postId);\r\n            creatorBalances[post.wallet][_paymentToken] += _tip;\r\n            IERC20(_paymentToken).approve(address(this), _tip);\r\n            IERC20(_paymentToken).transferFrom(msg.sender, post.wallet, _tip);\r\n            return true;\r\n        }\r\n    }\r\n\r\n    /// @notice allows the creator to be tipped an arbitrary amount in eth\r\n    /// @param _tip how much given to the creator as a tip\r\n    /// @param _postId of the post on which the user tipped the author from\r\n    function tipPosterEth(uint _tip, uint _postId) public payable returns(bool){\r\n        require(msg.value > 0);\r\n        uint len = posts.length;\r\n        bool res = _postId < len;\r\n                if(!res) {revert BlogExistence({id: _postId});\r\n        }else{\r\n            Post memory post = getSinglePost(_postId);\r\n            creatorEthBalances[post.wallet] += msg.value;\r\n            return true;\r\n        }\r\n    }\r\n\r\n    /// @notice increases the like count of a post and adds the post to the user's liked posts\r\n    /// @param _postId of the post to like\r\n    function likePost(uint _postId) public returns(bool){\r\n        uint len = posts.length;\r\n        bool res = _postId < len;\r\n                if(!res) {revert BlogExistence({id: _postId});\r\n        }else{\r\n            Post storage post = posts[_postId];\r\n            post.likes = post.likes + 1;\r\n            userLikedPosts[msg.sender].push(post);\r\n            return true;\r\n        }\r\n    }\r\n\r\n    /// @notice returns all posts created by a given address\r\n    /// @param _user that has previously created a post\r\n    // function getCreatorPosts(address _user) public view returns(Post[] memory){\r\n    //     uint len = getCreatorPostLength(_user);\r\n    //     Post[] memory postz;\r\n    //     for(uint x = 0; x < len; x ++) {\r\n    //         Post memory _post = creatorPosts[_user][x];\r\n    //         Post[] memory postss;\r\n    //         postss.push(_post);\r\n    //     }\r\n    //     return postz ;\r\n    // }\r\n\r\n    /// @notice returns an array of the purchased posts for the param\r\n    /// @param _user of wallet which has purchased a post(s)\r\n    function getUserPosts(address _user) public view returns(Post[] memory){\r\n        return userBoughtPosts[_user];\r\n    }\r\n\r\n    /// @notice returns the number of posts for the param\r\n    /// @param _user of wallet which has created a post(s)\r\n    function getCreatorPostLength(address _user) public view returns(uint){\r\n        uint len;\r\n        for(uint x=0;x<posts.length;x++){\r\n            Post storage post = creatorPosts[_user][x];\r\n            address rl = post.wallet;\r\n            if(rl == _user){\r\n                len++;\r\n            }\r\n        }\r\n        return len;\r\n    }\r\n\r\n    /// @notice returns a single specific post publicly\r\n    /// @param _id of post\r\n    function getSinglePost(uint _id) public view returns(Post memory){\r\n        Post memory post = posts[_id];\r\n        return post;\r\n    }\r\n    \r\n    /// @notice returns all created posts\r\n    function getPosts() public view returns(Post[] memory){\r\n        return posts;\r\n    }\r\n\r\n    /// @notice returns a single specific post publically\r\n    /// @param _index of the array of posts\r\n    function getPostById(uint _index) public view returns(Post memory){\r\n        return posts[_index];\r\n    }\r\n\r\n    /// @notice returns the total number of posts that have been created\r\n    function getPostsLength() public view returns(uint){\r\n        return posts.length;\r\n    }\r\n\r\n    /// @notice returns the most liked post by sorting through all created posts\r\n    function getMostLiked() public view returns(Post memory){\r\n        uint mostLiked;\r\n        Post memory mostLikedPost;\r\n        for(uint x = 0; x < posts.length; x++){\r\n            Post storage post = posts[x];\r\n            uint likes = post.likes;\r\n            if(likes > mostLiked){\r\n                mostLiked = likes;\r\n                mostLikedPost = post;\r\n            }\r\n        }\r\n        return mostLikedPost;\r\n    }\r\n\r\n    /// @notice allows the creator to withdraw their token payments\r\n    /// @param _token array of provided payment token addresses\r\n    function creatorWithdraw(address[] calldata _token) public returns(bool){\r\n        if(_token.length < 1) {\r\n        uint bal = creatorBalances[msg.sender][_token[0]];\r\n        IERC20(_token[0]).transfer(msg.sender, bal);\r\n        }else{\r\n            for(uint x=0;x<_token.length;x++){\r\n                uint bal = creatorBalances[msg.sender][_token[x]];\r\n                IERC20(_token[x]).transfer(msg.sender, bal);\r\n            }\r\n        }\r\n        return true;\r\n    }\r\n\r\n    /// @notice allows a post creator to withdraw their balance\r\n    function creatorEthWithdraw() public returns(bool){\r\n        uint bal = creatorEthBalances[msg.sender];\r\n        require(bal > 0);\r\n        address payable creator = payable(msg.sender);\r\n        creatorEthBalances[creator] = 0;\r\n        creator.transfer(bal);\r\n        return true;\r\n    }\r\n\r\n    fallback() external payable {}\r\n    receive() external payable {}   \r\n}",
  "sourcePath": "C:\\Users\\kiera\\Desktop\\Keyrxng\\dex-blog\\dlt\\contracts\\BlogGen.sol",
  "compiler": {
    "name": "solc",
    "version": "0.8.4+commit.c7e474f2.Emscripten.clang"
  },
  "schemaVersion": "3.4.7",
  "updatedAt": "2022-07-12T13:14:43.153Z",
  "devdoc": {
    "kind": "dev",
    "methods": {
      "balanceOf(address,uint256)": {
        "details": "See {IERC1155-balanceOf}. Requirements: - `account` cannot be the zero address."
      },
      "balanceOfBatch(address[],uint256[])": {
        "details": "See {IERC1155-balanceOfBatch}. Requirements: - `accounts` and `ids` must have the same length."
      },
      "buyPost(uint256,uint256,address)": {
        "params": {
          "_cost": "of the given post set by the post creator",
          "_paymentToken": "address of given ERC token to pay with",
          "_postId": "of the given post"
        }
      },
      "buyPostEth(uint256,uint256)": {
        "params": {
          "_cost": "of the given post set by the post creator",
          "_postId": "of the given post"
        }
      },
      "creatorWithdraw(address[])": {
        "params": {
          "_token": "array of provided payment token addresses"
        }
      },
      "getCreatorPostLength(address)": {
        "params": {
          "_user": "of wallet which has created a post(s)"
        }
      },
      "getPostById(uint256)": {
        "params": {
          "_index": "of the array of posts"
        }
      },
      "getSinglePost(uint256)": {
        "params": {
          "_id": "of post"
        }
      },
      "getUserPosts(address)": {
        "params": {
          "_user": "of wallet which has purchased a post(s)"
        }
      },
      "isApprovedForAll(address,address)": {
        "details": "See {IERC1155-isApprovedForAll}."
      },
      "likePost(uint256)": {
        "params": {
          "_postId": "of the post to like"
        }
      },
      "newPost(string,string,string,uint256,address)": {
        "params": {
          "_creator": "is the alias of the person who wrote the post",
          "_desc": "is a short description of the post",
          "_price": "is the price set to purchase this post",
          "_title": "is the title of the given post",
          "_wallet": "is the wallet which created the post"
        }
      },
      "owner()": {
        "details": "Returns the address of the current owner."
      },
      "renounceOwnership()": {
        "details": "Leaves the contract without owner. It will not be possible to call `onlyOwner` functions anymore. Can only be called by the current owner. NOTE: Renouncing ownership will leave the contract without an owner, thereby removing any functionality that is only available to the owner."
      },
      "safeBatchTransferFrom(address,address,uint256[],uint256[],bytes)": {
        "details": "See {IERC1155-safeBatchTransferFrom}."
      },
      "safeTransferFrom(address,address,uint256,uint256,bytes)": {
        "details": "See {IERC1155-safeTransferFrom}."
      },
      "setApprovalForAll(address,bool)": {
        "details": "See {IERC1155-setApprovalForAll}."
      },
      "supportsInterface(bytes4)": {
        "details": "See {IERC165-supportsInterface}."
      },
      "tipPoster(uint256,address,uint256)": {
        "params": {
          "_paymentToken": "is the address of the chosen ERC token to tip",
          "_postId": "of the post on which the user tipped the author from",
          "_tip": "how much given to the creator as a tip"
        }
      },
      "tipPosterEth(uint256,uint256)": {
        "params": {
          "_postId": "of the post on which the user tipped the author from",
          "_tip": "how much given to the creator as a tip"
        }
      },
      "transferOwnership(address)": {
        "details": "Transfers ownership of the contract to a new account (`newOwner`). Can only be called by the current owner."
      },
      "uri(uint256)": {
        "details": "See {IERC1155MetadataURI-uri}. This implementation returns the same URI for *all* token types. It relies on the token type ID substitution mechanism https://eips.ethereum.org/EIPS/eip-1155#metadata[defined in the EIP]. Clients calling this function must replace the `\\{id\\}` substring with the actual token type ID."
      }
    },
    "version": 1
  },
  "userdoc": {
    "kind": "user",
    "methods": {
      "buyPost(uint256,uint256,address)": {
        "notice": "allows a user to purchase the post at the price set by the creatorthe userBoughtPosts array will be filled with each purchase"
      },
      "buyPostEth(uint256,uint256)": {
        "notice": "allows a user to purchase the post at the price set by the creatorthe userBoughtPosts array will be filled with each purchase"
      },
      "creatorEthWithdraw()": {
        "notice": "allows a post creator to withdraw their balance"
      },
      "creatorWithdraw(address[])": {
        "notice": "allows the creator to withdraw their token payments"
      },
      "getCreatorPostLength(address)": {
        "notice": "returns the number of posts for the param"
      },
      "getMostLiked()": {
        "notice": "returns the most liked post by sorting through all created posts"
      },
      "getPostById(uint256)": {
        "notice": "returns a single specific post publically"
      },
      "getPosts()": {
        "notice": "returns all created posts"
      },
      "getPostsLength()": {
        "notice": "returns the total number of posts that have been created"
      },
      "getSinglePost(uint256)": {
        "notice": "returns a single specific post publicly"
      },
      "getUserPosts(address)": {
        "notice": "returns an array of the purchased posts for the param"
      },
      "likePost(uint256)": {
        "notice": "increases the like count of a post and adds the post to the user's liked posts"
      },
      "mint(address,uint256,uint256,bytes)": {
        "notice": "mints an ERC1155 token to the given address"
      },
      "newPost(string,string,string,uint256,address)": {
        "notice": "mints an ERC1155 token to the msg.sender and adds a new post to the array of posts"
      },
      "tipPoster(uint256,address,uint256)": {
        "notice": "allows the creator to be tipped an arbritrary amount in any ERC token"
      },
      "tipPosterEth(uint256,uint256)": {
        "notice": "allows the creator to be tipped an arbitrary amount in eth"
      }
    },
    "version": 1
  }
}