{
  "contractName": "BlogGen",
  "abi": [
    {
      "inputs": [
        {
          "internalType": "string",
          "name": "_name",
          "type": "string"
        },
        {
          "internalType": "string",
          "name": "_symbol",
          "type": "string"
        }
      ],
      "stateMutability": "nonpayable",
      "type": "constructor"
    },
    {
      "anonymous": false,
      "inputs": [
        {
          "indexed": true,
          "internalType": "address",
          "name": "owner",
          "type": "address"
        },
        {
          "indexed": true,
          "internalType": "address",
          "name": "approved",
          "type": "address"
        },
        {
          "indexed": true,
          "internalType": "uint256",
          "name": "tokenId",
          "type": "uint256"
        }
      ],
      "name": "Approval",
      "type": "event"
    },
    {
      "anonymous": false,
      "inputs": [
        {
          "indexed": true,
          "internalType": "address",
          "name": "owner",
          "type": "address"
        },
        {
          "indexed": true,
          "internalType": "address",
          "name": "operator",
          "type": "address"
        },
        {
          "indexed": false,
          "internalType": "bool",
          "name": "approved",
          "type": "bool"
        }
      ],
      "name": "ApprovalForAll",
      "type": "event"
    },
    {
      "anonymous": false,
      "inputs": [
        {
          "indexed": true,
          "internalType": "address",
          "name": "from",
          "type": "address"
        },
        {
          "indexed": true,
          "internalType": "address",
          "name": "to",
          "type": "address"
        },
        {
          "indexed": true,
          "internalType": "uint256",
          "name": "tokenId",
          "type": "uint256"
        }
      ],
      "name": "Transfer",
      "type": "event"
    },
    {
      "inputs": [
        {
          "internalType": "address",
          "name": "to",
          "type": "address"
        },
        {
          "internalType": "uint256",
          "name": "tokenId",
          "type": "uint256"
        }
      ],
      "name": "approve",
      "outputs": [],
      "stateMutability": "nonpayable",
      "type": "function"
    },
    {
      "inputs": [
        {
          "internalType": "address",
          "name": "owner",
          "type": "address"
        }
      ],
      "name": "balanceOf",
      "outputs": [
        {
          "internalType": "uint256",
          "name": "",
          "type": "uint256"
        }
      ],
      "stateMutability": "view",
      "type": "function"
    },
    {
      "inputs": [
        {
          "internalType": "uint256",
          "name": "tokenId",
          "type": "uint256"
        }
      ],
      "name": "getApproved",
      "outputs": [
        {
          "internalType": "address",
          "name": "",
          "type": "address"
        }
      ],
      "stateMutability": "view",
      "type": "function"
    },
    {
      "inputs": [
        {
          "internalType": "address",
          "name": "owner",
          "type": "address"
        },
        {
          "internalType": "address",
          "name": "operator",
          "type": "address"
        }
      ],
      "name": "isApprovedForAll",
      "outputs": [
        {
          "internalType": "bool",
          "name": "",
          "type": "bool"
        }
      ],
      "stateMutability": "view",
      "type": "function"
    },
    {
      "inputs": [],
      "name": "name",
      "outputs": [
        {
          "internalType": "string",
          "name": "",
          "type": "string"
        }
      ],
      "stateMutability": "view",
      "type": "function"
    },
    {
      "inputs": [
        {
          "internalType": "uint256",
          "name": "tokenId",
          "type": "uint256"
        }
      ],
      "name": "ownerOf",
      "outputs": [
        {
          "internalType": "address",
          "name": "",
          "type": "address"
        }
      ],
      "stateMutability": "view",
      "type": "function"
    },
    {
      "inputs": [
        {
          "internalType": "address",
          "name": "from",
          "type": "address"
        },
        {
          "internalType": "address",
          "name": "to",
          "type": "address"
        },
        {
          "internalType": "uint256",
          "name": "tokenId",
          "type": "uint256"
        }
      ],
      "name": "safeTransferFrom",
      "outputs": [],
      "stateMutability": "nonpayable",
      "type": "function"
    },
    {
      "inputs": [
        {
          "internalType": "address",
          "name": "from",
          "type": "address"
        },
        {
          "internalType": "address",
          "name": "to",
          "type": "address"
        },
        {
          "internalType": "uint256",
          "name": "tokenId",
          "type": "uint256"
        },
        {
          "internalType": "bytes",
          "name": "_data",
          "type": "bytes"
        }
      ],
      "name": "safeTransferFrom",
      "outputs": [],
      "stateMutability": "nonpayable",
      "type": "function"
    },
    {
      "inputs": [
        {
          "internalType": "address",
          "name": "operator",
          "type": "address"
        },
        {
          "internalType": "bool",
          "name": "approved",
          "type": "bool"
        }
      ],
      "name": "setApprovalForAll",
      "outputs": [],
      "stateMutability": "nonpayable",
      "type": "function"
    },
    {
      "inputs": [
        {
          "internalType": "bytes4",
          "name": "interfaceId",
          "type": "bytes4"
        }
      ],
      "name": "supportsInterface",
      "outputs": [
        {
          "internalType": "bool",
          "name": "",
          "type": "bool"
        }
      ],
      "stateMutability": "view",
      "type": "function"
    },
    {
      "inputs": [],
      "name": "symbol",
      "outputs": [
        {
          "internalType": "string",
          "name": "",
          "type": "string"
        }
      ],
      "stateMutability": "view",
      "type": "function"
    },
    {
      "inputs": [
        {
          "internalType": "uint256",
          "name": "tokenId",
          "type": "uint256"
        }
      ],
      "name": "tokenURI",
      "outputs": [
        {
          "internalType": "string",
          "name": "",
          "type": "string"
        }
      ],
      "stateMutability": "view",
      "type": "function"
    },
    {
      "inputs": [
        {
          "internalType": "address",
          "name": "from",
          "type": "address"
        },
        {
          "internalType": "address",
          "name": "to",
          "type": "address"
        },
        {
          "internalType": "uint256",
          "name": "tokenId",
          "type": "uint256"
        }
      ],
      "name": "transferFrom",
      "outputs": [],
      "stateMutability": "nonpayable",
      "type": "function"
    },
    {
      "inputs": [
        {
          "internalType": "address",
          "name": "to",
          "type": "address"
        },
        {
          "internalType": "uint256",
          "name": "tokenId",
          "type": "uint256"
        }
      ],
      "name": "mint",
      "outputs": [],
      "stateMutability": "nonpayable",
      "type": "function"
    },
    {
      "inputs": [
        {
          "components": [
            {
              "internalType": "string",
              "name": "uri",
              "type": "string"
            },
            {
              "internalType": "string",
              "name": "title",
              "type": "string"
            },
            {
              "internalType": "string",
              "name": "desc",
              "type": "string"
            },
            {
              "internalType": "string",
              "name": "creator",
              "type": "string"
            },
            {
              "internalType": "uint256",
              "name": "price",
              "type": "uint256"
            },
            {
              "internalType": "address",
              "name": "wallet",
              "type": "address"
            },
            {
              "internalType": "bool",
              "name": "locked",
              "type": "bool"
            }
          ],
          "internalType": "struct BlogGen.Post",
          "name": "_post",
          "type": "tuple"
        },
        {
          "internalType": "uint256",
          "name": "_tokenId",
          "type": "uint256"
        }
      ],
      "name": "newPost",
      "outputs": [],
      "stateMutability": "nonpayable",
      "type": "function"
    },
    {
      "inputs": [
        {
          "internalType": "uint256",
          "name": "_cost",
          "type": "uint256"
        },
        {
          "internalType": "uint256",
          "name": "tokenId",
          "type": "uint256"
        }
      ],
      "name": "buyPost",
      "outputs": [],
      "stateMutability": "nonpayable",
      "type": "function"
    },
    {
      "inputs": [
        {
          "internalType": "uint256",
          "name": "_amount",
          "type": "uint256"
        },
        {
          "internalType": "address",
          "name": "_token",
          "type": "address"
        }
      ],
      "name": "tipPoster",
      "outputs": [],
      "stateMutability": "nonpayable",
      "type": "function"
    }
  ],
  "bytecode": "0x60806040523480156200001157600080fd5b506040516200318d3803806200318d833981810160405281019062000037919062000197565b818181600090805190602001906200005192919062000075565b5080600190805190602001906200006a92919062000075565b50505050506200037a565b82805462000083906200029f565b90600052602060002090601f016020900481019282620000a75760008555620000f3565b82601f10620000c257805160ff1916838001178555620000f3565b82800160010185558215620000f3579182015b82811115620000f2578251825591602001919060010190620000d5565b5b50905062000102919062000106565b5090565b5b808211156200012157600081600090555060010162000107565b5090565b60006200013c620001368462000233565b6200020a565b9050828152602081018484840111156200015557600080fd5b6200016284828562000269565b509392505050565b600082601f8301126200017c57600080fd5b81516200018e84826020860162000125565b91505092915050565b60008060408385031215620001ab57600080fd5b600083015167ffffffffffffffff811115620001c657600080fd5b620001d4858286016200016a565b925050602083015167ffffffffffffffff811115620001f257600080fd5b62000200858286016200016a565b9150509250929050565b60006200021662000229565b9050620002248282620002d5565b919050565b6000604051905090565b600067ffffffffffffffff8211156200025157620002506200033a565b5b6200025c8262000369565b9050602081019050919050565b60005b83811015620002895780820151818401526020810190506200026c565b8381111562000299576000848401525b50505050565b60006002820490506001821680620002b857607f821691505b60208210811415620002cf57620002ce6200030b565b5b50919050565b620002e08262000369565b810181811067ffffffffffffffff821117156200030257620003016200033a565b5b80604052505050565b7f4e487b7100000000000000000000000000000000000000000000000000000000600052602260045260246000fd5b7f4e487b7100000000000000000000000000000000000000000000000000000000600052604160045260246000fd5b6000601f19601f8301169050919050565b612e03806200038a6000396000f3fe608060405234801561001057600080fd5b506004361061010b5760003560e01c80636352211e116100a257806395d89b411161007157806395d89b41146102b2578063a22cb465146102d0578063b88d4fde146102ec578063c87b56dd14610308578063e985e9c5146103385761010b565b80636352211e1461021a57806370a082311461024a5780637bdf74581461027a57806385bfe6df146102965761010b565b806323b872dd116100de57806323b872dd146101aa57806334b58419146101c657806340c10f19146101e257806342842e0e146101fe5761010b565b806301ffc9a71461011057806306fdde0314610140578063081812fc1461015e578063095ea7b31461018e575b600080fd5b61012a600480360381019061012591906119b8565b610368565b6040516101379190611e44565b60405180910390f35b61014861044a565b6040516101559190611e5f565b60405180910390f35b61017860048036038101906101739190611a5e565b6104dc565b6040516101859190611ddd565b60405180910390f35b6101a860048036038101906101a3919061197c565b610561565b005b6101c460048036038101906101bf9190611876565b610679565b005b6101e060048036038101906101db9190611a0a565b6106d9565b005b6101fc60048036038101906101f7919061197c565b610721565b005b61021860048036038101906102139190611876565b61072f565b005b610234600480360381019061022f9190611a5e565b61074f565b6040516102419190611ddd565b60405180910390f35b610264600480360381019061025f9190611811565b610801565b6040516102719190612041565b60405180910390f35b610294600480360381019061028f9190611a87565b6108b9565b005b6102b060048036038101906102ab9190611ac3565b6108bd565b005b6102ba6108d9565b6040516102c79190611e5f565b60405180910390f35b6102ea60048036038101906102e59190611940565b61096b565b005b610306600480360381019061030191906118c5565b610981565b005b610322600480360381019061031d9190611a5e565b6109e3565b60405161032f9190611e5f565b60405180910390f35b610352600480360381019061034d919061183a565b610a8a565b60405161035f9190611e44565b60405180910390f35b60007f80ac58cd000000000000000000000000000000000000000000000000000000007bffffffffffffffffffffffffffffffffffffffffffffffffffffffff1916827bffffffffffffffffffffffffffffffffffffffffffffffffffffffff1916148061043357507f5b5e139f000000000000000000000000000000000000000000000000000000007bffffffffffffffffffffffffffffffffffffffffffffffffffffffff1916827bffffffffffffffffffffffffffffffffffffffffffffffffffffffff1916145b80610443575061044282610b1e565b5b9050919050565b60606000805461045990612551565b80601f016020809104026020016040519081016040528092919081815260200182805461048590612551565b80156104d25780601f106104a7576101008083540402835291602001916104d2565b820191906000526020600020905b8154815290600101906020018083116104b557829003601f168201915b5050505050905090565b60006104e782610b88565b610526576040517f08c379a000000000000000000000000000000000000000000000000000000000815260040161051d90611fc1565b60405180910390fd5b6004600083815260200190815260200160002060009054906101000a900473ffffffffffffffffffffffffffffffffffffffff169050919050565b600061056c8261074f565b90508073ffffffffffffffffffffffffffffffffffffffff168373ffffffffffffffffffffffffffffffffffffffff1614156105dd576040517f08c379a00000000000000000000000000000000000000000000000000000000081526004016105d490612001565b60405180910390fd5b8073ffffffffffffffffffffffffffffffffffffffff166105fc610bf4565b73ffffffffffffffffffffffffffffffffffffffff16148061062b575061062a81610625610bf4565b610a8a565b5b61066a576040517f08c379a000000000000000000000000000000000000000000000000000000000815260040161066190611f41565b60405180910390fd5b6106748383610bfc565b505050565b61068a610684610bf4565b82610cb5565b6106c9576040517f08c379a00000000000000000000000000000000000000000000000000000000081526004016106c090612021565b60405180910390fd5b6106d4838383610d93565b505050565b600682908060018154018082558091505060019003906000526020600020906006020160009091909190915081816107119190612cf3565b505061071d3382610721565b5050565b61072b8282610ffa565b5050565b61074a83838360405180602001604052806000815250610981565b505050565b6000806002600084815260200190815260200160002060009054906101000a900473ffffffffffffffffffffffffffffffffffffffff169050600073ffffffffffffffffffffffffffffffffffffffff168173ffffffffffffffffffffffffffffffffffffffff1614156107f8576040517f08c379a00000000000000000000000000000000000000000000000000000000081526004016107ef90611f81565b60405180910390fd5b80915050919050565b60008073ffffffffffffffffffffffffffffffffffffffff168273ffffffffffffffffffffffffffffffffffffffff161415610872576040517f08c379a000000000000000000000000000000000000000000000000000000000815260040161086990611f61565b60405180910390fd5b600360008373ffffffffffffffffffffffffffffffffffffffff1673ffffffffffffffffffffffffffffffffffffffff168152602001908152602001600020549050919050565b5050565b60006108c8826109e3565b90506108d382610b88565b50505050565b6060600180546108e890612551565b80601f016020809104026020016040519081016040528092919081815260200182805461091490612551565b80156109615780601f1061093657610100808354040283529160200191610961565b820191906000526020600020905b81548152906001019060200180831161094457829003601f168201915b5050505050905090565b61097d610976610bf4565b83836111d4565b5050565b61099261098c610bf4565b83610cb5565b6109d1576040517f08c379a00000000000000000000000000000000000000000000000000000000081526004016109c890612021565b60405180910390fd5b6109dd84848484611341565b50505050565b60606109ee82610b88565b610a2d576040517f08c379a0000000000000000000000000000000000000000000000000000000008152600401610a2490611fe1565b60405180910390fd5b6000610a3761139d565b90506000815111610a575760405180602001604052806000815250610a82565b80610a61846113b4565b604051602001610a72929190611db9565b6040516020818303038152906040525b915050919050565b6000600560008473ffffffffffffffffffffffffffffffffffffffff1673ffffffffffffffffffffffffffffffffffffffff16815260200190815260200160002060008373ffffffffffffffffffffffffffffffffffffffff1673ffffffffffffffffffffffffffffffffffffffff16815260200190815260200160002060009054906101000a900460ff16905092915050565b60007f01ffc9a7000000000000000000000000000000000000000000000000000000007bffffffffffffffffffffffffffffffffffffffffffffffffffffffff1916827bffffffffffffffffffffffffffffffffffffffffffffffffffffffff1916149050919050565b60008073ffffffffffffffffffffffffffffffffffffffff166002600084815260200190815260200160002060009054906101000a900473ffffffffffffffffffffffffffffffffffffffff1673ffffffffffffffffffffffffffffffffffffffff1614159050919050565b600033905090565b816004600083815260200190815260200160002060006101000a81548173ffffffffffffffffffffffffffffffffffffffff021916908373ffffffffffffffffffffffffffffffffffffffff160217905550808273ffffffffffffffffffffffffffffffffffffffff16610c6f8361074f565b73ffffffffffffffffffffffffffffffffffffffff167f8c5be1e5ebec7d5bd14f71427d1e84f3dd0314c0f7b2291e5b200ac8c7c3b92560405160405180910390a45050565b6000610cc082610b88565b610cff576040517f08c379a0000000000000000000000000000000000000000000000000000000008152600401610cf690611f21565b60405180910390fd5b6000610d0a8361074f565b90508073ffffffffffffffffffffffffffffffffffffffff168473ffffffffffffffffffffffffffffffffffffffff161480610d4c5750610d4b8185610a8a565b5b80610d8a57508373ffffffffffffffffffffffffffffffffffffffff16610d72846104dc565b73ffffffffffffffffffffffffffffffffffffffff16145b91505092915050565b8273ffffffffffffffffffffffffffffffffffffffff16610db38261074f565b73ffffffffffffffffffffffffffffffffffffffff1614610e09576040517f08c379a0000000000000000000000000000000000000000000000000000000008152600401610e0090611ea1565b60405180910390fd5b600073ffffffffffffffffffffffffffffffffffffffff168273ffffffffffffffffffffffffffffffffffffffff161415610e79576040517f08c379a0000000000000000000000000000000000000000000000000000000008152600401610e7090611ee1565b60405180910390fd5b610e84838383611561565b610e8f600082610bfc565b6001600360008573ffffffffffffffffffffffffffffffffffffffff1673ffffffffffffffffffffffffffffffffffffffff1681526020019081526020016000206000828254610edf91906121f3565b925050819055506001600360008473ffffffffffffffffffffffffffffffffffffffff1673ffffffffffffffffffffffffffffffffffffffff1681526020019081526020016000206000828254610f36919061216c565b92505081905550816002600083815260200190815260200160002060006101000a81548173ffffffffffffffffffffffffffffffffffffffff021916908373ffffffffffffffffffffffffffffffffffffffff160217905550808273ffffffffffffffffffffffffffffffffffffffff168473ffffffffffffffffffffffffffffffffffffffff167fddf252ad1be2c89b69c2b068fc378daa952ba7f163c4a11628f55a4df523b3ef60405160405180910390a4610ff5838383611566565b505050565b600073ffffffffffffffffffffffffffffffffffffffff168273ffffffffffffffffffffffffffffffffffffffff16141561106a576040517f08c379a000000000000000000000000000000000000000000000000000000000815260040161106190611fa1565b60405180910390fd5b61107381610b88565b156110b3576040517f08c379a00000000000000000000000000000000000000000000000000000000081526004016110aa90611ec1565b60405180910390fd5b6110bf60008383611561565b6001600360008473ffffffffffffffffffffffffffffffffffffffff1673ffffffffffffffffffffffffffffffffffffffff168152602001908152602001600020600082825461110f919061216c565b92505081905550816002600083815260200190815260200160002060006101000a81548173ffffffffffffffffffffffffffffffffffffffff021916908373ffffffffffffffffffffffffffffffffffffffff160217905550808273ffffffffffffffffffffffffffffffffffffffff16600073ffffffffffffffffffffffffffffffffffffffff167fddf252ad1be2c89b69c2b068fc378daa952ba7f163c4a11628f55a4df523b3ef60405160405180910390a46111d060008383611566565b5050565b8173ffffffffffffffffffffffffffffffffffffffff168373ffffffffffffffffffffffffffffffffffffffff161415611243576040517f08c379a000000000000000000000000000000000000000000000000000000000815260040161123a90611f01565b60405180910390fd5b80600560008573ffffffffffffffffffffffffffffffffffffffff1673ffffffffffffffffffffffffffffffffffffffff16815260200190815260200160002060008473ffffffffffffffffffffffffffffffffffffffff1673ffffffffffffffffffffffffffffffffffffffff16815260200190815260200160002060006101000a81548160ff0219169083151502179055508173ffffffffffffffffffffffffffffffffffffffff168373ffffffffffffffffffffffffffffffffffffffff167f17307eab39ab6107e8899845ad3d59bd9653f200f220920489ca2b5937696c31836040516113349190611e44565b60405180910390a3505050565b61134c848484610d93565b6113588484848461156b565b611397576040517f08c379a000000000000000000000000000000000000000000000000000000000815260040161138e90611e81565b60405180910390fd5b50505050565b606060405180602001604052806000815250905090565b606060008214156113fc576040518060400160405280600181526020017f3000000000000000000000000000000000000000000000000000000000000000815250905061155c565b600082905060005b6000821461142e578080611417906125d0565b915050600a8261142791906121c2565b9150611404565b60008167ffffffffffffffff811115611470577f4e487b7100000000000000000000000000000000000000000000000000000000600052604160045260246000fd5b6040519080825280601f01601f1916602001820160405280156114a25781602001600182028036833780820191505090505b5090505b60008514611555576001826114bb91906121f3565b9150600a856114ca9190612637565b60306114d6919061216c565b60f81b818381518110611512577f4e487b7100000000000000000000000000000000000000000000000000000000600052603260045260246000fd5b60200101907effffffffffffffffffffffffffffffffffffffffffffffffffffffffffffff1916908160001a905350600a8561154e91906121c2565b94506114a6565b8093505050505b919050565b505050565b505050565b600061158c8473ffffffffffffffffffffffffffffffffffffffff16611702565b156116f5578373ffffffffffffffffffffffffffffffffffffffff1663150b7a026115b5610bf4565b8786866040518563ffffffff1660e01b81526004016115d79493929190611df8565b602060405180830381600087803b1580156115f157600080fd5b505af192505050801561162257506040513d601f19601f8201168201806040525081019061161f91906119e1565b60015b6116a5573d8060008114611652576040519150601f19603f3d011682016040523d82523d6000602084013e611657565b606091505b5060008151141561169d576040517f08c379a000000000000000000000000000000000000000000000000000000000815260040161169490611e81565b60405180910390fd5b805181602001fd5b63150b7a0260e01b7bffffffffffffffffffffffffffffffffffffffffffffffffffffffff1916817bffffffffffffffffffffffffffffffffffffffffffffffffffffffff1916149150506116fa565b600190505b949350505050565b6000808273ffffffffffffffffffffffffffffffffffffffff163b119050919050565b6000611738611733846120d8565b6120b3565b90508281526020810184848401111561175057600080fd5b61175b848285612424565b509392505050565b60008135905061177281612d6c565b92915050565b60008135905061178781612d83565b92915050565b60008135905061179c81612d9a565b92915050565b6000815190506117b181612d9a565b92915050565b600082601f8301126117c857600080fd5b81356117d8848260208601611725565b91505092915050565b600060e082840312156117f357600080fd5b81905092915050565b60008135905061180b81612db1565b92915050565b60006020828403121561182357600080fd5b600061183184828501611763565b91505092915050565b6000806040838503121561184d57600080fd5b600061185b85828601611763565b925050602061186c85828601611763565b9150509250929050565b60008060006060848603121561188b57600080fd5b600061189986828701611763565b93505060206118aa86828701611763565b92505060406118bb868287016117fc565b9150509250925092565b600080600080608085870312156118db57600080fd5b60006118e987828801611763565b94505060206118fa87828801611763565b935050604061190b878288016117fc565b925050606085013567ffffffffffffffff81111561192857600080fd5b611934878288016117b7565b91505092959194509250565b6000806040838503121561195357600080fd5b600061196185828601611763565b925050602061197285828601611778565b9150509250929050565b6000806040838503121561198f57600080fd5b600061199d85828601611763565b92505060206119ae858286016117fc565b9150509250929050565b6000602082840312156119ca57600080fd5b60006119d88482850161178d565b91505092915050565b6000602082840312156119f357600080fd5b6000611a01848285016117a2565b91505092915050565b60008060408385031215611a1d57600080fd5b600083013567ffffffffffffffff811115611a3757600080fd5b611a43858286016117e1565b9250506020611a54858286016117fc565b9150509250929050565b600060208284031215611a7057600080fd5b6000611a7e848285016117fc565b91505092915050565b60008060408385031215611a9a57600080fd5b6000611aa8858286016117fc565b9250506020611ab985828601611763565b9150509250929050565b60008060408385031215611ad657600080fd5b6000611ae4858286016117fc565b9250506020611af5858286016117fc565b9150509250929050565b611b0881612227565b82525050565b611b1781612239565b82525050565b6000611b288261211e565b611b32818561213f565b9350611b42818560208601612433565b611b4b81612784565b840191505092915050565b6000611b6182612134565b611b6b8185612150565b9350611b7b818560208601612433565b611b8481612784565b840191505092915050565b6000611b9a82612134565b611ba48185612161565b9350611bb4818560208601612433565b80840191505092915050565b6000611bcd603283612150565b9150611bd8826127df565b604082019050919050565b6000611bf0602583612150565b9150611bfb8261282e565b604082019050919050565b6000611c13601c83612150565b9150611c1e8261287d565b602082019050919050565b6000611c36602483612150565b9150611c41826128a6565b604082019050919050565b6000611c59601983612150565b9150611c64826128f5565b602082019050919050565b6000611c7c602c83612150565b9150611c878261291e565b604082019050919050565b6000611c9f603883612150565b9150611caa8261296d565b604082019050919050565b6000611cc2602a83612150565b9150611ccd826129bc565b604082019050919050565b6000611ce5602983612150565b9150611cf082612a0b565b604082019050919050565b6000611d08602083612150565b9150611d1382612a5a565b602082019050919050565b6000611d2b602c83612150565b9150611d3682612a83565b604082019050919050565b6000611d4e602f83612150565b9150611d5982612ad2565b604082019050919050565b6000611d71602183612150565b9150611d7c82612b21565b604082019050919050565b6000611d94603183612150565b9150611d9f82612b70565b604082019050919050565b611db381612291565b82525050565b6000611dc58285611b8f565b9150611dd18284611b8f565b91508190509392505050565b6000602082019050611df26000830184611aff565b92915050565b6000608082019050611e0d6000830187611aff565b611e1a6020830186611aff565b611e276040830185611daa565b8181036060830152611e398184611b1d565b905095945050505050565b6000602082019050611e596000830184611b0e565b92915050565b60006020820190508181036000830152611e798184611b56565b905092915050565b60006020820190508181036000830152611e9a81611bc0565b9050919050565b60006020820190508181036000830152611eba81611be3565b9050919050565b60006020820190508181036000830152611eda81611c06565b9050919050565b60006020820190508181036000830152611efa81611c29565b9050919050565b60006020820190508181036000830152611f1a81611c4c565b9050919050565b60006020820190508181036000830152611f3a81611c6f565b9050919050565b60006020820190508181036000830152611f5a81611c92565b9050919050565b60006020820190508181036000830152611f7a81611cb5565b9050919050565b60006020820190508181036000830152611f9a81611cd8565b9050919050565b60006020820190508181036000830152611fba81611cfb565b9050919050565b60006020820190508181036000830152611fda81611d1e565b9050919050565b60006020820190508181036000830152611ffa81611d41565b9050919050565b6000602082019050818103600083015261201a81611d64565b9050919050565b6000602082019050818103600083015261203a81611d87565b9050919050565b60006020820190506120566000830184611daa565b92915050565b6000808335600160200384360303811261207557600080fd5b80840192508235915067ffffffffffffffff82111561209357600080fd5b6020830192506001820236038313156120ab57600080fd5b509250929050565b60006120bd6120ce565b90506120c9828261259f565b919050565b6000604051905090565b600067ffffffffffffffff8211156120f3576120f26126f5565b5b6120fc82612784565b9050602081019050919050565b60008190508160005260206000209050919050565b600081519050919050565b600082905092915050565b600081519050919050565b600082825260208201905092915050565b600082825260208201905092915050565b600081905092915050565b600061217782612291565b915061218283612291565b9250827fffffffffffffffffffffffffffffffffffffffffffffffffffffffffffffffff038211156121b7576121b6612668565b5b828201905092915050565b60006121cd82612291565b91506121d883612291565b9250826121e8576121e7612697565b5b828204905092915050565b60006121fe82612291565b915061220983612291565b92508282101561221c5761221b612668565b5b828203905092915050565b600061223282612271565b9050919050565b60008115159050919050565b60007fffffffff0000000000000000000000000000000000000000000000000000000082169050919050565b600073ffffffffffffffffffffffffffffffffffffffff82169050919050565b6000819050919050565b5b818110156122ba576122af6000826127c9565b60018101905061229c565b5050565b60006122c9826122e2565b9050919050565b60006122db82612239565b9050919050565b60006122ed826122f4565b9050919050565b60006122ff82612271565b9050919050565b600061231182612291565b9050919050565b6123228383612129565b67ffffffffffffffff81111561233b5761233a6126f5565b5b6123458254612551565b600080601f8411601f841117156123625761235f85612109565b90505b601f831115612395576020601f85010481016020851015612381578190505b6123936020601f86010483018261229b565b505b601f8411600181146123c257600085156123b0578388013590505b6123ba8682612583565b87555061241a565b601f1985168260005b828110156123f057858a013582556001820191506020860195506020810190506123cb565b8783101561240d57858a0135612409601f8a1682612619565b8355505b6001600289020189555050505b5050505050505050565b82818337600083830152505050565b60005b83811015612451578082015181840152602081019050612436565b83811115612460576000848401525b50505050565b6000810160008301612478818561205c565b612483818386612ce3565b505050506001810160208301612499818561205c565b6124a4818386612ce3565b5050505060028101604083016124ba818561205c565b6124c5818386612ce3565b5050505060038101606083016124db818561205c565b6124e6818386612ce3565b505050506004810160808301806124fc8161276e565b90506125088184612d01565b5050506005810160a083018061251d81612742565b90506125298184612cc0565b5050506005810160c083018061253e81612758565b905061254a8184612d24565b5050505050565b6000600282049050600182168061256957607f821691505b6020821081141561257d5761257c6126c6565b5b50919050565b600061258f8383612619565b9150826002028217905092915050565b6125a882612784565b810181811067ffffffffffffffff821117156125c7576125c66126f5565b5b80604052505050565b60006125db82612291565b91507fffffffffffffffffffffffffffffffffffffffffffffffffffffffffffffffff82141561260e5761260d612668565b5b600182019050919050565b600061262a600019846008026127bc565b1980831691505092915050565b600061264282612291565b915061264d83612291565b92508261265d5761265c612697565b5b828206905092915050565b7f4e487b7100000000000000000000000000000000000000000000000000000000600052601160045260246000fd5b7f4e487b7100000000000000000000000000000000000000000000000000000000600052601260045260246000fd5b7f4e487b7100000000000000000000000000000000000000000000000000000000600052602260045260246000fd5b7f4e487b7100000000000000000000000000000000000000000000000000000000600052604160045260246000fd5b6000819050919050565b6000819050919050565b6000819050919050565b6000813561274f81612d6c565b80915050919050565b6000813561276581612d83565b80915050919050565b6000813561277b81612db1565b80915050919050565b6000601f19601f8301169050919050565b60008160001b9050919050565b60008160a01b9050919050565b600082821b905092915050565b600082821c905092915050565b6127db6127d4612dc8565b8383612d47565b5050565b7f4552433732313a207472616e7366657220746f206e6f6e20455243373231526560008201527f63656976657220696d706c656d656e7465720000000000000000000000000000602082015250565b7f4552433732313a207472616e736665722066726f6d20696e636f72726563742060008201527f6f776e6572000000000000000000000000000000000000000000000000000000602082015250565b7f4552433732313a20746f6b656e20616c7265616479206d696e74656400000000600082015250565b7f4552433732313a207472616e7366657220746f20746865207a65726f2061646460008201527f7265737300000000000000000000000000000000000000000000000000000000602082015250565b7f4552433732313a20617070726f766520746f2063616c6c657200000000000000600082015250565b7f4552433732313a206f70657261746f7220717565727920666f72206e6f6e657860008201527f697374656e7420746f6b656e0000000000000000000000000000000000000000602082015250565b7f4552433732313a20617070726f76652063616c6c6572206973206e6f74206f7760008201527f6e6572206e6f7220617070726f76656420666f7220616c6c0000000000000000602082015250565b7f4552433732313a2062616c616e636520717565727920666f7220746865207a6560008201527f726f206164647265737300000000000000000000000000000000000000000000602082015250565b7f4552433732313a206f776e657220717565727920666f72206e6f6e657869737460008201527f656e7420746f6b656e0000000000000000000000000000000000000000000000602082015250565b7f4552433732313a206d696e7420746f20746865207a65726f2061646472657373600082015250565b7f4552433732313a20617070726f76656420717565727920666f72206e6f6e657860008201527f697374656e7420746f6b656e0000000000000000000000000000000000000000602082015250565b7f4552433732314d657461646174613a2055524920717565727920666f72206e6f60008201527f6e6578697374656e7420746f6b656e0000000000000000000000000000000000602082015250565b7f4552433732313a20617070726f76616c20746f2063757272656e74206f776e6560008201527f7200000000000000000000000000000000000000000000000000000000000000602082015250565b7f4552433732313a207472616e736665722063616c6c6572206973206e6f74206f60008201527f776e6572206e6f7220617070726f766564000000000000000000000000000000602082015250565b600074ff0000000000000000000000000000000000000000612be0846127a2565b9350801983169250808416831791505092915050565b600073ffffffffffffffffffffffffffffffffffffffff612c1684612795565b9350801983169250808416831791505092915050565b60007fffffffffffffffffffffffffffffffffffffffffffffffffffffffffffffffff612c5884612795565b9350801983169250808416831791505092915050565b600060088302612c9e7fffffffffffffffffffffffffffffffffffffffffffffffffffffffffffffffff826127af565b612ca886836127af565b95508019841693508086168417925050509392505050565b612cc9826122be565b612cdc612cd582612724565b8354612bf6565b8255505050565b612cee838383612318565b505050565b612cfd8282612466565b5050565b612d0a82612306565b612d1d612d1682612738565b8354612c2c565b8255505050565b612d2d826122d0565b612d40612d398261272e565b8354612bbf565b8255505050565b612d5083612306565b612d64612d5c82612738565b848454612c6e565b825550505050565b612d7581612227565b8114612d8057600080fd5b50565b612d8c81612239565b8114612d9757600080fd5b50565b612da381612245565b8114612dae57600080fd5b50565b612dba81612291565b8114612dc557600080fd5b50565b60009056fea2646970667358221220f0b6365da708abe9b320a54a725b12cebcd27c5d12d2c8e4b492d2178bc5652b64736f6c63430008010033",
  "immutableReferences": {},
  "source": "// SPDX-License-Identifier: MIT\r\npragma solidity 0.8.1;\r\n\r\nimport '@openzeppelin/contracts/token/ERC721/ERC721.sol';\r\nimport \"@openzeppelin/contracts/utils/Strings.sol\";\r\n\r\ncontract BlogGen is ERC721 {\r\n\r\n    struct Post {\r\n        string uri;\r\n        string title;\r\n        string desc;\r\n        string creator;\r\n        uint price;\r\n        address wallet;\r\n        bool locked;\r\n    }\r\n\r\n    Post[] posts;\r\n\r\n    mapping(address => uint) creatorBalances;\r\n    mapping(address => Post) userBoughtPosts;\r\n    mapping(uint => Post) postLikes;\r\n\r\n    // BlogAuth - BAuth\r\n    constructor(string memory _name, string memory _symbol) ERC721(_name, _symbol) {\r\n    }\r\n\r\n    // mints an ER721 token to the given address\r\n    function mint(address to, uint256 tokenId) public {\r\n        super._mint(to, tokenId);\r\n    }\r\n\r\n    // mints an ERC721 token to the msg.sender and adds a new post to the array of posts\r\n    function newPost(Post calldata _post, uint _tokenId) public {\r\n        posts.push(_post);\r\n        mint(msg.sender, _tokenId);\r\n    }\r\n\r\n    function buyPost(uint _cost, uint tokenId) public {\r\n        string memory data = tokenURI(tokenId);\r\n        super._exists(tokenId);\r\n    }\r\n\r\n    function tipPoster(uint _amount, address _token) public {\r\n\r\n    }\r\n\r\n\r\n\r\n    \r\n}",
  "sourcePath": "C:\\Users\\kiera\\Desktop\\Keyrxng\\dex-blog\\dlt\\contracts\\BlogGen.sol",
  "compiler": {
    "name": "solc",
    "version": "0.8.1+commit.df193b15.Emscripten.clang"
  },
  "schemaVersion": "3.4.7",
  "updatedAt": "2022-06-16T04:46:27.927Z",
  "devdoc": {
    "kind": "dev",
    "methods": {
      "approve(address,uint256)": {
        "details": "See {IERC721-approve}."
      },
      "balanceOf(address)": {
        "details": "See {IERC721-balanceOf}."
      },
      "getApproved(uint256)": {
        "details": "See {IERC721-getApproved}."
      },
      "isApprovedForAll(address,address)": {
        "details": "See {IERC721-isApprovedForAll}."
      },
      "name()": {
        "details": "See {IERC721Metadata-name}."
      },
      "ownerOf(uint256)": {
        "details": "See {IERC721-ownerOf}."
      },
      "safeTransferFrom(address,address,uint256)": {
        "details": "See {IERC721-safeTransferFrom}."
      },
      "safeTransferFrom(address,address,uint256,bytes)": {
        "details": "See {IERC721-safeTransferFrom}."
      },
      "setApprovalForAll(address,bool)": {
        "details": "See {IERC721-setApprovalForAll}."
      },
      "supportsInterface(bytes4)": {
        "details": "See {IERC165-supportsInterface}."
      },
      "symbol()": {
        "details": "See {IERC721Metadata-symbol}."
      },
      "tokenURI(uint256)": {
        "details": "See {IERC721Metadata-tokenURI}."
      },
      "transferFrom(address,address,uint256)": {
        "details": "See {IERC721-transferFrom}."
      }
    },
    "version": 1
  },
  "userdoc": {
    "kind": "user",
    "methods": {},
    "version": 1
  }
}