{
  "contractName": "BlogGen",
  "abi": [
    {
      "inputs": [
        {
          "internalType": "string",
          "name": "_name",
          "type": "string"
        },
        {
          "internalType": "string",
          "name": "_symbol",
          "type": "string"
        }
      ],
      "stateMutability": "nonpayable",
      "type": "constructor"
    },
    {
      "inputs": [
        {
          "internalType": "uint256",
          "name": "id",
          "type": "uint256"
        }
      ],
      "name": "BlogExistence",
      "type": "error"
    },
    {
      "inputs": [],
      "name": "PostPurchaseError",
      "type": "error"
    },
    {
      "inputs": [
        {
          "internalType": "uint256",
          "name": "entered",
          "type": "uint256"
        },
        {
          "internalType": "uint256",
          "name": "required",
          "type": "uint256"
        }
      ],
      "name": "ValueError",
      "type": "error"
    },
    {
      "anonymous": false,
      "inputs": [
        {
          "indexed": true,
          "internalType": "address",
          "name": "owner",
          "type": "address"
        },
        {
          "indexed": true,
          "internalType": "address",
          "name": "approved",
          "type": "address"
        },
        {
          "indexed": true,
          "internalType": "uint256",
          "name": "tokenId",
          "type": "uint256"
        }
      ],
      "name": "Approval",
      "type": "event"
    },
    {
      "anonymous": false,
      "inputs": [
        {
          "indexed": true,
          "internalType": "address",
          "name": "owner",
          "type": "address"
        },
        {
          "indexed": true,
          "internalType": "address",
          "name": "operator",
          "type": "address"
        },
        {
          "indexed": false,
          "internalType": "bool",
          "name": "approved",
          "type": "bool"
        }
      ],
      "name": "ApprovalForAll",
      "type": "event"
    },
    {
      "anonymous": false,
      "inputs": [
        {
          "indexed": true,
          "internalType": "address",
          "name": "previousOwner",
          "type": "address"
        },
        {
          "indexed": true,
          "internalType": "address",
          "name": "newOwner",
          "type": "address"
        }
      ],
      "name": "OwnershipTransferred",
      "type": "event"
    },
    {
      "anonymous": false,
      "inputs": [
        {
          "indexed": true,
          "internalType": "address",
          "name": "from",
          "type": "address"
        },
        {
          "indexed": true,
          "internalType": "address",
          "name": "to",
          "type": "address"
        },
        {
          "indexed": true,
          "internalType": "uint256",
          "name": "tokenId",
          "type": "uint256"
        }
      ],
      "name": "Transfer",
      "type": "event"
    },
    {
      "stateMutability": "payable",
      "type": "fallback"
    },
    {
      "inputs": [
        {
          "internalType": "address",
          "name": "to",
          "type": "address"
        },
        {
          "internalType": "uint256",
          "name": "tokenId",
          "type": "uint256"
        }
      ],
      "name": "approve",
      "outputs": [],
      "stateMutability": "nonpayable",
      "type": "function"
    },
    {
      "inputs": [
        {
          "internalType": "address",
          "name": "owner",
          "type": "address"
        }
      ],
      "name": "balanceOf",
      "outputs": [
        {
          "internalType": "uint256",
          "name": "",
          "type": "uint256"
        }
      ],
      "stateMutability": "view",
      "type": "function"
    },
    {
      "inputs": [
        {
          "internalType": "uint256",
          "name": "tokenId",
          "type": "uint256"
        }
      ],
      "name": "getApproved",
      "outputs": [
        {
          "internalType": "address",
          "name": "",
          "type": "address"
        }
      ],
      "stateMutability": "view",
      "type": "function"
    },
    {
      "inputs": [
        {
          "internalType": "address",
          "name": "owner",
          "type": "address"
        },
        {
          "internalType": "address",
          "name": "operator",
          "type": "address"
        }
      ],
      "name": "isApprovedForAll",
      "outputs": [
        {
          "internalType": "bool",
          "name": "",
          "type": "bool"
        }
      ],
      "stateMutability": "view",
      "type": "function"
    },
    {
      "inputs": [],
      "name": "name",
      "outputs": [
        {
          "internalType": "string",
          "name": "",
          "type": "string"
        }
      ],
      "stateMutability": "view",
      "type": "function"
    },
    {
      "inputs": [],
      "name": "owner",
      "outputs": [
        {
          "internalType": "address",
          "name": "",
          "type": "address"
        }
      ],
      "stateMutability": "view",
      "type": "function"
    },
    {
      "inputs": [
        {
          "internalType": "uint256",
          "name": "tokenId",
          "type": "uint256"
        }
      ],
      "name": "ownerOf",
      "outputs": [
        {
          "internalType": "address",
          "name": "",
          "type": "address"
        }
      ],
      "stateMutability": "view",
      "type": "function"
    },
    {
      "inputs": [],
      "name": "renounceOwnership",
      "outputs": [],
      "stateMutability": "nonpayable",
      "type": "function"
    },
    {
      "inputs": [
        {
          "internalType": "address",
          "name": "from",
          "type": "address"
        },
        {
          "internalType": "address",
          "name": "to",
          "type": "address"
        },
        {
          "internalType": "uint256",
          "name": "tokenId",
          "type": "uint256"
        }
      ],
      "name": "safeTransferFrom",
      "outputs": [],
      "stateMutability": "nonpayable",
      "type": "function"
    },
    {
      "inputs": [
        {
          "internalType": "address",
          "name": "from",
          "type": "address"
        },
        {
          "internalType": "address",
          "name": "to",
          "type": "address"
        },
        {
          "internalType": "uint256",
          "name": "tokenId",
          "type": "uint256"
        },
        {
          "internalType": "bytes",
          "name": "_data",
          "type": "bytes"
        }
      ],
      "name": "safeTransferFrom",
      "outputs": [],
      "stateMutability": "nonpayable",
      "type": "function"
    },
    {
      "inputs": [
        {
          "internalType": "address",
          "name": "operator",
          "type": "address"
        },
        {
          "internalType": "bool",
          "name": "approved",
          "type": "bool"
        }
      ],
      "name": "setApprovalForAll",
      "outputs": [],
      "stateMutability": "nonpayable",
      "type": "function"
    },
    {
      "inputs": [
        {
          "internalType": "bytes4",
          "name": "interfaceId",
          "type": "bytes4"
        }
      ],
      "name": "supportsInterface",
      "outputs": [
        {
          "internalType": "bool",
          "name": "",
          "type": "bool"
        }
      ],
      "stateMutability": "view",
      "type": "function"
    },
    {
      "inputs": [],
      "name": "symbol",
      "outputs": [
        {
          "internalType": "string",
          "name": "",
          "type": "string"
        }
      ],
      "stateMutability": "view",
      "type": "function"
    },
    {
      "inputs": [
        {
          "internalType": "uint256",
          "name": "tokenId",
          "type": "uint256"
        }
      ],
      "name": "tokenURI",
      "outputs": [
        {
          "internalType": "string",
          "name": "",
          "type": "string"
        }
      ],
      "stateMutability": "view",
      "type": "function"
    },
    {
      "inputs": [
        {
          "internalType": "address",
          "name": "from",
          "type": "address"
        },
        {
          "internalType": "address",
          "name": "to",
          "type": "address"
        },
        {
          "internalType": "uint256",
          "name": "tokenId",
          "type": "uint256"
        }
      ],
      "name": "transferFrom",
      "outputs": [],
      "stateMutability": "nonpayable",
      "type": "function"
    },
    {
      "inputs": [
        {
          "internalType": "address",
          "name": "newOwner",
          "type": "address"
        }
      ],
      "name": "transferOwnership",
      "outputs": [],
      "stateMutability": "nonpayable",
      "type": "function"
    },
    {
      "stateMutability": "payable",
      "type": "receive"
    },
    {
      "inputs": [
        {
          "internalType": "address",
          "name": "to",
          "type": "address"
        },
        {
          "internalType": "uint256",
          "name": "tokenId",
          "type": "uint256"
        }
      ],
      "name": "mint",
      "outputs": [],
      "stateMutability": "nonpayable",
      "type": "function"
    },
    {
      "inputs": [
        {
          "components": [
            {
              "internalType": "string",
              "name": "uri",
              "type": "string"
            },
            {
              "internalType": "string",
              "name": "title",
              "type": "string"
            },
            {
              "internalType": "string",
              "name": "desc",
              "type": "string"
            },
            {
              "internalType": "string",
              "name": "creator",
              "type": "string"
            },
            {
              "internalType": "uint256",
              "name": "id",
              "type": "uint256"
            },
            {
              "internalType": "uint256",
              "name": "price",
              "type": "uint256"
            },
            {
              "internalType": "uint256",
              "name": "likes",
              "type": "uint256"
            },
            {
              "internalType": "address",
              "name": "wallet",
              "type": "address"
            }
          ],
          "internalType": "struct BlogGen.Post",
          "name": "_post",
          "type": "tuple"
        },
        {
          "internalType": "uint256",
          "name": "_tokenId",
          "type": "uint256"
        }
      ],
      "name": "newPost",
      "outputs": [],
      "stateMutability": "nonpayable",
      "type": "function"
    },
    {
      "inputs": [
        {
          "internalType": "uint256",
          "name": "_cost",
          "type": "uint256"
        },
        {
          "internalType": "uint256",
          "name": "_tokenId",
          "type": "uint256"
        },
        {
          "internalType": "address",
          "name": "_paymentToken",
          "type": "address"
        }
      ],
      "name": "buyPost",
      "outputs": [
        {
          "internalType": "bool",
          "name": "",
          "type": "bool"
        }
      ],
      "stateMutability": "nonpayable",
      "type": "function"
    },
    {
      "inputs": [
        {
          "internalType": "uint256",
          "name": "_tip",
          "type": "uint256"
        },
        {
          "internalType": "address",
          "name": "_paymentToken",
          "type": "address"
        },
        {
          "internalType": "uint256",
          "name": "_tokenId",
          "type": "uint256"
        }
      ],
      "name": "tipPoster",
      "outputs": [
        {
          "internalType": "bool",
          "name": "",
          "type": "bool"
        }
      ],
      "stateMutability": "nonpayable",
      "type": "function"
    },
    {
      "inputs": [
        {
          "internalType": "uint256",
          "name": "_tokenId",
          "type": "uint256"
        }
      ],
      "name": "likePost",
      "outputs": [
        {
          "internalType": "bool",
          "name": "",
          "type": "bool"
        }
      ],
      "stateMutability": "view",
      "type": "function"
    },
    {
      "inputs": [
        {
          "internalType": "address",
          "name": "_user",
          "type": "address"
        }
      ],
      "name": "getUserPosts",
      "outputs": [
        {
          "components": [
            {
              "internalType": "string",
              "name": "uri",
              "type": "string"
            },
            {
              "internalType": "string",
              "name": "title",
              "type": "string"
            },
            {
              "internalType": "string",
              "name": "desc",
              "type": "string"
            },
            {
              "internalType": "string",
              "name": "creator",
              "type": "string"
            },
            {
              "internalType": "uint256",
              "name": "id",
              "type": "uint256"
            },
            {
              "internalType": "uint256",
              "name": "price",
              "type": "uint256"
            },
            {
              "internalType": "uint256",
              "name": "likes",
              "type": "uint256"
            },
            {
              "internalType": "address",
              "name": "wallet",
              "type": "address"
            }
          ],
          "internalType": "struct BlogGen.Post[]",
          "name": "",
          "type": "tuple[]"
        }
      ],
      "stateMutability": "view",
      "type": "function"
    },
    {
      "inputs": [],
      "name": "getPosts",
      "outputs": [
        {
          "components": [
            {
              "internalType": "string",
              "name": "uri",
              "type": "string"
            },
            {
              "internalType": "string",
              "name": "title",
              "type": "string"
            },
            {
              "internalType": "string",
              "name": "desc",
              "type": "string"
            },
            {
              "internalType": "string",
              "name": "creator",
              "type": "string"
            },
            {
              "internalType": "uint256",
              "name": "id",
              "type": "uint256"
            },
            {
              "internalType": "uint256",
              "name": "price",
              "type": "uint256"
            },
            {
              "internalType": "uint256",
              "name": "likes",
              "type": "uint256"
            },
            {
              "internalType": "address",
              "name": "wallet",
              "type": "address"
            }
          ],
          "internalType": "struct BlogGen.Post[]",
          "name": "",
          "type": "tuple[]"
        }
      ],
      "stateMutability": "view",
      "type": "function"
    },
    {
      "inputs": [],
      "name": "getMostLiked",
      "outputs": [
        {
          "components": [
            {
              "internalType": "string",
              "name": "uri",
              "type": "string"
            },
            {
              "internalType": "string",
              "name": "title",
              "type": "string"
            },
            {
              "internalType": "string",
              "name": "desc",
              "type": "string"
            },
            {
              "internalType": "string",
              "name": "creator",
              "type": "string"
            },
            {
              "internalType": "uint256",
              "name": "id",
              "type": "uint256"
            },
            {
              "internalType": "uint256",
              "name": "price",
              "type": "uint256"
            },
            {
              "internalType": "uint256",
              "name": "likes",
              "type": "uint256"
            },
            {
              "internalType": "address",
              "name": "wallet",
              "type": "address"
            }
          ],
          "internalType": "struct BlogGen.Post",
          "name": "",
          "type": "tuple"
        }
      ],
      "stateMutability": "view",
      "type": "function"
    },
    {
      "inputs": [
        {
          "internalType": "address[]",
          "name": "_token",
          "type": "address[]"
        }
      ],
      "name": "creatorWithdraw",
      "outputs": [
        {
          "internalType": "bool",
          "name": "",
          "type": "bool"
        }
      ],
      "stateMutability": "nonpayable",
      "type": "function"
    },
    {
      "inputs": [],
      "name": "ethWithdraw",
      "outputs": [
        {
          "internalType": "bool",
          "name": "",
          "type": "bool"
        }
      ],
      "stateMutability": "nonpayable",
      "type": "function"
    }
  ],
  "bytecode": "0x60806040523480156200001157600080fd5b506040516200560338038062005603833981810160405281019062000037919062000285565b818181600090805190602001906200005192919062000163565b5080600190805190602001906200006a92919062000163565b5050506200008d620000816200009560201b60201c565b6200009d60201b60201c565b505062000468565b600033905090565b6000600660009054906101000a900473ffffffffffffffffffffffffffffffffffffffff16905081600660006101000a81548173ffffffffffffffffffffffffffffffffffffffff021916908373ffffffffffffffffffffffffffffffffffffffff1602179055508173ffffffffffffffffffffffffffffffffffffffff168173ffffffffffffffffffffffffffffffffffffffff167f8be0079c531659141344cd1fd0a4f28419497f9722a3daafe3b4186f6b6457e060405160405180910390a35050565b82805462000171906200038d565b90600052602060002090601f016020900481019282620001955760008555620001e1565b82601f10620001b057805160ff1916838001178555620001e1565b82800160010185558215620001e1579182015b82811115620001e0578251825591602001919060010190620001c3565b5b509050620001f09190620001f4565b5090565b5b808211156200020f576000816000905550600101620001f5565b5090565b60006200022a620002248462000321565b620002f8565b9050828152602081018484840111156200024357600080fd5b6200025084828562000357565b509392505050565b600082601f8301126200026a57600080fd5b81516200027c84826020860162000213565b91505092915050565b600080604083850312156200029957600080fd5b600083015167ffffffffffffffff811115620002b457600080fd5b620002c28582860162000258565b925050602083015167ffffffffffffffff811115620002e057600080fd5b620002ee8582860162000258565b9150509250929050565b60006200030462000317565b9050620003128282620003c3565b919050565b6000604051905090565b600067ffffffffffffffff8211156200033f576200033e62000428565b5b6200034a8262000457565b9050602081019050919050565b60005b83811015620003775780820151818401526020810190506200035a565b8381111562000387576000848401525b50505050565b60006002820490506001821680620003a657607f821691505b60208210811415620003bd57620003bc620003f9565b5b50919050565b620003ce8262000457565b810181811067ffffffffffffffff82111715620003f057620003ef62000428565b5b80604052505050565b7f4e487b7100000000000000000000000000000000000000000000000000000000600052602260045260246000fd5b7f4e487b7100000000000000000000000000000000000000000000000000000000600052604160045260246000fd5b6000601f19601f8301169050919050565b61518b80620004786000396000f3fe6080604052600436106101855760003560e01c8063725009d3116100d1578063b88d4fde1161008a578063e803ff8a11610064578063e803ff8a146105d4578063e985e9c5146105fd578063f2fde38b1461063a578063ffc53be6146106635761018c565b8063b88d4fde14610531578063c87b56dd1461055a578063de83f9e0146105975761018c565b8063725009d3146103fb5780638da5cb5b1461043857806395d89b41146104635780639a2194a91461048e578063a00e0501146104cb578063a22cb465146105085761018c565b806341f3004a1161013e5780636352211e116101185780636352211e1461032d5780636ca347841461036a57806370a08231146103a7578063715018a6146103e45761018c565b806341f3004a146102ae57806342842e0e146102d9578063540c755f146103025761018c565b806301ffc9a71461018e57806306fdde03146101cb578063081812fc146101f6578063095ea7b31461023357806323b872dd1461025c57806340c10f19146102855761018c565b3661018c57005b005b34801561019a57600080fd5b506101b560048036038101906101b09190613911565b61068e565b6040516101c291906140f5565b60405180910390f35b3480156101d757600080fd5b506101e0610770565b6040516101ed9190614110565b60405180910390f35b34801561020257600080fd5b5061021d600480360381019061021891906139b7565b610802565b60405161022a919061400c565b60405180910390f35b34801561023f57600080fd5b5061025a60048036038101906102559190613867565b610887565b005b34801561026857600080fd5b50610283600480360381019061027e9190613761565b61099f565b005b34801561029157600080fd5b506102ac60048036038101906102a79190613867565b6109ff565b005b3480156102ba57600080fd5b506102c3610a0d565b6040516102d091906140d3565b60405180910390f35b3480156102e557600080fd5b5061030060048036038101906102fb9190613761565b610d29565b005b34801561030e57600080fd5b50610317610d49565b60405161032491906140f5565b60405180910390f35b34801561033957600080fd5b50610354600480360381019061034f91906139b7565b610dab565b604051610361919061400c565b60405180910390f35b34801561037657600080fd5b50610391600480360381019061038c9190613a2f565b610e5d565b60405161039e91906140f5565b60405180910390f35b3480156103b357600080fd5b506103ce60048036038101906103c991906136fc565b611213565b6040516103db9190614354565b60405180910390f35b3480156103f057600080fd5b506103f96112cb565b005b34801561040757600080fd5b50610422600480360381019061041d91906139b7565b611353565b60405161042f91906140f5565b60405180910390f35b34801561044457600080fd5b5061044d6113d5565b60405161045a919061400c565b60405180910390f35b34801561046f57600080fd5b506104786113ff565b6040516104859190614110565b60405180910390f35b34801561049a57600080fd5b506104b560048036038101906104b091906136fc565b611491565b6040516104c291906140d3565b60405180910390f35b3480156104d757600080fd5b506104f260048036038101906104ed91906139e0565b6117ec565b6040516104ff91906140f5565b60405180910390f35b34801561051457600080fd5b5061052f600480360381019061052a919061382b565b611a0f565b005b34801561053d57600080fd5b50610558600480360381019061055391906137b0565b611a25565b005b34801561056657600080fd5b50610581600480360381019061057c91906139b7565b611a87565b60405161058e9190614110565b60405180910390f35b3480156105a357600080fd5b506105be60048036038101906105b991906138a3565b611b2e565b6040516105cb91906140f5565b60405180910390f35b3480156105e057600080fd5b506105fb60048036038101906105f69190613963565b611ec4565b005b34801561060957600080fd5b50610624600480360381019061061f9190613725565b611f83565b60405161063191906140f5565b60405180910390f35b34801561064657600080fd5b50610661600480360381019061065c91906136fc565b612017565b005b34801561066f57600080fd5b5061067861210f565b6040516106859190614332565b60405180910390f35b60007f80ac58cd000000000000000000000000000000000000000000000000000000007bffffffffffffffffffffffffffffffffffffffffffffffffffffffff1916827bffffffffffffffffffffffffffffffffffffffffffffffffffffffff1916148061075957507f5b5e139f000000000000000000000000000000000000000000000000000000007bffffffffffffffffffffffffffffffffffffffffffffffffffffffff1916827bffffffffffffffffffffffffffffffffffffffffffffffffffffffff1916145b806107695750610768826124c0565b5b9050919050565b60606000805461077f906148e6565b80601f01602080910402602001604051908101604052809291908181526020018280546107ab906148e6565b80156107f85780601f106107cd576101008083540402835291602001916107f8565b820191906000526020600020905b8154815290600101906020018083116107db57829003601f168201915b5050505050905090565b600061080d8261252a565b61084c576040517f08c379a000000000000000000000000000000000000000000000000000000000815260040161084390614292565b60405180910390fd5b6004600083815260200190815260200160002060009054906101000a900473ffffffffffffffffffffffffffffffffffffffff169050919050565b600061089282610dab565b90508073ffffffffffffffffffffffffffffffffffffffff168373ffffffffffffffffffffffffffffffffffffffff161415610903576040517f08c379a00000000000000000000000000000000000000000000000000000000081526004016108fa906142f2565b60405180910390fd5b8073ffffffffffffffffffffffffffffffffffffffff16610922612596565b73ffffffffffffffffffffffffffffffffffffffff16148061095157506109508161094b612596565b611f83565b5b610990576040517f08c379a000000000000000000000000000000000000000000000000000000000815260040161098790614212565b60405180910390fd5b61099a838361259e565b505050565b6109b06109aa612596565b82612657565b6109ef576040517f08c379a00000000000000000000000000000000000000000000000000000000081526004016109e690614312565b60405180910390fd5b6109fa838383612735565b505050565b610a09828261299c565b5050565b60606007805480602002602001604051908101604052809291908181526020016000905b82821015610d20578382906000526020600020906008020160405180610100016040529081600082018054610a65906148e6565b80601f0160208091040260200160405190810160405280929190818152602001828054610a91906148e6565b8015610ade5780601f10610ab357610100808354040283529160200191610ade565b820191906000526020600020905b815481529060010190602001808311610ac157829003601f168201915b50505050508152602001600182018054610af7906148e6565b80601f0160208091040260200160405190810160405280929190818152602001828054610b23906148e6565b8015610b705780601f10610b4557610100808354040283529160200191610b70565b820191906000526020600020905b815481529060010190602001808311610b5357829003601f168201915b50505050508152602001600282018054610b89906148e6565b80601f0160208091040260200160405190810160405280929190818152602001828054610bb5906148e6565b8015610c025780601f10610bd757610100808354040283529160200191610c02565b820191906000526020600020905b815481529060010190602001808311610be557829003601f168201915b50505050508152602001600382018054610c1b906148e6565b80601f0160208091040260200160405190810160405280929190818152602001828054610c47906148e6565b8015610c945780601f10610c6957610100808354040283529160200191610c94565b820191906000526020600020905b815481529060010190602001808311610c7757829003601f168201915b505050505081526020016004820154815260200160058201548152602001600682015481526020016007820160009054906101000a900473ffffffffffffffffffffffffffffffffffffffff1673ffffffffffffffffffffffffffffffffffffffff1673ffffffffffffffffffffffffffffffffffffffff168152505081526020019060010190610a31565b50505050905090565b610d4483838360405180602001604052806000815250611a25565b505050565b6000804790506000610d596113d5565b90508073ffffffffffffffffffffffffffffffffffffffff166108fc839081150290604051600060405180830381858888f19350505050158015610da1573d6000803e3d6000fd5b5060019250505090565b6000806002600084815260200190815260200160002060009054906101000a900473ffffffffffffffffffffffffffffffffffffffff169050600073ffffffffffffffffffffffffffffffffffffffff168173ffffffffffffffffffffffffffffffffffffffff161415610e54576040517f08c379a0000000000000000000000000000000000000000000000000000000008152600401610e4b90614252565b60405180910390fd5b80915050919050565b600080610e698461252a565b905080610ead57836040517f9b846d02000000000000000000000000000000000000000000000000000000008152600401610ea49190614354565b60405180910390fd5b6000610eb885612b76565b90508060a00151861015610f0957858160a001516040517fe77e6044000000000000000000000000000000000000000000000000000000008152600401610f0092919061436f565b60405180910390fd5b85600860008360e0015173ffffffffffffffffffffffffffffffffffffffff1673ffffffffffffffffffffffffffffffffffffffff16815260200190815260200160002060008673ffffffffffffffffffffffffffffffffffffffff1673ffffffffffffffffffffffffffffffffffffffff1681526020019081526020016000206000828254610f9991906144f2565b925050819055508373ffffffffffffffffffffffffffffffffffffffff1663095ea7b330886040518363ffffffff1660e01b8152600401610fdb9291906140aa565b602060405180830381600087803b158015610ff557600080fd5b505af1158015611009573d6000803e3d6000fd5b505050506040513d601f19601f8201168201806040525081019061102d91906138e8565b508373ffffffffffffffffffffffffffffffffffffffff166323b872dd338360e00151896040518463ffffffff1660e01b815260040161106f93929190614027565b602060405180830381600087803b15801561108957600080fd5b505af115801561109d573d6000803e3d6000fd5b505050506040513d601f19601f820116820180604052508101906110c191906138e8565b50600a60003373ffffffffffffffffffffffffffffffffffffffff1673ffffffffffffffffffffffffffffffffffffffff16815260200190815260200160002081908060018154018082558091505060019003906000526020600020906008020160009091909190915060008201518160000190805190602001906111479291906134b2565b5060208201518160010190805190602001906111649291906134b2565b5060408201518160020190805190602001906111819291906134b2565b50606082015181600301908051906020019061119e9291906134b2565b506080820151816004015560a0820151816005015560c0820151816006015560e08201518160070160006101000a81548173ffffffffffffffffffffffffffffffffffffffff021916908373ffffffffffffffffffffffffffffffffffffffff16021790555050506001925050509392505050565b60008073ffffffffffffffffffffffffffffffffffffffff168273ffffffffffffffffffffffffffffffffffffffff161415611284576040517f08c379a000000000000000000000000000000000000000000000000000000000815260040161127b90614232565b60405180910390fd5b600360008373ffffffffffffffffffffffffffffffffffffffff1673ffffffffffffffffffffffffffffffffffffffff168152602001908152602001600020549050919050565b6112d3612596565b73ffffffffffffffffffffffffffffffffffffffff166112f16113d5565b73ffffffffffffffffffffffffffffffffffffffff1614611347576040517f08c379a000000000000000000000000000000000000000000000000000000000815260040161133e906142b2565b60405180910390fd5b6113516000612e9b565b565b60008061135f8361252a565b9050806113a357826040517f9b846d0200000000000000000000000000000000000000000000000000000000815260040161139a9190614354565b60405180910390fd5b60006113ae84612b76565b905060018160c0018181516113c391906144f2565b91508181525050600192505050919050565b6000600660009054906101000a900473ffffffffffffffffffffffffffffffffffffffff16905090565b60606001805461140e906148e6565b80601f016020809104026020016040519081016040528092919081815260200182805461143a906148e6565b80156114875780601f1061145c57610100808354040283529160200191611487565b820191906000526020600020905b81548152906001019060200180831161146a57829003601f168201915b5050505050905090565b6060600a60008373ffffffffffffffffffffffffffffffffffffffff1673ffffffffffffffffffffffffffffffffffffffff168152602001908152602001600020805480602002602001604051908101604052809291908181526020016000905b828210156117e1578382906000526020600020906008020160405180610100016040529081600082018054611526906148e6565b80601f0160208091040260200160405190810160405280929190818152602001828054611552906148e6565b801561159f5780601f106115745761010080835404028352916020019161159f565b820191906000526020600020905b81548152906001019060200180831161158257829003601f168201915b505050505081526020016001820180546115b8906148e6565b80601f01602080910402602001604051908101604052809291908181526020018280546115e4906148e6565b80156116315780601f1061160657610100808354040283529160200191611631565b820191906000526020600020905b81548152906001019060200180831161161457829003601f168201915b5050505050815260200160028201805461164a906148e6565b80601f0160208091040260200160405190810160405280929190818152602001828054611676906148e6565b80156116c35780601f10611698576101008083540402835291602001916116c3565b820191906000526020600020905b8154815290600101906020018083116116a657829003601f168201915b505050505081526020016003820180546116dc906148e6565b80601f0160208091040260200160405190810160405280929190818152602001828054611708906148e6565b80156117555780601f1061172a57610100808354040283529160200191611755565b820191906000526020600020905b81548152906001019060200180831161173857829003601f168201915b505050505081526020016004820154815260200160058201548152602001600682015481526020016007820160009054906101000a900473ffffffffffffffffffffffffffffffffffffffff1673ffffffffffffffffffffffffffffffffffffffff1673ffffffffffffffffffffffffffffffffffffffff1681525050815260200190600101906114f2565b505050509050919050565b6000806117f88361252a565b90508061183c57826040517f9b846d020000000000000000000000000000000000000000000000000000000081526004016118339190614354565b60405180910390fd5b600061184784612b76565b905085600860008360e0015173ffffffffffffffffffffffffffffffffffffffff1673ffffffffffffffffffffffffffffffffffffffff16815260200190815260200160002060008773ffffffffffffffffffffffffffffffffffffffff1673ffffffffffffffffffffffffffffffffffffffff16815260200190815260200160002060008282546118d991906144f2565b925050819055508473ffffffffffffffffffffffffffffffffffffffff1663095ea7b330886040518363ffffffff1660e01b815260040161191b9291906140aa565b602060405180830381600087803b15801561193557600080fd5b505af1158015611949573d6000803e3d6000fd5b505050506040513d601f19601f8201168201806040525081019061196d91906138e8565b508473ffffffffffffffffffffffffffffffffffffffff166323b872dd338360e00151896040518463ffffffff1660e01b81526004016119af93929190614027565b602060405180830381600087803b1580156119c957600080fd5b505af11580156119dd573d6000803e3d6000fd5b505050506040513d601f19601f82011682018060405250810190611a0191906138e8565b506001925050509392505050565b611a21611a1a612596565b8383612f61565b5050565b611a36611a30612596565b83612657565b611a75576040517f08c379a0000000000000000000000000000000000000000000000000000000008152600401611a6c90614312565b60405180910390fd5b611a81848484846130ce565b50505050565b6060611a928261252a565b611ad1576040517f08c379a0000000000000000000000000000000000000000000000000000000008152600401611ac8906142d2565b60405180910390fd5b6000611adb61312a565b90506000815111611afb5760405180602001604052806000815250611b26565b80611b0584613141565b604051602001611b16929190613fe8565b6040516020818303038152906040525b915050919050565b60006001838390501015611ced576000600860003373ffffffffffffffffffffffffffffffffffffffff1673ffffffffffffffffffffffffffffffffffffffff168152602001908152602001600020600085856000818110611bb9577f4e487b7100000000000000000000000000000000000000000000000000000000600052603260045260246000fd5b9050602002016020810190611bce91906136fc565b73ffffffffffffffffffffffffffffffffffffffff1673ffffffffffffffffffffffffffffffffffffffff16815260200190815260200160002054905083836000818110611c45577f4e487b7100000000000000000000000000000000000000000000000000000000600052603260045260246000fd5b9050602002016020810190611c5a91906136fc565b73ffffffffffffffffffffffffffffffffffffffff1663a9059cbb33836040518363ffffffff1660e01b8152600401611c949291906140aa565b602060405180830381600087803b158015611cae57600080fd5b505af1158015611cc2573d6000803e3d6000fd5b505050506040513d601f19601f82011682018060405250810190611ce691906138e8565b5050611eba565b60005b83839050811015611eb8576000600860003373ffffffffffffffffffffffffffffffffffffffff1673ffffffffffffffffffffffffffffffffffffffff1681526020019081526020016000206000868685818110611d77577f4e487b7100000000000000000000000000000000000000000000000000000000600052603260045260246000fd5b9050602002016020810190611d8c91906136fc565b73ffffffffffffffffffffffffffffffffffffffff1673ffffffffffffffffffffffffffffffffffffffff168152602001908152602001600020549050848483818110611e02577f4e487b7100000000000000000000000000000000000000000000000000000000600052603260045260246000fd5b9050602002016020810190611e1791906136fc565b73ffffffffffffffffffffffffffffffffffffffff1663a9059cbb33836040518363ffffffff1660e01b8152600401611e519291906140aa565b602060405180830381600087803b158015611e6b57600080fd5b505af1158015611e7f573d6000803e3d6000fd5b505050506040513d601f19601f82011682018060405250810190611ea391906138e8565b50508080611eb090614965565b915050611cf0565b505b6001905092915050565b60078290806001815401808255809150506001900390600052602060002090600802016000909190919091508181611efc919061509e565b5050600960003373ffffffffffffffffffffffffffffffffffffffff1673ffffffffffffffffffffffffffffffffffffffff1681526020019081526020016000208290806001815401808255809150506001900390600052602060002090600802016000909190919091508181611f73919061509e565b5050611f7f33826109ff565b5050565b6000600560008473ffffffffffffffffffffffffffffffffffffffff1673ffffffffffffffffffffffffffffffffffffffff16815260200190815260200160002060008373ffffffffffffffffffffffffffffffffffffffff1673ffffffffffffffffffffffffffffffffffffffff16815260200190815260200160002060009054906101000a900460ff16905092915050565b61201f612596565b73ffffffffffffffffffffffffffffffffffffffff1661203d6113d5565b73ffffffffffffffffffffffffffffffffffffffff1614612093576040517f08c379a000000000000000000000000000000000000000000000000000000000815260040161208a906142b2565b60405180910390fd5b600073ffffffffffffffffffffffffffffffffffffffff168173ffffffffffffffffffffffffffffffffffffffff161415612103576040517f08c379a00000000000000000000000000000000000000000000000000000000081526004016120fa90614152565b60405180910390fd5b61210c81612e9b565b50565b612117613538565b60606000612123613538565b60005b6007805490508110156124b65760006007828154811061216f577f4e487b7100000000000000000000000000000000000000000000000000000000600052603260045260246000fd5b906000526020600020906008020160405180610100016040529081600082018054612199906148e6565b80601f01602080910402602001604051908101604052809291908181526020018280546121c5906148e6565b80156122125780601f106121e757610100808354040283529160200191612212565b820191906000526020600020905b8154815290600101906020018083116121f557829003601f168201915b5050505050815260200160018201805461222b906148e6565b80601f0160208091040260200160405190810160405280929190818152602001828054612257906148e6565b80156122a45780601f10612279576101008083540402835291602001916122a4565b820191906000526020600020905b81548152906001019060200180831161228757829003601f168201915b505050505081526020016002820180546122bd906148e6565b80601f01602080910402602001604051908101604052809291908181526020018280546122e9906148e6565b80156123365780601f1061230b57610100808354040283529160200191612336565b820191906000526020600020905b81548152906001019060200180831161231957829003601f168201915b5050505050815260200160038201805461234f906148e6565b80601f016020809104026020016040519081016040528092919081815260200182805461237b906148e6565b80156123c85780601f1061239d576101008083540402835291602001916123c8565b820191906000526020600020905b8154815290600101906020018083116123ab57829003601f168201915b505050505081526020016004820154815260200160058201548152602001600682015481526020016007820160009054906101000a900473ffffffffffffffffffffffffffffffffffffffff1673ffffffffffffffffffffffffffffffffffffffff1673ffffffffffffffffffffffffffffffffffffffff1681525050905060008160c001519050858181518110612489577f4e487b7100000000000000000000000000000000000000000000000000000000600052603260045260246000fd5b602002602001015150848111156124a1578094508193505b505080806124ae90614965565b915050612126565b5080935050505090565b60007f01ffc9a7000000000000000000000000000000000000000000000000000000007bffffffffffffffffffffffffffffffffffffffffffffffffffffffff1916827bffffffffffffffffffffffffffffffffffffffffffffffffffffffff1916149050919050565b60008073ffffffffffffffffffffffffffffffffffffffff166002600084815260200190815260200160002060009054906101000a900473ffffffffffffffffffffffffffffffffffffffff1673ffffffffffffffffffffffffffffffffffffffff1614159050919050565b600033905090565b816004600083815260200190815260200160002060006101000a81548173ffffffffffffffffffffffffffffffffffffffff021916908373ffffffffffffffffffffffffffffffffffffffff160217905550808273ffffffffffffffffffffffffffffffffffffffff1661261183610dab565b73ffffffffffffffffffffffffffffffffffffffff167f8c5be1e5ebec7d5bd14f71427d1e84f3dd0314c0f7b2291e5b200ac8c7c3b92560405160405180910390a45050565b60006126628261252a565b6126a1576040517f08c379a0000000000000000000000000000000000000000000000000000000008152600401612698906141f2565b60405180910390fd5b60006126ac83610dab565b90508073ffffffffffffffffffffffffffffffffffffffff168473ffffffffffffffffffffffffffffffffffffffff1614806126ee57506126ed8185611f83565b5b8061272c57508373ffffffffffffffffffffffffffffffffffffffff1661271484610802565b73ffffffffffffffffffffffffffffffffffffffff16145b91505092915050565b8273ffffffffffffffffffffffffffffffffffffffff1661275582610dab565b73ffffffffffffffffffffffffffffffffffffffff16146127ab576040517f08c379a00000000000000000000000000000000000000000000000000000000081526004016127a290614172565b60405180910390fd5b600073ffffffffffffffffffffffffffffffffffffffff168273ffffffffffffffffffffffffffffffffffffffff16141561281b576040517f08c379a0000000000000000000000000000000000000000000000000000000008152600401612812906141b2565b60405180910390fd5b6128268383836132ee565b61283160008261259e565b6001600360008573ffffffffffffffffffffffffffffffffffffffff1673ffffffffffffffffffffffffffffffffffffffff16815260200190815260200160002060008282546128819190614579565b925050819055506001600360008473ffffffffffffffffffffffffffffffffffffffff1673ffffffffffffffffffffffffffffffffffffffff16815260200190815260200160002060008282546128d891906144f2565b92505081905550816002600083815260200190815260200160002060006101000a81548173ffffffffffffffffffffffffffffffffffffffff021916908373ffffffffffffffffffffffffffffffffffffffff160217905550808273ffffffffffffffffffffffffffffffffffffffff168473ffffffffffffffffffffffffffffffffffffffff167fddf252ad1be2c89b69c2b068fc378daa952ba7f163c4a11628f55a4df523b3ef60405160405180910390a46129978383836132f3565b505050565b600073ffffffffffffffffffffffffffffffffffffffff168273ffffffffffffffffffffffffffffffffffffffff161415612a0c576040517f08c379a0000000000000000000000000000000000000000000000000000000008152600401612a0390614272565b60405180910390fd5b612a158161252a565b15612a55576040517f08c379a0000000000000000000000000000000000000000000000000000000008152600401612a4c90614192565b60405180910390fd5b612a61600083836132ee565b6001600360008473ffffffffffffffffffffffffffffffffffffffff1673ffffffffffffffffffffffffffffffffffffffff1681526020019081526020016000206000828254612ab191906144f2565b92505081905550816002600083815260200190815260200160002060006101000a81548173ffffffffffffffffffffffffffffffffffffffff021916908373ffffffffffffffffffffffffffffffffffffffff160217905550808273ffffffffffffffffffffffffffffffffffffffff16600073ffffffffffffffffffffffffffffffffffffffff167fddf252ad1be2c89b69c2b068fc378daa952ba7f163c4a11628f55a4df523b3ef60405160405180910390a4612b72600083836132f3565b5050565b612b7e613538565b600060078381548110612bba577f4e487b7100000000000000000000000000000000000000000000000000000000600052603260045260246000fd5b906000526020600020906008020160405180610100016040529081600082018054612be4906148e6565b80601f0160208091040260200160405190810160405280929190818152602001828054612c10906148e6565b8015612c5d5780601f10612c3257610100808354040283529160200191612c5d565b820191906000526020600020905b815481529060010190602001808311612c4057829003601f168201915b50505050508152602001600182018054612c76906148e6565b80601f0160208091040260200160405190810160405280929190818152602001828054612ca2906148e6565b8015612cef5780601f10612cc457610100808354040283529160200191612cef565b820191906000526020600020905b815481529060010190602001808311612cd257829003601f168201915b50505050508152602001600282018054612d08906148e6565b80601f0160208091040260200160405190810160405280929190818152602001828054612d34906148e6565b8015612d815780601f10612d5657610100808354040283529160200191612d81565b820191906000526020600020905b815481529060010190602001808311612d6457829003601f168201915b50505050508152602001600382018054612d9a906148e6565b80601f0160208091040260200160405190810160405280929190818152602001828054612dc6906148e6565b8015612e135780601f10612de857610100808354040283529160200191612e13565b820191906000526020600020905b815481529060010190602001808311612df657829003601f168201915b505050505081526020016004820154815260200160058201548152602001600682015481526020016007820160009054906101000a900473ffffffffffffffffffffffffffffffffffffffff1673ffffffffffffffffffffffffffffffffffffffff1673ffffffffffffffffffffffffffffffffffffffff1681525050905080915050919050565b6000600660009054906101000a900473ffffffffffffffffffffffffffffffffffffffff16905081600660006101000a81548173ffffffffffffffffffffffffffffffffffffffff021916908373ffffffffffffffffffffffffffffffffffffffff1602179055508173ffffffffffffffffffffffffffffffffffffffff168173ffffffffffffffffffffffffffffffffffffffff167f8be0079c531659141344cd1fd0a4f28419497f9722a3daafe3b4186f6b6457e060405160405180910390a35050565b8173ffffffffffffffffffffffffffffffffffffffff168373ffffffffffffffffffffffffffffffffffffffff161415612fd0576040517f08c379a0000000000000000000000000000000000000000000000000000000008152600401612fc7906141d2565b60405180910390fd5b80600560008573ffffffffffffffffffffffffffffffffffffffff1673ffffffffffffffffffffffffffffffffffffffff16815260200190815260200160002060008473ffffffffffffffffffffffffffffffffffffffff1673ffffffffffffffffffffffffffffffffffffffff16815260200190815260200160002060006101000a81548160ff0219169083151502179055508173ffffffffffffffffffffffffffffffffffffffff168373ffffffffffffffffffffffffffffffffffffffff167f17307eab39ab6107e8899845ad3d59bd9653f200f220920489ca2b5937696c31836040516130c191906140f5565b60405180910390a3505050565b6130d9848484612735565b6130e5848484846132f8565b613124576040517f08c379a000000000000000000000000000000000000000000000000000000000815260040161311b90614132565b60405180910390fd5b50505050565b606060405180602001604052806000815250905090565b60606000821415613189576040518060400160405280600181526020017f300000000000000000000000000000000000000000000000000000000000000081525090506132e9565b600082905060005b600082146131bb5780806131a490614965565b915050600a826131b49190614548565b9150613191565b60008167ffffffffffffffff8111156131fd577f4e487b7100000000000000000000000000000000000000000000000000000000600052604160045260246000fd5b6040519080825280601f01601f19166020018201604052801561322f5781602001600182028036833780820191505090505b5090505b600085146132e2576001826132489190614579565b9150600a8561325791906149cc565b603061326391906144f2565b60f81b81838151811061329f577f4e487b7100000000000000000000000000000000000000000000000000000000600052603260045260246000fd5b60200101907effffffffffffffffffffffffffffffffffffffffffffffffffffffffffffff1916908160001a905350600a856132db9190614548565b9450613233565b8093505050505b919050565b505050565b505050565b60006133198473ffffffffffffffffffffffffffffffffffffffff1661348f565b15613482578373ffffffffffffffffffffffffffffffffffffffff1663150b7a02613342612596565b8786866040518563ffffffff1660e01b8152600401613364949392919061405e565b602060405180830381600087803b15801561337e57600080fd5b505af19250505080156133af57506040513d601f19601f820116820180604052508101906133ac919061393a565b60015b613432573d80600081146133df576040519150601f19603f3d011682016040523d82523d6000602084013e6133e4565b606091505b5060008151141561342a576040517f08c379a000000000000000000000000000000000000000000000000000000000815260040161342190614132565b60405180910390fd5b805181602001fd5b63150b7a0260e01b7bffffffffffffffffffffffffffffffffffffffffffffffffffffffff1916817bffffffffffffffffffffffffffffffffffffffffffffffffffffffff191614915050613487565b600190505b949350505050565b6000808273ffffffffffffffffffffffffffffffffffffffff163b119050919050565b8280546134be906148e6565b90600052602060002090601f0160209004810192826134e05760008555613527565b82601f106134f957805160ff1916838001178555613527565b82800160010185558215613527579182015b8281111561352657825182559160200191906001019061350b565b5b5090506135349190613593565b5090565b60405180610100016040528060608152602001606081526020016060815260200160608152602001600081526020016000815260200160008152602001600073ffffffffffffffffffffffffffffffffffffffff1681525090565b5b808211156135ac576000816000905550600101613594565b5090565b60006135c36135be84614414565b6143ef565b9050828152602081018484840111156135db57600080fd5b6135e6848285614798565b509392505050565b6000813590506135fd816150f4565b92915050565b60008083601f84011261361557600080fd5b8235905067ffffffffffffffff81111561362e57600080fd5b60208301915083602082028301111561364657600080fd5b9250929050565b60008135905061365c8161510b565b92915050565b6000815190506136718161510b565b92915050565b60008135905061368681615122565b92915050565b60008151905061369b81615122565b92915050565b600082601f8301126136b257600080fd5b81356136c28482602086016135b0565b91505092915050565b600061010082840312156136de57600080fd5b81905092915050565b6000813590506136f681615139565b92915050565b60006020828403121561370e57600080fd5b600061371c848285016135ee565b91505092915050565b6000806040838503121561373857600080fd5b6000613746858286016135ee565b9250506020613757858286016135ee565b9150509250929050565b60008060006060848603121561377657600080fd5b6000613784868287016135ee565b9350506020613795868287016135ee565b92505060406137a6868287016136e7565b9150509250925092565b600080600080608085870312156137c657600080fd5b60006137d4878288016135ee565b94505060206137e5878288016135ee565b93505060406137f6878288016136e7565b925050606085013567ffffffffffffffff81111561381357600080fd5b61381f878288016136a1565b91505092959194509250565b6000806040838503121561383e57600080fd5b600061384c858286016135ee565b925050602061385d8582860161364d565b9150509250929050565b6000806040838503121561387a57600080fd5b6000613888858286016135ee565b9250506020613899858286016136e7565b9150509250929050565b600080602083850312156138b657600080fd5b600083013567ffffffffffffffff8111156138d057600080fd5b6138dc85828601613603565b92509250509250929050565b6000602082840312156138fa57600080fd5b600061390884828501613662565b91505092915050565b60006020828403121561392357600080fd5b600061393184828501613677565b91505092915050565b60006020828403121561394c57600080fd5b600061395a8482850161368c565b91505092915050565b6000806040838503121561397657600080fd5b600083013567ffffffffffffffff81111561399057600080fd5b61399c858286016136cb565b92505060206139ad858286016136e7565b9150509250929050565b6000602082840312156139c957600080fd5b60006139d7848285016136e7565b91505092915050565b6000806000606084860312156139f557600080fd5b6000613a03868287016136e7565b9350506020613a14868287016135ee565b9250506040613a25868287016136e7565b9150509250925092565b600080600060608486031215613a4457600080fd5b6000613a52868287016136e7565b9350506020613a63868287016136e7565b9250506040613a74868287016135ee565b9150509250925092565b6000613a8a8383613e40565b905092915050565b613a9b816145ad565b82525050565b613aaa816145ad565b82525050565b6000613abb8261446a565b613ac581856144a3565b935083602082028501613ad785614445565b8060005b85811015613b135784840389528151613af48582613a7e565b9450613aff83614496565b925060208a01995050600181019050613adb565b50829750879550505050505092915050565b613b2e816145bf565b82525050565b6000613b3f82614475565b613b4981856144b4565b9350613b598185602086016147a7565b613b6281614af9565b840191505092915050565b6000613b788261448b565b613b8281856144c5565b9350613b928185602086016147a7565b613b9b81614af9565b840191505092915050565b6000613bb18261448b565b613bbb81856144d6565b9350613bcb8185602086016147a7565b613bd481614af9565b840191505092915050565b6000613bea8261448b565b613bf481856144e7565b9350613c048185602086016147a7565b80840191505092915050565b6000613c1d6032836144d6565b9150613c2882614b49565b604082019050919050565b6000613c406026836144d6565b9150613c4b82614b98565b604082019050919050565b6000613c636025836144d6565b9150613c6e82614be7565b604082019050919050565b6000613c86601c836144d6565b9150613c9182614c36565b602082019050919050565b6000613ca96024836144d6565b9150613cb482614c5f565b604082019050919050565b6000613ccc6019836144d6565b9150613cd782614cae565b602082019050919050565b6000613cef602c836144d6565b9150613cfa82614cd7565b604082019050919050565b6000613d126038836144d6565b9150613d1d82614d26565b604082019050919050565b6000613d35602a836144d6565b9150613d4082614d75565b604082019050919050565b6000613d586029836144d6565b9150613d6382614dc4565b604082019050919050565b6000613d7b6020836144d6565b9150613d8682614e13565b602082019050919050565b6000613d9e602c836144d6565b9150613da982614e3c565b604082019050919050565b6000613dc16020836144d6565b9150613dcc82614e8b565b602082019050919050565b6000613de4602f836144d6565b9150613def82614eb4565b604082019050919050565b6000613e076021836144d6565b9150613e1282614f03565b604082019050919050565b6000613e2a6031836144d6565b9150613e3582614f52565b604082019050919050565b6000610100830160008301518482036000860152613e5e8282613b6d565b91505060208301518482036020860152613e788282613b6d565b91505060408301518482036040860152613e928282613b6d565b91505060608301518482036060860152613eac8282613b6d565b9150506080830151613ec16080860182613fca565b5060a0830151613ed460a0860182613fca565b5060c0830151613ee760c0860182613fca565b5060e0830151613efa60e0860182613a92565b508091505092915050565b6000610100830160008301518482036000860152613f238282613b6d565b91505060208301518482036020860152613f3d8282613b6d565b91505060408301518482036040860152613f578282613b6d565b91505060608301518482036060860152613f718282613b6d565b9150506080830151613f866080860182613fca565b5060a0830151613f9960a0860182613fca565b5060c0830151613fac60c0860182613fca565b5060e0830151613fbf60e0860182613a92565b508091505092915050565b613fd381614617565b82525050565b613fe281614617565b82525050565b6000613ff48285613bdf565b91506140008284613bdf565b91508190509392505050565b60006020820190506140216000830184613aa1565b92915050565b600060608201905061403c6000830186613aa1565b6140496020830185613aa1565b6140566040830184613fd9565b949350505050565b60006080820190506140736000830187613aa1565b6140806020830186613aa1565b61408d6040830185613fd9565b818103606083015261409f8184613b34565b905095945050505050565b60006040820190506140bf6000830185613aa1565b6140cc6020830184613fd9565b9392505050565b600060208201905081810360008301526140ed8184613ab0565b905092915050565b600060208201905061410a6000830184613b25565b92915050565b6000602082019050818103600083015261412a8184613ba6565b905092915050565b6000602082019050818103600083015261414b81613c10565b9050919050565b6000602082019050818103600083015261416b81613c33565b9050919050565b6000602082019050818103600083015261418b81613c56565b9050919050565b600060208201905081810360008301526141ab81613c79565b9050919050565b600060208201905081810360008301526141cb81613c9c565b9050919050565b600060208201905081810360008301526141eb81613cbf565b9050919050565b6000602082019050818103600083015261420b81613ce2565b9050919050565b6000602082019050818103600083015261422b81613d05565b9050919050565b6000602082019050818103600083015261424b81613d28565b9050919050565b6000602082019050818103600083015261426b81613d4b565b9050919050565b6000602082019050818103600083015261428b81613d6e565b9050919050565b600060208201905081810360008301526142ab81613d91565b9050919050565b600060208201905081810360008301526142cb81613db4565b9050919050565b600060208201905081810360008301526142eb81613dd7565b9050919050565b6000602082019050818103600083015261430b81613dfa565b9050919050565b6000602082019050818103600083015261432b81613e1d565b9050919050565b6000602082019050818103600083015261434c8184613f05565b905092915050565b60006020820190506143696000830184613fd9565b92915050565b60006040820190506143846000830185613fd9565b6143916020830184613fd9565b9392505050565b600080833560016020038436030381126143b157600080fd5b80840192508235915067ffffffffffffffff8211156143cf57600080fd5b6020830192506001820236038313156143e757600080fd5b509250929050565b60006143f961440a565b90506144058282614934565b919050565b6000604051905090565b600067ffffffffffffffff82111561442f5761442e614a8a565b5b61443882614af9565b9050602081019050919050565b6000819050602082019050919050565b60008190508160005260206000209050919050565b600081519050919050565b600081519050919050565b600082905092915050565b600081519050919050565b6000602082019050919050565b600082825260208201905092915050565b600082825260208201905092915050565b600082825260208201905092915050565b600082825260208201905092915050565b600081905092915050565b60006144fd82614617565b915061450883614617565b9250827fffffffffffffffffffffffffffffffffffffffffffffffffffffffffffffffff0382111561453d5761453c6149fd565b5b828201905092915050565b600061455382614617565b915061455e83614617565b92508261456e5761456d614a2c565b5b828204905092915050565b600061458482614617565b915061458f83614617565b9250828210156145a2576145a16149fd565b5b828203905092915050565b60006145b8826145f7565b9050919050565b60008115159050919050565b60007fffffffff0000000000000000000000000000000000000000000000000000000082169050919050565b600073ffffffffffffffffffffffffffffffffffffffff82169050919050565b6000819050919050565b5b8181101561464057614635600082614b31565b600181019050614622565b5050565b600061464f82614656565b9050919050565b600061466182614668565b9050919050565b6000614673826145f7565b9050919050565b600061468582614617565b9050919050565b6146968383614480565b67ffffffffffffffff8111156146af576146ae614a8a565b5b6146b982546148e6565b600080601f8411601f841117156146d6576146d385614455565b90505b601f831115614709576020601f850104810160208510156146f5578190505b6147076020601f860104830182614621565b505b601f8411600181146147365760008515614724578388013590505b61472e8682614918565b87555061478e565b601f1985168260005b8281101561476457858a0135825560018201915060208601955060208101905061473f565b8783101561478157858a013561477d601f8a16826149ae565b8355505b6001600289020189555050505b5050505050505050565b82818337600083830152505050565b60005b838110156147c55780820151818401526020810190506147aa565b838111156147d4576000848401525b50505050565b60008101600083016147ec8185614398565b6147f781838661508e565b50505050600181016020830161480d8185614398565b61481881838661508e565b50505050600281016040830161482e8185614398565b61483981838661508e565b50505050600381016060830161484f8185614398565b61485a81838661508e565b5050505060048101608083018061487081614ae3565b905061487c81846150ac565b5050506005810160a083018061489181614ae3565b905061489d81846150ac565b5050506006810160c08301806148b281614ae3565b90506148be81846150ac565b5050506007810160e08301806148d381614acd565b90506148df818461506b565b5050505050565b600060028204905060018216806148fe57607f821691505b6020821081141561491257614911614a5b565b5b50919050565b600061492483836149ae565b9150826002028217905092915050565b61493d82614af9565b810181811067ffffffffffffffff8211171561495c5761495b614a8a565b5b80604052505050565b600061497082614617565b91507fffffffffffffffffffffffffffffffffffffffffffffffffffffffffffffffff8214156149a3576149a26149fd565b5b600182019050919050565b60006149bf60001984600802614b24565b1980831691505092915050565b60006149d782614617565b91506149e283614617565b9250826149f2576149f1614a2c565b5b828206905092915050565b7f4e487b7100000000000000000000000000000000000000000000000000000000600052601160045260246000fd5b7f4e487b7100000000000000000000000000000000000000000000000000000000600052601260045260246000fd5b7f4e487b7100000000000000000000000000000000000000000000000000000000600052602260045260246000fd5b7f4e487b7100000000000000000000000000000000000000000000000000000000600052604160045260246000fd5b6000819050919050565b6000819050919050565b60008135614ada816150f4565b80915050919050565b60008135614af081615139565b80915050919050565b6000601f19601f8301169050919050565b60008160001b9050919050565b600082821b905092915050565b600082821c905092915050565b614b39615150565b614b448184846150cf565b505050565b7f4552433732313a207472616e7366657220746f206e6f6e20455243373231526560008201527f63656976657220696d706c656d656e7465720000000000000000000000000000602082015250565b7f4f776e61626c653a206e6577206f776e657220697320746865207a65726f206160008201527f6464726573730000000000000000000000000000000000000000000000000000602082015250565b7f4552433732313a207472616e736665722066726f6d20696e636f72726563742060008201527f6f776e6572000000000000000000000000000000000000000000000000000000602082015250565b7f4552433732313a20746f6b656e20616c7265616479206d696e74656400000000600082015250565b7f4552433732313a207472616e7366657220746f20746865207a65726f2061646460008201527f7265737300000000000000000000000000000000000000000000000000000000602082015250565b7f4552433732313a20617070726f766520746f2063616c6c657200000000000000600082015250565b7f4552433732313a206f70657261746f7220717565727920666f72206e6f6e657860008201527f697374656e7420746f6b656e0000000000000000000000000000000000000000602082015250565b7f4552433732313a20617070726f76652063616c6c6572206973206e6f74206f7760008201527f6e6572206e6f7220617070726f76656420666f7220616c6c0000000000000000602082015250565b7f4552433732313a2062616c616e636520717565727920666f7220746865207a6560008201527f726f206164647265737300000000000000000000000000000000000000000000602082015250565b7f4552433732313a206f776e657220717565727920666f72206e6f6e657869737460008201527f656e7420746f6b656e0000000000000000000000000000000000000000000000602082015250565b7f4552433732313a206d696e7420746f20746865207a65726f2061646472657373600082015250565b7f4552433732313a20617070726f76656420717565727920666f72206e6f6e657860008201527f697374656e7420746f6b656e0000000000000000000000000000000000000000602082015250565b7f4f776e61626c653a2063616c6c6572206973206e6f7420746865206f776e6572600082015250565b7f4552433732314d657461646174613a2055524920717565727920666f72206e6f60008201527f6e6578697374656e7420746f6b656e0000000000000000000000000000000000602082015250565b7f4552433732313a20617070726f76616c20746f2063757272656e74206f776e6560008201527f7200000000000000000000000000000000000000000000000000000000000000602082015250565b7f4552433732313a207472616e736665722063616c6c6572206973206e6f74206f60008201527f776e6572206e6f7220617070726f766564000000000000000000000000000000602082015250565b600073ffffffffffffffffffffffffffffffffffffffff614fc184614b0a565b9350801983169250808416831791505092915050565b60007fffffffffffffffffffffffffffffffffffffffffffffffffffffffffffffffff61500384614b0a565b9350801983169250808416831791505092915050565b6000600883026150497fffffffffffffffffffffffffffffffffffffffffffffffffffffffffffffffff82614b17565b6150538683614b17565b95508019841693508086168417925050509392505050565b61507482614644565b61508761508082614ab9565b8354614fa1565b8255505050565b61509983838361468c565b505050565b6150a882826147da565b5050565b6150b58261467a565b6150c86150c182614ac3565b8354614fd7565b8255505050565b6150d88361467a565b6150ec6150e482614ac3565b848454615019565b825550505050565b6150fd816145ad565b811461510857600080fd5b50565b615114816145bf565b811461511f57600080fd5b50565b61512b816145cb565b811461513657600080fd5b50565b61514281614617565b811461514d57600080fd5b50565b60009056fea26469706673582212201f48c572d8fbce61366b32a76cc4e769808c5b711b4b7ef6a2810f0a153b9f0764736f6c63430008040033",
  "immutableReferences": {},
  "source": "// SPDX-License-Identifier: MIT\r\npragma solidity 0.8.4;\r\n\r\nimport '@openzeppelin/contracts/token/ERC721/ERC721.sol';\r\nimport '@openzeppelin/contracts/token/ERC20/IERC20.sol';\r\nimport '@openzeppelin/contracts/access/Ownable.sol';\r\nimport \"@openzeppelin/contracts/utils/Strings.sol\";\r\n\r\ncontract BlogGen is ERC721, Ownable {\r\n\r\n    struct Post {\r\n        string uri;\r\n        string title;\r\n        string desc;\r\n        string creator;\r\n        uint id;\r\n        uint price;\r\n        uint likes;\r\n        address wallet;\r\n    }\r\n\r\n    Post[] posts;\r\n\r\n    mapping(address => mapping(address => uint)) creatorBalances;\r\n    mapping(address => Post[]) creatorPosts;\r\n    mapping(address => Post[]) userBoughtPosts;\r\n\r\n    error ValueError(uint entered, uint required);\r\n    error PostPurchaseError();\r\n    error BlogExistence(uint id);\r\n\r\n    // BlogAuth - BAuth\r\n    constructor(string memory _name, string memory _symbol) ERC721(_name, _symbol) {\r\n    }\r\n\r\n    // mints an ER721 token to the given address\r\n    function mint(address to, uint256 tokenId) public {\r\n        super._mint(to, tokenId);\r\n    }\r\n\r\n    // mints an ERC721 token to the msg.sender and adds a new post to the array of posts\r\n    function newPost(Post calldata _post, uint _tokenId) public {\r\n        posts.push(_post);\r\n        creatorPosts[msg.sender].push(_post);\r\n        mint(msg.sender, _tokenId);\r\n    }\r\n\r\n    function buyPost(uint _cost, uint _tokenId, address _paymentToken) public returns(bool) {\r\n        bool res = super._exists(_tokenId);\r\n        if(!res) {revert BlogExistence({id: _tokenId});\r\n        }else{\r\n            Post memory post = getUserSinglePost(_tokenId);\r\n            if(_cost < post.price) {\r\n                revert ValueError({\r\n                    entered: _cost,\r\n                    required: post.price\r\n                });\r\n            }else{\r\n            creatorBalances[post.wallet][_paymentToken] += _cost;\r\n            IERC20(_paymentToken).approve(address(this), _cost);\r\n            IERC20(_paymentToken).transferFrom(msg.sender, post.wallet, _cost);\r\n            userBoughtPosts[msg.sender].push(post);\r\n            return true;\r\n            }\r\n        }\r\n    }\r\n\r\n    function tipPoster(uint _tip, address _paymentToken, uint _tokenId) public returns(bool){\r\n        bool res = super._exists(_tokenId);\r\n        if(!res) {revert BlogExistence({id: _tokenId});\r\n        }else{\r\n            Post memory post = getUserSinglePost(_tokenId);\r\n            creatorBalances[post.wallet][_paymentToken] += _tip;\r\n            IERC20(_paymentToken).approve(address(this), _tip);\r\n            IERC20(_paymentToken).transferFrom(msg.sender, post.wallet, _tip);\r\n            return true;\r\n        }\r\n    }\r\n\r\n    function likePost(uint _tokenId) public view returns(bool){\r\n        bool res = super._exists(_tokenId);\r\n        if(!res) {revert BlogExistence({id: _tokenId});\r\n        }else{\r\n            Post memory post = getUserSinglePost(_tokenId);\r\n            post.likes += 1;\r\n            return true;\r\n        }\r\n    }\r\n\r\n    function getCreatorPosts(address _user) internal view returns(Post[] memory){\r\n        Post[] memory _posts = creatorPosts[_user];\r\n        return _posts ;\r\n    }\r\n\r\n    function getUserPosts(address _user) public view returns(Post[] memory){\r\n        return userBoughtPosts[_user];\r\n    }\r\n\r\n    function getUserSinglePost(uint _id) internal view returns(Post memory){\r\n        Post memory post = posts[_id];\r\n        return post;\r\n    }\r\n    function getPosts() public view returns(Post[] memory){\r\n        return posts;\r\n    }\r\n    function getMostLiked() public view returns(Post memory){\r\n        uint[] memory likedList;\r\n        uint mostLiked;\r\n        Post memory mostLikedPost;\r\n        for(uint x = 0; x < posts.length; x++){\r\n            Post memory post = posts[x];\r\n            uint likes = post.likes;\r\n            likedList[likes];\r\n            if(likes > mostLiked){\r\n                mostLiked = likes;\r\n                mostLikedPost = post;\r\n            }\r\n        }\r\n        return mostLikedPost;\r\n    }\r\n\r\n    function getIds() internal view returns(uint){\r\n        return posts.length -1;\r\n    }\r\n\r\n    function creatorWithdraw(address[] calldata _token) public returns(bool){\r\n        if(_token.length < 1) {\r\n        uint bal = creatorBalances[msg.sender][_token[0]];\r\n        IERC20(_token[0]).transfer(msg.sender, bal);\r\n        }else{\r\n            for(uint x=0;x<_token.length;x++){\r\n                uint bal = creatorBalances[msg.sender][_token[x]];\r\n                IERC20(_token[x]).transfer(msg.sender, bal);\r\n            }\r\n        }\r\n        return true;\r\n    }\r\n\r\n    fallback() external payable {}\r\n    receive() external payable {}\r\n\r\n    function ethWithdraw() public returns(bool){\r\n        uint bal = address(this).balance;\r\n        address payable _owner = payable(owner());\r\n        _owner.transfer(bal);\r\n        return true;\r\n    }\r\n\r\n\r\n\r\n\r\n    \r\n}",
  "sourcePath": "C:\\Users\\kiera\\Desktop\\Keyrxng\\dex-blog\\dlt\\contracts\\BlogGen.sol",
  "compiler": {
    "name": "solc",
    "version": "0.8.4+commit.c7e474f2.Emscripten.clang"
  },
  "schemaVersion": "3.4.7",
  "updatedAt": "2022-06-16T07:03:31.775Z",
  "devdoc": {
    "kind": "dev",
    "methods": {
      "approve(address,uint256)": {
        "details": "See {IERC721-approve}."
      },
      "balanceOf(address)": {
        "details": "See {IERC721-balanceOf}."
      },
      "getApproved(uint256)": {
        "details": "See {IERC721-getApproved}."
      },
      "isApprovedForAll(address,address)": {
        "details": "See {IERC721-isApprovedForAll}."
      },
      "name()": {
        "details": "See {IERC721Metadata-name}."
      },
      "owner()": {
        "details": "Returns the address of the current owner."
      },
      "ownerOf(uint256)": {
        "details": "See {IERC721-ownerOf}."
      },
      "renounceOwnership()": {
        "details": "Leaves the contract without owner. It will not be possible to call `onlyOwner` functions anymore. Can only be called by the current owner. NOTE: Renouncing ownership will leave the contract without an owner, thereby removing any functionality that is only available to the owner."
      },
      "safeTransferFrom(address,address,uint256)": {
        "details": "See {IERC721-safeTransferFrom}."
      },
      "safeTransferFrom(address,address,uint256,bytes)": {
        "details": "See {IERC721-safeTransferFrom}."
      },
      "setApprovalForAll(address,bool)": {
        "details": "See {IERC721-setApprovalForAll}."
      },
      "supportsInterface(bytes4)": {
        "details": "See {IERC165-supportsInterface}."
      },
      "symbol()": {
        "details": "See {IERC721Metadata-symbol}."
      },
      "tokenURI(uint256)": {
        "details": "See {IERC721Metadata-tokenURI}."
      },
      "transferFrom(address,address,uint256)": {
        "details": "See {IERC721-transferFrom}."
      },
      "transferOwnership(address)": {
        "details": "Transfers ownership of the contract to a new account (`newOwner`). Can only be called by the current owner."
      }
    },
    "version": 1
  },
  "userdoc": {
    "kind": "user",
    "methods": {},
    "version": 1
  }
}