{
  "_format": "hh-sol-artifact-1",
  "contractName": "BlogGen",
  "sourceName": "contracts/BlogNFT.sol",
  "abi": [
    {
      "inputs": [
        {
          "internalType": "string",
          "name": "_name",
          "type": "string"
        },
        {
          "internalType": "string",
          "name": "_symbol",
          "type": "string"
        },
        {
          "internalType": "uint256",
          "name": "_fee",
          "type": "uint256"
        }
      ],
      "stateMutability": "nonpayable",
      "type": "constructor"
    },
    {
      "anonymous": false,
      "inputs": [
        {
          "indexed": true,
          "internalType": "address",
          "name": "owner",
          "type": "address"
        },
        {
          "indexed": true,
          "internalType": "address",
          "name": "approved",
          "type": "address"
        },
        {
          "indexed": true,
          "internalType": "uint256",
          "name": "tokenId",
          "type": "uint256"
        }
      ],
      "name": "Approval",
      "type": "event"
    },
    {
      "anonymous": false,
      "inputs": [
        {
          "indexed": true,
          "internalType": "address",
          "name": "owner",
          "type": "address"
        },
        {
          "indexed": true,
          "internalType": "address",
          "name": "operator",
          "type": "address"
        },
        {
          "indexed": false,
          "internalType": "bool",
          "name": "approved",
          "type": "bool"
        }
      ],
      "name": "ApprovalForAll",
      "type": "event"
    },
    {
      "anonymous": false,
      "inputs": [
        {
          "indexed": true,
          "internalType": "address",
          "name": "previousOwner",
          "type": "address"
        },
        {
          "indexed": true,
          "internalType": "address",
          "name": "newOwner",
          "type": "address"
        }
      ],
      "name": "OwnershipTransferred",
      "type": "event"
    },
    {
      "anonymous": false,
      "inputs": [
        {
          "indexed": true,
          "internalType": "address",
          "name": "from",
          "type": "address"
        },
        {
          "indexed": true,
          "internalType": "address",
          "name": "to",
          "type": "address"
        },
        {
          "indexed": true,
          "internalType": "uint256",
          "name": "tokenId",
          "type": "uint256"
        }
      ],
      "name": "Transfer",
      "type": "event"
    },
    {
      "inputs": [
        {
          "internalType": "address",
          "name": "to",
          "type": "address"
        },
        {
          "internalType": "uint256",
          "name": "tokenId",
          "type": "uint256"
        }
      ],
      "name": "approve",
      "outputs": [],
      "stateMutability": "nonpayable",
      "type": "function"
    },
    {
      "inputs": [
        {
          "internalType": "address",
          "name": "owner",
          "type": "address"
        }
      ],
      "name": "balanceOf",
      "outputs": [
        {
          "internalType": "uint256",
          "name": "",
          "type": "uint256"
        }
      ],
      "stateMutability": "view",
      "type": "function"
    },
    {
      "inputs": [],
      "name": "fees",
      "outputs": [
        {
          "internalType": "uint256",
          "name": "",
          "type": "uint256"
        }
      ],
      "stateMutability": "view",
      "type": "function"
    },
    {
      "inputs": [
        {
          "internalType": "uint256",
          "name": "tokenId",
          "type": "uint256"
        }
      ],
      "name": "getApproved",
      "outputs": [
        {
          "internalType": "address",
          "name": "",
          "type": "address"
        }
      ],
      "stateMutability": "view",
      "type": "function"
    },
    {
      "inputs": [
        {
          "internalType": "address",
          "name": "owner",
          "type": "address"
        },
        {
          "internalType": "address",
          "name": "operator",
          "type": "address"
        }
      ],
      "name": "isApprovedForAll",
      "outputs": [
        {
          "internalType": "bool",
          "name": "",
          "type": "bool"
        }
      ],
      "stateMutability": "view",
      "type": "function"
    },
    {
      "inputs": [],
      "name": "name",
      "outputs": [
        {
          "internalType": "string",
          "name": "",
          "type": "string"
        }
      ],
      "stateMutability": "view",
      "type": "function"
    },
    {
      "inputs": [],
      "name": "owner",
      "outputs": [
        {
          "internalType": "address",
          "name": "",
          "type": "address"
        }
      ],
      "stateMutability": "view",
      "type": "function"
    },
    {
      "inputs": [
        {
          "internalType": "uint256",
          "name": "tokenId",
          "type": "uint256"
        }
      ],
      "name": "ownerOf",
      "outputs": [
        {
          "internalType": "address",
          "name": "",
          "type": "address"
        }
      ],
      "stateMutability": "view",
      "type": "function"
    },
    {
      "inputs": [],
      "name": "renounceOwnership",
      "outputs": [],
      "stateMutability": "nonpayable",
      "type": "function"
    },
    {
      "inputs": [
        {
          "internalType": "address",
          "name": "_to",
          "type": "address"
        },
        {
          "internalType": "string",
          "name": "_uri",
          "type": "string"
        }
      ],
      "name": "safeMint",
      "outputs": [],
      "stateMutability": "payable",
      "type": "function"
    },
    {
      "inputs": [
        {
          "internalType": "address",
          "name": "from",
          "type": "address"
        },
        {
          "internalType": "address",
          "name": "to",
          "type": "address"
        },
        {
          "internalType": "uint256",
          "name": "tokenId",
          "type": "uint256"
        }
      ],
      "name": "safeTransferFrom",
      "outputs": [],
      "stateMutability": "nonpayable",
      "type": "function"
    },
    {
      "inputs": [
        {
          "internalType": "address",
          "name": "from",
          "type": "address"
        },
        {
          "internalType": "address",
          "name": "to",
          "type": "address"
        },
        {
          "internalType": "uint256",
          "name": "tokenId",
          "type": "uint256"
        },
        {
          "internalType": "bytes",
          "name": "data",
          "type": "bytes"
        }
      ],
      "name": "safeTransferFrom",
      "outputs": [],
      "stateMutability": "nonpayable",
      "type": "function"
    },
    {
      "inputs": [
        {
          "internalType": "address",
          "name": "operator",
          "type": "address"
        },
        {
          "internalType": "bool",
          "name": "approved",
          "type": "bool"
        }
      ],
      "name": "setApprovalForAll",
      "outputs": [],
      "stateMutability": "nonpayable",
      "type": "function"
    },
    {
      "inputs": [
        {
          "internalType": "bytes4",
          "name": "interfaceId",
          "type": "bytes4"
        }
      ],
      "name": "supportsInterface",
      "outputs": [
        {
          "internalType": "bool",
          "name": "",
          "type": "bool"
        }
      ],
      "stateMutability": "view",
      "type": "function"
    },
    {
      "inputs": [],
      "name": "symbol",
      "outputs": [
        {
          "internalType": "string",
          "name": "",
          "type": "string"
        }
      ],
      "stateMutability": "view",
      "type": "function"
    },
    {
      "inputs": [
        {
          "internalType": "uint256",
          "name": "tokenId",
          "type": "uint256"
        }
      ],
      "name": "tokenURI",
      "outputs": [
        {
          "internalType": "string",
          "name": "",
          "type": "string"
        }
      ],
      "stateMutability": "view",
      "type": "function"
    },
    {
      "inputs": [
        {
          "internalType": "address",
          "name": "from",
          "type": "address"
        },
        {
          "internalType": "address",
          "name": "to",
          "type": "address"
        },
        {
          "internalType": "uint256",
          "name": "tokenId",
          "type": "uint256"
        }
      ],
      "name": "transferFrom",
      "outputs": [],
      "stateMutability": "nonpayable",
      "type": "function"
    },
    {
      "inputs": [
        {
          "internalType": "address",
          "name": "newOwner",
          "type": "address"
        }
      ],
      "name": "transferOwnership",
      "outputs": [],
      "stateMutability": "nonpayable",
      "type": "function"
    }
  ],
  "bytecode": "0x60806040523480156200001157600080fd5b506040516200336a3803806200336a8339818101604052810190620000379190620002a4565b82828160009080519060200190620000519291906200016b565b5080600190805190602001906200006a9291906200016b565b5050506200008d620000816200009d60201b60201c565b620000a560201b60201c565b80600981905550505050620004c0565b600033905090565b6000600760009054906101000a900473ffffffffffffffffffffffffffffffffffffffff16905081600760006101000a81548173ffffffffffffffffffffffffffffffffffffffff021916908373ffffffffffffffffffffffffffffffffffffffff1602179055508173ffffffffffffffffffffffffffffffffffffffff168173ffffffffffffffffffffffffffffffffffffffff167f8be0079c531659141344cd1fd0a4f28419497f9722a3daafe3b4186f6b6457e060405160405180910390a35050565b8280546200017990620003cb565b90600052602060002090601f0160209004810192826200019d5760008555620001e9565b82601f10620001b857805160ff1916838001178555620001e9565b82800160010185558215620001e9579182015b82811115620001e8578251825591602001919060010190620001cb565b5b509050620001f89190620001fc565b5090565b5b8082111562000217576000816000905550600101620001fd565b5090565b6000620002326200022c8462000355565b6200032c565b9050828152602081018484840111156200024b57600080fd5b6200025884828562000395565b509392505050565b600082601f8301126200027257600080fd5b8151620002848482602086016200021b565b91505092915050565b6000815190506200029e81620004a6565b92915050565b600080600060608486031215620002ba57600080fd5b600084015167ffffffffffffffff811115620002d557600080fd5b620002e38682870162000260565b935050602084015167ffffffffffffffff8111156200030157600080fd5b6200030f8682870162000260565b925050604062000322868287016200028d565b9150509250925092565b6000620003386200034b565b905062000346828262000401565b919050565b6000604051905090565b600067ffffffffffffffff82111562000373576200037262000466565b5b6200037e8262000495565b9050602081019050919050565b6000819050919050565b60005b83811015620003b557808201518184015260208101905062000398565b83811115620003c5576000848401525b50505050565b60006002820490506001821680620003e457607f821691505b60208210811415620003fb57620003fa62000437565b5b50919050565b6200040c8262000495565b810181811067ffffffffffffffff821117156200042e576200042d62000466565b5b80604052505050565b7f4e487b7100000000000000000000000000000000000000000000000000000000600052602260045260246000fd5b7f4e487b7100000000000000000000000000000000000000000000000000000000600052604160045260246000fd5b6000601f19601f8301169050919050565b620004b1816200038b565b8114620004bd57600080fd5b50565b612e9a80620004d06000396000f3fe6080604052600436106101095760003560e01c80638da5cb5b11610095578063b88d4fde11610064578063b88d4fde14610369578063c87b56dd14610392578063d204c45e146103cf578063e985e9c5146103eb578063f2fde38b1461042857610109565b80638da5cb5b146102bf57806395d89b41146102ea5780639af1d35a14610315578063a22cb4651461034057610109565b806323b872dd116100dc57806323b872dd146101dc57806342842e0e146102055780636352211e1461022e57806370a082311461026b578063715018a6146102a857610109565b806301ffc9a71461010e57806306fdde031461014b578063081812fc14610176578063095ea7b3146101b3575b600080fd5b34801561011a57600080fd5b506101356004803603810190610130919061207c565b610451565b604051610142919061245f565b60405180910390f35b34801561015757600080fd5b50610160610533565b60405161016d919061247a565b60405180910390f35b34801561018257600080fd5b5061019d600480360381019061019891906120ce565b6105c5565b6040516101aa91906123f8565b60405180910390f35b3480156101bf57600080fd5b506101da60048036038101906101d59190612040565b61060b565b005b3480156101e857600080fd5b5061020360048036038101906101fe9190611ee2565b610723565b005b34801561021157600080fd5b5061022c60048036038101906102279190611ee2565b610783565b005b34801561023a57600080fd5b50610255600480360381019061025091906120ce565b6107a3565b60405161026291906123f8565b60405180910390f35b34801561027757600080fd5b50610292600480360381019061028d9190611e7d565b610855565b60405161029f919061267c565b60405180910390f35b3480156102b457600080fd5b506102bd61090d565b005b3480156102cb57600080fd5b506102d4610921565b6040516102e191906123f8565b60405180910390f35b3480156102f657600080fd5b506102ff61094b565b60405161030c919061247a565b60405180910390f35b34801561032157600080fd5b5061032a6109dd565b604051610337919061267c565b60405180910390f35b34801561034c57600080fd5b5061036760048036038101906103629190611fac565b6109e3565b005b34801561037557600080fd5b50610390600480360381019061038b9190611f31565b6109f9565b005b34801561039e57600080fd5b506103b960048036038101906103b491906120ce565b610a5b565b6040516103c6919061247a565b60405180910390f35b6103e960048036038101906103e49190611fe8565b610a6c565b005b3480156103f757600080fd5b50610412600480360381019061040d9190611ea6565b610bce565b60405161041f919061245f565b60405180910390f35b34801561043457600080fd5b5061044f600480360381019061044a9190611e7d565b610c62565b005b60007f80ac58cd000000000000000000000000000000000000000000000000000000007bffffffffffffffffffffffffffffffffffffffffffffffffffffffff1916827bffffffffffffffffffffffffffffffffffffffffffffffffffffffff1916148061051c57507f5b5e139f000000000000000000000000000000000000000000000000000000007bffffffffffffffffffffffffffffffffffffffffffffffffffffffff1916827bffffffffffffffffffffffffffffffffffffffffffffffffffffffff1916145b8061052c575061052b82610ce6565b5b9050919050565b606060008054610542906128a1565b80601f016020809104026020016040519081016040528092919081815260200182805461056e906128a1565b80156105bb5780601f10610590576101008083540402835291602001916105bb565b820191906000526020600020905b81548152906001019060200180831161059e57829003601f168201915b5050505050905090565b60006105d082610d50565b6004600083815260200190815260200160002060009054906101000a900473ffffffffffffffffffffffffffffffffffffffff169050919050565b6000610616826107a3565b90508073ffffffffffffffffffffffffffffffffffffffff168373ffffffffffffffffffffffffffffffffffffffff161415610687576040517f08c379a000000000000000000000000000000000000000000000000000000000815260040161067e9061261c565b60405180910390fd5b8073ffffffffffffffffffffffffffffffffffffffff166106a6610d9b565b73ffffffffffffffffffffffffffffffffffffffff1614806106d557506106d4816106cf610d9b565b610bce565b5b610714576040517f08c379a000000000000000000000000000000000000000000000000000000000815260040161070b9061259c565b60405180910390fd5b61071e8383610da3565b505050565b61073461072e610d9b565b82610e5c565b610773576040517f08c379a000000000000000000000000000000000000000000000000000000000815260040161076a9061263c565b60405180910390fd5b61077e838383610ef1565b505050565b61079e838383604051806020016040528060008152506109f9565b505050565b6000806002600084815260200190815260200160002060009054906101000a900473ffffffffffffffffffffffffffffffffffffffff169050600073ffffffffffffffffffffffffffffffffffffffff168173ffffffffffffffffffffffffffffffffffffffff16141561084c576040517f08c379a0000000000000000000000000000000000000000000000000000000008152600401610843906125fc565b60405180910390fd5b80915050919050565b60008073ffffffffffffffffffffffffffffffffffffffff168273ffffffffffffffffffffffffffffffffffffffff1614156108c6576040517f08c379a00000000000000000000000000000000000000000000000000000000081526004016108bd9061255c565b60405180910390fd5b600360008373ffffffffffffffffffffffffffffffffffffffff1673ffffffffffffffffffffffffffffffffffffffff168152602001908152602001600020549050919050565b610915611158565b61091f60006111d6565b565b6000600760009054906101000a900473ffffffffffffffffffffffffffffffffffffffff16905090565b60606001805461095a906128a1565b80601f0160208091040260200160405190810160405280929190818152602001828054610986906128a1565b80156109d35780601f106109a8576101008083540402835291602001916109d3565b820191906000526020600020905b8154815290600101906020018083116109b657829003601f168201915b5050505050905090565b60095481565b6109f56109ee610d9b565b838361129c565b5050565b610a0a610a04610d9b565b83610e5c565b610a49576040517f08c379a0000000000000000000000000000000000000000000000000000000008152600401610a409061263c565b60405180910390fd5b610a5584848484611409565b50505050565b6060610a6682611465565b50919050565b600954341015610ab1576040517f08c379a0000000000000000000000000000000000000000000000000000000008152600401610aa89061265c565b60405180910390fd5b610ab9610921565b73ffffffffffffffffffffffffffffffffffffffff166108fc6009549081150290604051600060405180830381858888f19350505050158015610b00573d6000803e3d6000fd5b506000610b0d6008611578565b9050610b196008611586565b610b23848261159c565b610b718184848080601f016020809104026020016040519081016040528093929190818152602001838380828437600081840152601f19601f820116905080830192505050505050506115ba565b60004790506000811115610bc7573373ffffffffffffffffffffffffffffffffffffffff166108fc479081150290604051600060405180830381858888f19350505050158015610bc5573d6000803e3d6000fd5b505b5050505050565b6000600560008473ffffffffffffffffffffffffffffffffffffffff1673ffffffffffffffffffffffffffffffffffffffff16815260200190815260200160002060008373ffffffffffffffffffffffffffffffffffffffff1673ffffffffffffffffffffffffffffffffffffffff16815260200190815260200160002060009054906101000a900460ff16905092915050565b610c6a611158565b600073ffffffffffffffffffffffffffffffffffffffff168173ffffffffffffffffffffffffffffffffffffffff161415610cda576040517f08c379a0000000000000000000000000000000000000000000000000000000008152600401610cd1906124bc565b60405180910390fd5b610ce3816111d6565b50565b60007f01ffc9a7000000000000000000000000000000000000000000000000000000007bffffffffffffffffffffffffffffffffffffffffffffffffffffffff1916827bffffffffffffffffffffffffffffffffffffffffffffffffffffffff1916149050919050565b610d598161162e565b610d98576040517f08c379a0000000000000000000000000000000000000000000000000000000008152600401610d8f906125fc565b60405180910390fd5b50565b600033905090565b816004600083815260200190815260200160002060006101000a81548173ffffffffffffffffffffffffffffffffffffffff021916908373ffffffffffffffffffffffffffffffffffffffff160217905550808273ffffffffffffffffffffffffffffffffffffffff16610e16836107a3565b73ffffffffffffffffffffffffffffffffffffffff167f8c5be1e5ebec7d5bd14f71427d1e84f3dd0314c0f7b2291e5b200ac8c7c3b92560405160405180910390a45050565b600080610e68836107a3565b90508073ffffffffffffffffffffffffffffffffffffffff168473ffffffffffffffffffffffffffffffffffffffff161480610eaa5750610ea98185610bce565b5b80610ee857508373ffffffffffffffffffffffffffffffffffffffff16610ed0846105c5565b73ffffffffffffffffffffffffffffffffffffffff16145b91505092915050565b8273ffffffffffffffffffffffffffffffffffffffff16610f11826107a3565b73ffffffffffffffffffffffffffffffffffffffff1614610f67576040517f08c379a0000000000000000000000000000000000000000000000000000000008152600401610f5e906124dc565b60405180910390fd5b600073ffffffffffffffffffffffffffffffffffffffff168273ffffffffffffffffffffffffffffffffffffffff161415610fd7576040517f08c379a0000000000000000000000000000000000000000000000000000000008152600401610fce9061251c565b60405180910390fd5b610fe283838361169a565b610fed600082610da3565b6001600360008573ffffffffffffffffffffffffffffffffffffffff1673ffffffffffffffffffffffffffffffffffffffff168152602001908152602001600020600082825461103d91906127b7565b925050819055506001600360008473ffffffffffffffffffffffffffffffffffffffff1673ffffffffffffffffffffffffffffffffffffffff16815260200190815260200160002060008282546110949190612730565b92505081905550816002600083815260200190815260200160002060006101000a81548173ffffffffffffffffffffffffffffffffffffffff021916908373ffffffffffffffffffffffffffffffffffffffff160217905550808273ffffffffffffffffffffffffffffffffffffffff168473ffffffffffffffffffffffffffffffffffffffff167fddf252ad1be2c89b69c2b068fc378daa952ba7f163c4a11628f55a4df523b3ef60405160405180910390a461115383838361169f565b505050565b611160610d9b565b73ffffffffffffffffffffffffffffffffffffffff1661117e610921565b73ffffffffffffffffffffffffffffffffffffffff16146111d4576040517f08c379a00000000000000000000000000000000000000000000000000000000081526004016111cb906125dc565b60405180910390fd5b565b6000600760009054906101000a900473ffffffffffffffffffffffffffffffffffffffff16905081600760006101000a81548173ffffffffffffffffffffffffffffffffffffffff021916908373ffffffffffffffffffffffffffffffffffffffff1602179055508173ffffffffffffffffffffffffffffffffffffffff168173ffffffffffffffffffffffffffffffffffffffff167f8be0079c531659141344cd1fd0a4f28419497f9722a3daafe3b4186f6b6457e060405160405180910390a35050565b8173ffffffffffffffffffffffffffffffffffffffff168373ffffffffffffffffffffffffffffffffffffffff16141561130b576040517f08c379a00000000000000000000000000000000000000000000000000000000081526004016113029061253c565b60405180910390fd5b80600560008573ffffffffffffffffffffffffffffffffffffffff1673ffffffffffffffffffffffffffffffffffffffff16815260200190815260200160002060008473ffffffffffffffffffffffffffffffffffffffff1673ffffffffffffffffffffffffffffffffffffffff16815260200190815260200160002060006101000a81548160ff0219169083151502179055508173ffffffffffffffffffffffffffffffffffffffff168373ffffffffffffffffffffffffffffffffffffffff167f17307eab39ab6107e8899845ad3d59bd9653f200f220920489ca2b5937696c31836040516113fc919061245f565b60405180910390a3505050565b611414848484610ef1565b611420848484846116a4565b61145f576040517f08c379a00000000000000000000000000000000000000000000000000000000081526004016114569061249c565b60405180910390fd5b50505050565b606061147082610d50565b6000600660008481526020019081526020016000208054611490906128a1565b80601f01602080910402602001604051908101604052809291908181526020018280546114bc906128a1565b80156115095780601f106114de57610100808354040283529160200191611509565b820191906000526020600020905b8154815290600101906020018083116114ec57829003601f168201915b50505050509050600061151a61183b565b9050600081511415611530578192505050611573565b60008251111561156557808260405160200161154d9291906123d4565b60405160208183030381529060405292505050611573565b61156e84611852565b925050505b919050565b600081600001549050919050565b6001816000016000828254019250508190555050565b6115b68282604051806020016040528060008152506118ba565b5050565b6115c38261162e565b611602576040517f08c379a00000000000000000000000000000000000000000000000000000000081526004016115f99061257c565b60405180910390fd5b80600660008481526020019081526020016000209080519060200190611629929190611cbf565b505050565b60008073ffffffffffffffffffffffffffffffffffffffff166002600084815260200190815260200160002060009054906101000a900473ffffffffffffffffffffffffffffffffffffffff1673ffffffffffffffffffffffffffffffffffffffff1614159050919050565b505050565b505050565b60006116c58473ffffffffffffffffffffffffffffffffffffffff16611915565b1561182e578373ffffffffffffffffffffffffffffffffffffffff1663150b7a026116ee610d9b565b8786866040518563ffffffff1660e01b81526004016117109493929190612413565b602060405180830381600087803b15801561172a57600080fd5b505af192505050801561175b57506040513d601f19601f8201168201806040525081019061175891906120a5565b60015b6117de573d806000811461178b576040519150601f19603f3d011682016040523d82523d6000602084013e611790565b606091505b506000815114156117d6576040517f08c379a00000000000000000000000000000000000000000000000000000000081526004016117cd9061249c565b60405180910390fd5b805181602001fd5b63150b7a0260e01b7bffffffffffffffffffffffffffffffffffffffffffffffffffffffff1916817bffffffffffffffffffffffffffffffffffffffffffffffffffffffff191614915050611833565b600190505b949350505050565b606060405180602001604052806000815250905090565b606061185d82610d50565b600061186761183b565b9050600081511161188757604051806020016040528060008152506118b2565b8061189184611938565b6040516020016118a29291906123d4565b6040516020818303038152906040525b915050919050565b6118c48383611ae5565b6118d160008484846116a4565b611910576040517f08c379a00000000000000000000000000000000000000000000000000000000081526004016119079061249c565b60405180910390fd5b505050565b6000808273ffffffffffffffffffffffffffffffffffffffff163b119050919050565b60606000821415611980576040518060400160405280600181526020017f30000000000000000000000000000000000000000000000000000000000000008152509050611ae0565b600082905060005b600082146119b257808061199b90612904565b915050600a826119ab9190612786565b9150611988565b60008167ffffffffffffffff8111156119f4577f4e487b7100000000000000000000000000000000000000000000000000000000600052604160045260246000fd5b6040519080825280601f01601f191660200182016040528015611a265781602001600182028036833780820191505090505b5090505b60008514611ad957600182611a3f91906127b7565b9150600a85611a4e919061294d565b6030611a5a9190612730565b60f81b818381518110611a96577f4e487b7100000000000000000000000000000000000000000000000000000000600052603260045260246000fd5b60200101907effffffffffffffffffffffffffffffffffffffffffffffffffffffffffffff1916908160001a905350600a85611ad29190612786565b9450611a2a565b8093505050505b919050565b600073ffffffffffffffffffffffffffffffffffffffff168273ffffffffffffffffffffffffffffffffffffffff161415611b55576040517f08c379a0000000000000000000000000000000000000000000000000000000008152600401611b4c906125bc565b60405180910390fd5b611b5e8161162e565b15611b9e576040517f08c379a0000000000000000000000000000000000000000000000000000000008152600401611b95906124fc565b60405180910390fd5b611baa6000838361169a565b6001600360008473ffffffffffffffffffffffffffffffffffffffff1673ffffffffffffffffffffffffffffffffffffffff1681526020019081526020016000206000828254611bfa9190612730565b92505081905550816002600083815260200190815260200160002060006101000a81548173ffffffffffffffffffffffffffffffffffffffff021916908373ffffffffffffffffffffffffffffffffffffffff160217905550808273ffffffffffffffffffffffffffffffffffffffff16600073ffffffffffffffffffffffffffffffffffffffff167fddf252ad1be2c89b69c2b068fc378daa952ba7f163c4a11628f55a4df523b3ef60405160405180910390a4611cbb6000838361169f565b5050565b828054611ccb906128a1565b90600052602060002090601f016020900481019282611ced5760008555611d34565b82601f10611d0657805160ff1916838001178555611d34565b82800160010185558215611d34579182015b82811115611d33578251825591602001919060010190611d18565b5b509050611d419190611d45565b5090565b5b80821115611d5e576000816000905550600101611d46565b5090565b6000611d75611d70846126bc565b612697565b905082815260208101848484011115611d8d57600080fd5b611d9884828561285f565b509392505050565b600081359050611daf81612e08565b92915050565b600081359050611dc481612e1f565b92915050565b600081359050611dd981612e36565b92915050565b600081519050611dee81612e36565b92915050565b600082601f830112611e0557600080fd5b8135611e15848260208601611d62565b91505092915050565b60008083601f840112611e3057600080fd5b8235905067ffffffffffffffff811115611e4957600080fd5b602083019150836001820283011115611e6157600080fd5b9250929050565b600081359050611e7781612e4d565b92915050565b600060208284031215611e8f57600080fd5b6000611e9d84828501611da0565b91505092915050565b60008060408385031215611eb957600080fd5b6000611ec785828601611da0565b9250506020611ed885828601611da0565b9150509250929050565b600080600060608486031215611ef757600080fd5b6000611f0586828701611da0565b9350506020611f1686828701611da0565b9250506040611f2786828701611e68565b9150509250925092565b60008060008060808587031215611f4757600080fd5b6000611f5587828801611da0565b9450506020611f6687828801611da0565b9350506040611f7787828801611e68565b925050606085013567ffffffffffffffff811115611f9457600080fd5b611fa087828801611df4565b91505092959194509250565b60008060408385031215611fbf57600080fd5b6000611fcd85828601611da0565b9250506020611fde85828601611db5565b9150509250929050565b600080600060408486031215611ffd57600080fd5b600061200b86828701611da0565b935050602084013567ffffffffffffffff81111561202857600080fd5b61203486828701611e1e565b92509250509250925092565b6000806040838503121561205357600080fd5b600061206185828601611da0565b925050602061207285828601611e68565b9150509250929050565b60006020828403121561208e57600080fd5b600061209c84828501611dca565b91505092915050565b6000602082840312156120b757600080fd5b60006120c584828501611ddf565b91505092915050565b6000602082840312156120e057600080fd5b60006120ee84828501611e68565b91505092915050565b612100816127eb565b82525050565b61210f816127fd565b82525050565b6000612120826126ed565b61212a8185612703565b935061213a81856020860161286e565b61214381612a3a565b840191505092915050565b6000612159826126f8565b6121638185612714565b935061217381856020860161286e565b61217c81612a3a565b840191505092915050565b6000612192826126f8565b61219c8185612725565b93506121ac81856020860161286e565b80840191505092915050565b60006121c5603283612714565b91506121d082612a4b565b604082019050919050565b60006121e8602683612714565b91506121f382612a9a565b604082019050919050565b600061220b602583612714565b915061221682612ae9565b604082019050919050565b600061222e601c83612714565b915061223982612b38565b602082019050919050565b6000612251602483612714565b915061225c82612b61565b604082019050919050565b6000612274601983612714565b915061227f82612bb0565b602082019050919050565b6000612297602983612714565b91506122a282612bd9565b604082019050919050565b60006122ba602e83612714565b91506122c582612c28565b604082019050919050565b60006122dd603e83612714565b91506122e882612c77565b604082019050919050565b6000612300602083612714565b915061230b82612cc6565b602082019050919050565b6000612323602083612714565b915061232e82612cef565b602082019050919050565b6000612346601883612714565b915061235182612d18565b602082019050919050565b6000612369602183612714565b915061237482612d41565b604082019050919050565b600061238c602e83612714565b915061239782612d90565b604082019050919050565b60006123af600e83612714565b91506123ba82612ddf565b602082019050919050565b6123ce81612855565b82525050565b60006123e08285612187565b91506123ec8284612187565b91508190509392505050565b600060208201905061240d60008301846120f7565b92915050565b600060808201905061242860008301876120f7565b61243560208301866120f7565b61244260408301856123c5565b81810360608301526124548184612115565b905095945050505050565b60006020820190506124746000830184612106565b92915050565b60006020820190508181036000830152612494818461214e565b905092915050565b600060208201905081810360008301526124b5816121b8565b9050919050565b600060208201905081810360008301526124d5816121db565b9050919050565b600060208201905081810360008301526124f5816121fe565b9050919050565b6000602082019050818103600083015261251581612221565b9050919050565b6000602082019050818103600083015261253581612244565b9050919050565b6000602082019050818103600083015261255581612267565b9050919050565b600060208201905081810360008301526125758161228a565b9050919050565b60006020820190508181036000830152612595816122ad565b9050919050565b600060208201905081810360008301526125b5816122d0565b9050919050565b600060208201905081810360008301526125d5816122f3565b9050919050565b600060208201905081810360008301526125f581612316565b9050919050565b6000602082019050818103600083015261261581612339565b9050919050565b600060208201905081810360008301526126358161235c565b9050919050565b600060208201905081810360008301526126558161237f565b9050919050565b60006020820190508181036000830152612675816123a2565b9050919050565b600060208201905061269160008301846123c5565b92915050565b60006126a16126b2565b90506126ad82826128d3565b919050565b6000604051905090565b600067ffffffffffffffff8211156126d7576126d6612a0b565b5b6126e082612a3a565b9050602081019050919050565b600081519050919050565b600081519050919050565b600082825260208201905092915050565b600082825260208201905092915050565b600081905092915050565b600061273b82612855565b915061274683612855565b9250827fffffffffffffffffffffffffffffffffffffffffffffffffffffffffffffffff0382111561277b5761277a61297e565b5b828201905092915050565b600061279182612855565b915061279c83612855565b9250826127ac576127ab6129ad565b5b828204905092915050565b60006127c282612855565b91506127cd83612855565b9250828210156127e0576127df61297e565b5b828203905092915050565b60006127f682612835565b9050919050565b60008115159050919050565b60007fffffffff0000000000000000000000000000000000000000000000000000000082169050919050565b600073ffffffffffffffffffffffffffffffffffffffff82169050919050565b6000819050919050565b82818337600083830152505050565b60005b8381101561288c578082015181840152602081019050612871565b8381111561289b576000848401525b50505050565b600060028204905060018216806128b957607f821691505b602082108114156128cd576128cc6129dc565b5b50919050565b6128dc82612a3a565b810181811067ffffffffffffffff821117156128fb576128fa612a0b565b5b80604052505050565b600061290f82612855565b91507fffffffffffffffffffffffffffffffffffffffffffffffffffffffffffffffff8214156129425761294161297e565b5b600182019050919050565b600061295882612855565b915061296383612855565b925082612973576129726129ad565b5b828206905092915050565b7f4e487b7100000000000000000000000000000000000000000000000000000000600052601160045260246000fd5b7f4e487b7100000000000000000000000000000000000000000000000000000000600052601260045260246000fd5b7f4e487b7100000000000000000000000000000000000000000000000000000000600052602260045260246000fd5b7f4e487b7100000000000000000000000000000000000000000000000000000000600052604160045260246000fd5b6000601f19601f8301169050919050565b7f4552433732313a207472616e7366657220746f206e6f6e20455243373231526560008201527f63656976657220696d706c656d656e7465720000000000000000000000000000602082015250565b7f4f776e61626c653a206e6577206f776e657220697320746865207a65726f206160008201527f6464726573730000000000000000000000000000000000000000000000000000602082015250565b7f4552433732313a207472616e736665722066726f6d20696e636f72726563742060008201527f6f776e6572000000000000000000000000000000000000000000000000000000602082015250565b7f4552433732313a20746f6b656e20616c7265616479206d696e74656400000000600082015250565b7f4552433732313a207472616e7366657220746f20746865207a65726f2061646460008201527f7265737300000000000000000000000000000000000000000000000000000000602082015250565b7f4552433732313a20617070726f766520746f2063616c6c657200000000000000600082015250565b7f4552433732313a2061646472657373207a65726f206973206e6f74206120766160008201527f6c6964206f776e65720000000000000000000000000000000000000000000000602082015250565b7f45524337323155524953746f726167653a2055524920736574206f66206e6f6e60008201527f6578697374656e7420746f6b656e000000000000000000000000000000000000602082015250565b7f4552433732313a20617070726f76652063616c6c6572206973206e6f7420746f60008201527f6b656e206f776e6572206e6f7220617070726f76656420666f7220616c6c0000602082015250565b7f4552433732313a206d696e7420746f20746865207a65726f2061646472657373600082015250565b7f4f776e61626c653a2063616c6c6572206973206e6f7420746865206f776e6572600082015250565b7f4552433732313a20696e76616c696420746f6b656e2049440000000000000000600082015250565b7f4552433732313a20617070726f76616c20746f2063757272656e74206f776e6560008201527f7200000000000000000000000000000000000000000000000000000000000000602082015250565b7f4552433732313a2063616c6c6572206973206e6f7420746f6b656e206f776e6560008201527f72206e6f7220617070726f766564000000000000000000000000000000000000602082015250565b7f6e6f7420656e6f75676820657468000000000000000000000000000000000000600082015250565b612e11816127eb565b8114612e1c57600080fd5b50565b612e28816127fd565b8114612e3357600080fd5b50565b612e3f81612809565b8114612e4a57600080fd5b50565b612e5681612855565b8114612e6157600080fd5b5056fea2646970667358221220db8eff278d6e0bdf498ea85437006984aeeb8019ed62c08d4a2739999d3fefc364736f6c63430008040033",
  "linkReferences": {},
  "deployedLinkReferences": {}
}